:100000008031122808000800803120007F08FD00A0
:100010002700160803190E28913148217D08200079
:10002000FF0009009331222BD03086000130870079
:10003000AC308400003085000C30FF0016001A0040
:10004000FF0B1E282100E4010830640203185E281B
:100050006408A200A301A235A30DA235A30D2208B6
:10006000013EA4000030233DA5002408200786009F
:100070002508213D8700403FA600413FA700423FA1
:10008000A800433FA9006408AA000130AA35FF3E3A
:10009000031D46282A35B83E860087012608C03F42
:1000A0002708C13F2808C23F2908C33F0130A200EA
:1000B0002208E40708306402031C2828E401033006
:1000C0006402031808006403FF3AA2000130A2355D
:1000D000FF3E031D67282235183EB83E8600870183
:1000E000403FA300413FA400423FA500433FA6007C
:1000F0006403FF3AA7000130A735FF3E031D7C28AB
:100100002735143EB83E86008701403FA800413F96
:10011000A900423FAA00433FAB0023082806E000A5
:1001200024082906E10025082A06E20026082B06F5
:10013000E3006403FF3AA2000130A235FF3E031D35
:100140009D282235103EB83E8600870160080105D3
:10015000A300413161080105A40041316208010595
:10016000A500413163080105A6002608E300250823
:10017000E2002408E1002308E0006403FF3AA20043
:100180000130A235FF3E031DC1282235183EB83E7E
:100190008600870160080106A3004131610801065D
:1001A000A400413162080106A5004131630801063F
:1001B000A6002608E3002508E2002408E100230841
:1001C000E0006408A2000130A235FF3E031DE428D0
:1001D0002235AC3E86008701403FE007413FE13DCC
:1001E000423FE23D433FE33D6408A200A301A23544
:1001F000A30DA235A30D2208213EA4000030233D0B
:10020000A5002408200786002508213D8700403FDF
:10021000E007413FE13D423FE23D433FE33D6403B0
:10022000FF3AA2000130A235FF3E031D13292235FB
:100230001C3EB83E86008701403FE007413FE13D5C
:10024000423FE23D433FE33D6403FF3AA2000130F9
:10025000A235FF3E031D28292235103EB83E8600F8
:100260008701403F2000D800413FD900423FDA00DB
:10027000433FDB001A302100A30023082000DC00EC
:100280009E317D26803120005B082100DF002000A8
:100290005A082100DE00200059082100DD0020005E
:1002A00058082100DC006403FF3AA2000130A235A7
:1002B000FF3E031D57292235103EB83E86008701B8
:1002C000403F2000D800413FD900423FDA00433F81
:1002D000DB0015302100A30023082000DC009E3144
:1002E0007D26803120005B082100DB0020005A08B9
:1002F0002100DA00200059082100D9002000580808
:100300002100D8005C085806A2005D085906A30029
:100310005E085A06A4005F085B06A5002508DB00FE
:100320002408DA002308D9002208D8006403FF3A21
:10033000A2000130A235FF3E031D9A292235103E4E
:10034000B83E86008701403F2000D800413FD900D9
:10035000423FDA00433FDB0007302100A3002308BF
:100360002000DC009E317D26803120005B082100CA
:10037000DF0020005A082100DE002000590821007B
:10038000DD00200058082100DC005C085806A200AF
:100390005D085906A3005E085A06A4005F085B06C4
:1003A000A5002508DB002408DA002308D90022086C
:1003B000D80058086007A2005908613DA3005A08F8
:1003C000623DA4005B08633DA5006403FF3AA600FC
:1003D0000130A635FF3E031DE92926351C3EB83EF7
:1003E000860087012208C03F2308C13F2408C23F7E
:1003F0002508C33F6403FF3AA2000130A235FF3E47
:10040000031DFE2922351C3EB83E86008701403F71
:10041000A300413FA400423FA500433FA600640360
:10042000FF3AA7000130A735FF3E031D132A2735E9
:100430000C3EB83E86008701403FA307413FA43DE4
:10044000423FA53D433FA63D6403FF3AA80001306B
:10045000A835FF3E031D282A28350C3EB83E8600ED
:1004600087012308C03F2408C13F2508C23F260852
:10047000C33F6403FF3A0739A2000130A235FF3EB3
:10048000031D3E2A2235B83E86008701403F2000EA
:10049000D800413FD900423FDA00433FDB001E3025
:1004A0002100A30023082000DC009E317D2680313E
:1004B00020005B082100E30020005A082100E20030
:1004C000200059082100E100200058082100E00028
:1004D0006403FF3A0739A2000130A235FF3E031D35
:1004E0006D2A2235B83E86008701403F2000D800A3
:1004F000413FD900423FDA00433FDB001330210087
:10050000A30023082000DC009E317D2680312000DE
:100510005B082100DF0020005A082100DE002000D7
:1005200059082100DD00200058082100DC005C088B
:100530006006A2005D086106A3005E086206A400D2
:100540005F086306A5002508DF002408DE002308F5
:10055000DD002208DC006403FF3A0739A200013005
:10056000A235FF3E031DB02A2235B83E8600870122
:10057000403F2000D800413FD900423FDA00433FCE
:10058000DB000A302100A30023082000DC009E319C
:100590007D26803120005B082100E30020005A08FE
:1005A0002100E200200059082100E1002000580845
:1005B0002100E00060085C06A20061085D06A3005F
:1005C00062085E06A40063085F06A5002508DF0038
:1005D0002408DE002308DD002208DC006403FF3A63
:1005E000013E0739A2000130A235FF3E031DF42A67
:1005F0002235B83E86008701403FA300413FA4005A
:10060000423FA500433FA6006403FF3A0739A70015
:100610000130A735FF3E031D092B2735B83E860064
:100620008701403FA800413FA900423FAA00433F45
:10063000AB0023082804E00024082904E100250871
:100640002A04E20026082B04E3006403FF3A023E7A
:100650000739A2000130A235FF3E031D2B2B2235A6
:10066000B83E8600870160080105A300413161089A
:100670000105A400413162080105A500413163086C
:100680000105A6002608E3002508E2002408E10091
:100690002308E0006403FF3A013E0739A20001305D
:1006A000A235FF3E031D502B2235B83E8600870140
:1006B000403FA300413FA400423FA500433FA600A6
:1006C0006403FF3A0739A7000130A735FF3E031D39
:1006D000652B2735B83E86008701403FA800413F83
:1006E000A900423FAA00433FAB0023082805D800D9
:1006F00024082905D90025082A05DA0026082B0533
:10070000DB0060085804A20061085904A3006208D5
:100710005A04A40063085B04A5002508E30024082C
:10072000E2002308E1002208E0005C086007A20064
:100730005D08613DA3005E08623DA4005F08633D63
:10074000A5006403FF3AA6000130A635FF3E031D55
:10075000A52B26351C3EB83E86008701220881075E
:1007600041312308813D41312408813D4131250833
:10077000813D6403FF3AA2000130A235FF3E031D14
:10078000BD2B22351C3EB83E86008701403FA300AA
:10079000413FA400423FA500433FA6006403FF3A47
:1007A000A7000130A735FF3E031DD22B2735083E99
:1007B000B23E8600013087002308C03F2408C13FB5
:1007C0002508C23F2608C33F6403FF3AA200013058
:1007D000A235FF3E031DE82B22350C3EB83E8600B5
:1007E0008701403FA300413FA400423FA500433F93
:1007F000A6006403FF3AA7000130A735FF3E031DA2
:10080000FD2B2735143EB23E8600013087002308B9
:10081000C03F2408C13F2508C23F2608C33F01301E
:10082000A2002208E4075F282000E700782D0330AB
:1008300022005C020318622D20006708023E860039
:1008400002308700220046085C072100EA00EB0125
:10085000EB0D03306A052000D800003021006B0545
:100860002000D9002D30DA000030DB009D318925D1
:1008700084313C302100EC002330ED00200058088A
:1008800021006C0784002000590821006D3D85007F
:100890002D30FF0016001A00FF0B4A2C0130EA0031
:1008A0006A082200DC075908523A031D622D95316F
:1008B000D6258431622D2200C601DC0152305D2D27
:1008C00020006708DE000230DF009F30E000883043
:1008D000E1000C302100EA006A082000E2008B31C0
:1008E00037238431912D622D20006708023E860057
:1008F00002308700160001040319232D6708023E09
:10090000860002308700E430840001308500063024
:10091000FF0016001A00FF0B892C0030230065022F
:100920008030031964020318992C8030E4000030F1
:10093000E50000306502FB30031964020318AB2C9C
:1009400000306502E13003196402031CAB2CE03077
:10095000E4000030E50001306502C2300319640292
:10096000031CB62CC130E4000130E5000030650204
:10097000FB30031964020318D62C64082100EA0036
:10098000230065082100EB00EC01ED010130EA35A0
:10099000EB0DEC0DED0D890BC72C1230EA35EB0D8C
:1009A000EC0DED0D890BCE2C1730E72C64082100DF
:1009B000EA00230065082100EB00EC01ED01123094
:1009C000EA35EB0DEC0DED0D890BE02C07306A04D8
:1009D0002300DC00003021006B042300DD00033025
:1009E00021006C042300DE00003021006D04230090
:1009F000DF0065082000D901D90723006408200022
:100A0000D801D807FC30DA002F30DB009E31B42645
:100A1000843120005808FF3A013E2100EA006A08AC
:100A20002200D8002300660803191D2D6608210046
:100A3000EA006A082300EA00232D8F302100EA0033
:100A40006A082300E60020006708DE000230DF00AD
:100A5000E430E0000130E10006302100EA006A08DD
:100A60002000E2008B3137238431912D200067086C
:100A7000023E8600023087000108313A0030031937
:100A800001302100EA00EA0E22000C0821006A066B
:100A9000EF396A0622008C0020006708023E8600BB
:100AA000023087000108313A0319582D4430592D7E
:100AB0005230E5000030E60065082100EA006A08CF
:100AC0002200D90020006708DE000230DF00593024
:100AD000E0000130E1000D302100EA006A0820004A
:100AE000E2008B31372384312200E001E501912DB2
:100AF000200067088600023087000108413A031988
:100B00005B2C023A0319742C063A0319362D0C3A61
:100B10000319602C1A3A0319732C043A0319172C81
:100B2000912D22008C16080023006A082100CE00B7
:100B3000CF01CE09CF09CE0A0319CF0A22005E08E1
:100B400021004E07D0004F0803184F0AD10050086B
:100B50002200D200210051082200D30053082000B7
:100B6000E101E107220052082000E001E0079E3188
:100B700009268531200060082100B60020006108A8
:100B80002100B700200062082100B80022005E08A2
:100B90002100CE00CF01CE09CF09CE0A0319CF0A1A
:100BA0002200370821004E07D0004F0803184F0AD3
:100BB000D100D035D10DD035D10DD035D10D500863
:100BC0002000E000210051082000E1009E310926AC
:100BD0008531200060082100B0002000610821005C
:100BE000B100200062082100B2008731F62785316C
:100BF00021003008B3003108B4003208B5008E314E
:100C0000FC26853121003308D2003408D300350892
:100C1000D4005208B6005308B7005408B8002300A7
:100C200031082000E101E107230030082000E00145
:100C3000E0079E3109268531200060082100A300CD
:100C4000200061082100A400200062082100A50006
:100C50000030A0000030A1003F30A2008D314325BC
:100C6000853121002008B0002108B1002208B2001F
:100C70008731F627853121003008B3003108B400F0
:100C80003208B5008E31FC26853121003308C000C2
:100C90003408C1003508C20096315C268531210038
:100CA00041082200A901A907210040082200A8014B
:100CB000A8076E0828072100CE0022002908031883
:100CC000290A2100CF004F08803AFF0080307F02C0
:100CD000031D6C2E4C304E02031C8C2E22006E081D
:100CE00028072100CE00220029080318290A210024
:100CF000CF004F08803AFF0081307F02031D822E13
:100D000000304E0203188C2E220028082100CE004D
:100D10004E082200EE07C02E22006E082807210090
:100D2000CE00220029080318290A2100CF004F080D
:100D3000803AFF0081307F02031DA02E00304E025A
:100D4000031CA42EFF30BB2E22006E0828072100B2
:100D5000CE00220029080318290A2100CF004F08DD
:100D6000803AFF0080307F02031DB82E4B304E02C8
:100D70000318C02E4B302100CE004E082200EE009A
:100D800022005E082100CE004E082200B700530862
:100D90002300B101B107220052082300B001B007BF
:100DA0000630593E86000130870022006E08C03FA1
:100DB0002C009200080020004208013A031DF22E88
:100DC00040081F390038031DF22E2200CF172000E3
:100DD0004108033A031DF02E2200B801B80AF22E92
:100DE0002200B80120004208031D080040081F39F6
:100DF000023A031D080044080F39003A031908009D
:100E000044080F392100A60002302602031808000A
:100E10006E08203A031D08002200CF172000C41BD3
:100E2000212F44080F392E3E86000130870001082B
:100E30002100A6002608AB00200044080F392C3EF4
:100E4000302F200044080F39683E860087010108D2
:100E50002100A6002608AB00200044080F392A3ED6
:100E600086000130870001082100A6002608AA009C
:100E70002A183F2FFB30A6002608AB05402F2B1564
:100E80002000C41B4E2F21002B08A6002000440880
:100E90000F392E3E860001308700572F21002B0886
:100EA000A600200044080F39683E86008701210013
:100EB0002608810020004108033A031D7C2F2100F1
:100EC0002B0886008701811F732F2000C41B6C2F05
:100ED00044080F392C3E6F2F44080F392A3E8600F4
:100EE00001308700811484302100A6002B08860081
:100EF000870126088104080004302100A600260886
:100F0000AB062B0886008701811FA12F7F30A6002A
:100F10002B0886008701260881052B08860087019B
:100F200001170530A0000030A1002B08A2000030FE
:100F3000A3000130A4000030A5009E31EB268631CD
:100F4000A62F21002B0886008701011704302100FD
:100F5000A6002608AB06AA18B22F2B088600870128
:100F6000811FD82F2000C41BB92F44080F392C3EF5
:100F7000BC2F44080F392A3E8600013087008110BB
:100F80003B302100A6002B0886008701260881053A
:100F90000530A0000030A1002B08A2000030A30003
:100FA0000130A4000030A5009E31EB268631E02FF1
:100FB0003B302100A6002B0886008701260881050A
:100FC000200044080F39983E2100A600A7010E30EA
:100FD000A73D2608A8002708A900FE30A60028087B
:100FE00086002908870026088105080021003208AC
:100FF00031043004031908008030B20608000800EC
:101000000034AB34053439346D34343403344B3468
:1010100000346C3400346F3400346E340034643483
:101020000034693400346B340034653400342034C7
:10103000003450340034723400346F3400346A3475
:1010400000346534003463340034743400340034C4
:1010500000340034003400340034003400340034F0
:1010600000340034003400340034003400340034E0
:101070000034343403344B340034313400343634E7
:1010800000340034003400340034003400340034C0
:1010900000340034003400340034003400340034B0
:1010A00000340034003400340034003400340034A0
:1010B0000034003400340034003400340034003490
:1010C0000034003400340034003400340034003480
:1010D0000034003400340034003409340234203445
:1010E0000034013401340034C0343234093404345F
:1010F000003400340234FF34FF34FF34003407344A
:1011000005340134023440340034013407340534EA
:101110008134023440340034013412340134003458
:1011200002340034003400340834D83404340A342F
:10113000F634003400340134023400340134103405
:101140004B34313436340034003400340034EF345E
:10115000BE34AD34DE340434033409340434F200D4
:10116000F301721CB7287008F1007108F30703102F
:10117000F00D0310F20CF208031DB12873080800EB
:101180007A082000D000D101220056082000D200A9
:10119000D3015208F0005308F1000F30F200003084
:1011A000F3009D316C258831200050087007D40071
:1011B0005108713DD5005408023ED6000030553D1F
:1011C000D7005708803AFF0080307F02031DEA28CD
:1011D000403056020318080076088600770887001A
:1011E00001082000D0000F30D1005108F00022008B
:1011F00056088831AF208831203E860002308700B3
:1012000020005008810022003A082000D0000F3052
:10121000D1005108F000220056088831AF208831F3
:101220002000D200520A203E86000230870050087B
:101230008100FB017A087B0203184A297908D10052
:101240007808D0007B085007840051080318510A21
:1012500085000008D200220056082000D300D401E7
:101260005308F0005408F1000F30F2000030F30092
:101270009D316C25883170087B07023E203E860038
:10128000023087002000520881000130D000500851
:10129000FB071A292200560A03392000D000500803
:1012A0002200D60008008B1348302000E0006008C0
:1012B0002200C80090302000E00060082200C90031
:1012C000DC30B0000130B10002302000E0006008E6
:1012D0002200CB008B31E023893120005E08213EC3
:1012E0002200B000003020005F3D2200B10003303A
:1012F0002000E00060082200CB008B31E023893120
:10130000B6302200B0000130B10005302000E0000E
:1013100060082200CB008B31E023893120005E0879
:10132000013E2200B000003020005F3D2200B100ED
:1013300008302000E00060082200CB008B31E02361
:101340008931B2302200B0000130B100CB01CB0AAC
:101350008B31E023893150302200C9002000E000A9
:1013600060082200C8002030B0000330B1006F08D0
:101370002000E00060082200CB008B31E023D83051
:1013800022008E008B17FD3023005C052000E0005A
:10139000FF3023005D052000E100FF3023005E05E3
:1013A0002000E200FF3023005F052000E300630817
:1013B0002300DF00200062082300DE002000610817
:1013C0002300DD00200060082300DC00080021006D
:1013D00012113D009301900198010E302000DB00B6
:1013E0009930DA00DC015C08031D062A5A088600E1
:1013F0005B08870081010130DA070030DB3D0130F6
:10140000D8005808DC075C080319F62916303D009F
:1014100091009F3097007B3092002000DD01083062
:101420005D0203182C2A5D08D8000130D835FF3E34
:10143000031D162A5835203E860087010030C03F24
:101440000030C13FC23FC33F0130D8005808DD071C
:1014500008305D02031C132A3D000E1796010E1280
:101460000E133D00901D402AF7302000D800580888
:101470003D0090052200CF01A201A301A401312A61
:1014800001302000D80058082200C200013020009E
:10149000D80058082200C300BE01BF01BD012000D2
:1014A000DD0102305D020318742A5D08683E860083
:1014B000870181015D082E3E860001308700810191
:1014C0005D082A3E86000130870081015D082C3EC0
:1014D00086000130870081010130D8005808DD07FF
:1014E00002305D02031C552A2830D8005808E80055
:1014F00016303D00980040302000D8000030D90060
:101500005808A2005908A3000830A1008430D80070
:101510005808A0002200D4012100EE01080020009C
:101520006D0886008701413FDD005D08DA00DB01C0
:101530005B0822002402031DA12A20005A08220071
:1015400023020318A82A23082000DA005A08DD0025
:101550000330203E86000130870020005D08DA005D
:10156000DB01DA09DB09DA0A0319DB0A403F5A0713
:101570002200A300413F20005B3D2200A400200088
:10158000DC015D085C020318DD2A5C08483E860029
:1015900087010108DA002200200886008701200068
:1015A0005A0881000130DA005A082200A0070130F1
:1015B0002000DA005A08DC07C12A0330203E8600EA
:1015C000013087001600010403190E2B0830DA00E1
:1015D0006E0A860087015A0881004830DA00003020
:1015E000DB006E08023E860087015A08C03F5B0898
:1015F000C13F6D0886008701011B062BC830DA0049
:101600006E08860087015A08810008008830DA00D9
:101610006E08860087015A08810008000830DA0049
:101620006E0A860087015A0881004030DA000030D7
:10163000DB006E08023E860087015A08C03F5B0847
:10164000C13F8430DA006E08860087015A088100A5
:101650002200250803192F2B25088B312E2BA213CE
:101660002000EB08031D08009331852308002000AB
:1016700062082100A000A101220056082100A2005A
:10168000A30122082000D800210023082000D9004F
:101690000F30DA000030DB009D3189258B312100CD
:1016A0002008200058072100A40021082000593DEF
:1016B0002100A5002408023EA6000030253DA70019
:1016C0002708803AFF0080307F02031D692B4030DD
:1016D00026020318080020005E0886005F088700C5
:1016E00001082100A0000F30A10021082000D8002F
:1016F000220056089C3150248B31203E8600023057
:10170000870021002008810022003A082100A00063
:101710000F30A10021082000D800220056089C317B
:1017200050248B312100A200220A203E8600023084
:101730008700200881002000E3016208630203188B
:10174000D72B61082100A100200060082100A00023
:101750002000630821002007840021080318210AC3
:1017600085000008A200220056082100A300A40161
:1017700023082000D800210024082000D9000F30C1
:10178000DA000030DB009D3189258B3120005808BC
:101790006307023E203E86000230870021002208B7
:1017A00081000130A00020082000E3079D2B2200CB
:1017B000560A03392100A00020082200D6000800A4
:1017C0002200300886003108870048308E01011859
:1017D00090308E0048308E01811890308E00483055
:1017E0008E01011990308E0048308E0181199030A1
:1017F0008E0048308E01011A90308E0048308E01E4
:10180000811A90308E0048308E01011B90308E007E
:1018100048308E01811B90308E00413148308E015E
:10182000011890308E0048308E01811890308E0063
:1018300048308E01011990308E0048308E01811998
:1018400090308E0048308E01011A90308E00483062
:101850008E01811A90308E0048308E01011B90302D
:101860008E0048308E01811B90308E00413148300F
:101870008E01011890308E0048308E018118903012
:101880008E0048308E01011990308E0048308E0154
:10189000811990308E0048308E01011A90308E00F0
:1018A00048308E01811A90308E0048308E01011B25
:1018B00090308E0048308E01811B90308E00413177
:1018C00048308E01011890308E0048308E0181180A
:1018D00090308E0048308E01011990308E004830D3
:1018E0008E01811990308E0048308E01011A90309F
:1018F0008E0048308E01811A90308E0048308E0163
:10190000011B90308E0048088E01811B49088E0013
:101910004131CB0BE52B080010302000E1006108BD
:101920002200DA0002302000D8000030D900220066
:101930005A082000E100E2016108DA006208DB00D9
:101940009031F4208C3120005808E3006308220015
:10195000EF006F082000E100E2016108D800620892
:10196000D9000030DA004030DB009031F4208C31B7
:10197000200059082100A101A107200058082100DA
:10198000A001A00702302000D8000030D9002100BB
:1019900021082000DB01DB07210020082000DA01FC
:1019A000DA079031F4208C31200059082200E4013C
:1019B000E407200058082200E301E3070030260076
:1019C000A3000030A2000030A1000030A0002100E0
:1019D000A201A20A22006F082100220203183A2D58
:1019E00022006F082000E1000130E135FF3E031DB9
:1019F000F52C6135FC3E403E860003308700403FB9
:101A0000E200413FE300423FE400433FE5002100A4
:101A100022082000E6000130E635FF3E031D0C2DB4
:101A20006635FC3E203E860003308700403FE207DB
:101A3000413FE33D423FE43D433FE53D2100220875
:101A40002000E7000130E735FF3E031D232D6735F9
:101A5000203E8600033087006208C03F6308C13F14
:101A60006408C23F6508C33F0130E10061082100FE
:101A7000A207EA2C52302000E10061082200D900C0
:101A8000E101E201080021002008A6002108A700CA
:101A90002208A8000310270D280DA9002908AA0074
:101AA000AA08031D5A2D0030A0000030A10000300C
:101AB000A20008002308A6002408A7002508A80003
:101AC0000310270D280DA9002908AF00AF08031D3A
:101AD000702D0030A0000030A1000030A2000800EE
:101AE0002F087B3EA6002608AA072008A60021088A
:101AF000A7002208A8001030A836A70CA60C890B56
:101B00007C2D2608A9002908AF002308A600240878
:101B1000A7002508A8001030A836A70CA60C890B32
:101B20008C2D2608A9002908AF068030A6002608BB
:101B3000AF05A117A417FF30A305FF30A40500309F
:101B4000A5050030AB000030AC000030AD00073020
:101B5000A6002608AE00201CB32D2308AB072408DE
:101B6000AC3D2508AD3D0130A236A10CA00C890B7F
:101B7000B42D0130A335A40DA50D890BBA2D01306C
:101B8000AE02031DAB2D0930A6002608AE00201CB6
:101B9000CF2D2308AB072408AC3D2508AD3D01300F
:101BA000A236A10CA00C890BD02D0130AD36AC0CA7
:101BB000AB0C890BD62D0130AE02031DC72D2B08AF
:101BC0002000D80021002C082000D90021002D0879
:101BD0002000DA0021002A08A60026082000DB00E9
:101BE00021002F08A70027082000DC0092315E2288
:101BF000200058082100A000200059082100A10061
:101C000020005A082100A20008002100EE08031D50
:101C1000192E3D008E019201163091009F309700E1
:101C20007B3092008E19162E8E15122E2100EE0199
:101C3000EE0A6E08013A031D292E3D008E1A292E48
:101C4000900192011214121602302100B2003208E3
:101C5000EE003D001019121D362EFB302100B2009F
:101C600032083D0090059C31FD248E313D008E1CD4
:101C70003C2E2000121108001018121C4C2E893125
:101C8000E7218E3104302100B2003208EE00FE3030
:101C9000B20032083D009005101A121E582E9D31D8
:101CA00034258E31EF302100B20032083D0090051E
:101CB000101F7E2E121F6C2E73302100A0000030EA
:101CC000A1000030A2000030A3000130A4000030C9
:101CD000A5009E31EB268E31BF302100B2003208C4
:101CE0003D009005220044080319782E0130C402FB
:101CF000C408031D7E2E933185238E313D00901A3A
:101D0000921E852E9D31E7258E313D009018921C44
:101D10009B2EFF302100A0007F30A1000030A200E8
:101D20000030A3000130A4000030A5009E31EB2656
:101D30008E313D009301043021006E020318A32E62
:101D40002000121108003D00921DF92E2100B4015F
:101D5000F22E0F082100B2003208EF006F0CB20023
:101D6000B20C320C0F39B30033082200C700F73031
:101D70002100B20032083D00900521006F19C42EE9
:101D8000220047082C3EC72E220047082A3E860024
:101D900001308700010801392100B2000130B2068C
:101DA00001083206FE39320681002200C708031DF1
:101DB000DD2E9431DB248E31ED2E72302100A00017
:101DC0000030A100EF30A2000030A3000030A400DA
:101DD0000030A5009E31EB268E3101302100B2008B
:101DE0003208B407043034020318F92E3D0090196C
:101DF000A92E20001211080021003308B900340870
:101E0000BA003508BB0003103A0D3B0DBC003C087E
:101E1000BF003608B9003708BA003808BB00031005
:101E20003A0D3B0DBC003C08BE003F080319242FAF
:101E30003E083F0203182B2F3F03FF3A3E07B9002D
:101E400019303902031C2B2F3608B3003708B400B1
:101E50003808B50008003E08031908003F083E0294
:101E600003183A2F3E03FF3A3F07B90019303902F1
:101E7000031808000630B9003908BD00B51BBD17AE
:101E8000B81B3D17B417FF30B305FF30B405003061
:101E9000B505B717FF30B605FF30B7050030B805F8
:101EA0003E083F020318762F0130B635B70DB80D46
:101EB000890B552F0130BE023E083F060319712FD2
:101EC0000130BD023D0807390319712F542F01302D
:101ED000B536B40CB30C890B682F0130B900390842
:101EE000BF073F083E0603199B2F672F3F083E029E
:101EF00003189B2F0130B335B40DB50D890B7B2F23
:101F00000130BF023E083F060319972F0130BD0282
:101F10003D0807390319972F7A2F0130B836B70CCF
:101F2000B60C890B8E2F0130B9003908BE073F0867
:101F30003E06031D8D2FBD1FAD2FFF30B306FF30B2
:101F4000B406FF30B5060130B30700300318013086
:101F5000B407003003180130B5073D1FBF2FFF3015
:101F6000B606FF30B706FF30B8060130B6070030BE
:101F700003180130B707003003180130B807BD015E
:101F80003308B6073408B73D3508B83DB81FDA2F17
:101F9000FF30B606FF30B706FF30B8060130B6078F
:101FA000003003180130B707003003180130B807BC
:101FB000BD01BD0A36082000D800210037082000E6
:101FC000D900210038082000DA0021003F08B900BC
:101FD00039082000DB0021003D08BA003A08200043
:101FE000DC0092315E22200058082100B30020005E
:101FF00059082100B40020005A082100B50008004B
:10200000080008002200CC012000EB012200BE01E4
:10201000BF01B2012000EC017F302100AD002000A3
:1020200068088600870121002D0881050430AD0075
:102030002D082000E8067F302100AD002000680850
:102040008600870121002D0881050430AD002D0890
:102050002000E8067F302100AD0020006E088600D9
:10206000870121002D0881052200CF01D001D10177
:10207000A201A301A401923100229031033021007A
:10208000A0000030A1000030A2000030A30000300A
:10209000A4000030A5009E31EB2690319331E92356
:1020A00008002200BE01BF0120006C08023A031D97
:1020B00074280830DB006E0A860087015B08810007
:1020C0004830DB000030DC006E08023E86008701ED
:1020D0005B08C03F5C08C13FC830DB006E0886006B
:1020E00087015B0881000800220051082000470298
:1020F000031D7E282200500820004602031889286C
:1021000047082200D101D107200046082200D00153
:10211000D0079631E326903148302000DB000030B4
:10212000DC006808023E860087015B08C03F5C084F
:10213000C13FC830DB006808860087015B0881006A
:1021400008002000C8010030C900D9282200CF179C
:102150002000481422003808013A031DE528200019
:10216000C814E5282200CF17E5282200CF17200049
:10217000C41BC12844080F392E3E86000130870059
:10218000C62844080F39683E860087010108D80038
:102190005808D900590886008701811FE528590889
:1021A00086008701011DE5280130D8005808C800C5
:1021B000E52840081F39003A0319A628013A0319F7
:1021C000B228033A0319B528E5282200CF1F0800DA
:1021D0004830CD000030CE004F1402302000D8002F
:1021E00058082200D00008002000DE01D91FFF2877
:1021F000D809D909D80A0319D90ADE01DE0ADB1F7A
:102200000A29DA09DB09DA0A0319DB0A0130DC00E2
:102210005C08DE06DF01E00159085804031939297A
:10222000DD01DD0AD91B1E290130D835D90D890BF6
:1022300015290130DC005C08DD0712290130DF358B
:10224000E00D890B1F2959085B02031D2929580835
:102250005A02031C30295808DA025908DB3B5F1484
:102260000130D936D80C890B31290130DD02031D2C
:102270001E295E0803194129DF09E009DF0A031955
:10228000E00A6008D901D9075F08D801D80708001B
:102290002200BC0104302200390203187E292000EC
:1022A000911E632923001908FC0022003908023E10
:1022B000CA3E8600013087007C0881000130FC00A6
:1022C0007C08B907BC010130FC007C082200BC0777
:1022D00022303C02031C71290130FC007C08E50718
:1022E0009B2923009D1C4A2922005908573A031DA7
:1022F0009B290130FC007C08E0079B295908573ACC
:10230000031D9B293D30FC007C082300CA002200ED
:102310005D08FC007C082300CB00CA30F6000130C9
:10232000F700CB30F8000130F9000530FC007C08E4
:10233000FA008831C02023009D139D172200B901A7
:10234000270096010800220058082100D5005508F2
:10235000200095070B1122005908573A031DCE297A
:102360000830593E86000130870001308107413135
:102370000318810A7F31403F6306031DC129413F95
:102380006406031DCE295C080319C8295030C929E9
:1023900052302100D50055082200D900013021001B
:1023A000D50055082200BB07031D08008C12210030
:1023B0001C08D50055082200DE0021009D140F30B6
:1023C0002000D8000030D90001302100D500550888
:1023D0002200C50745082100D600D7015608200075
:1023E000DA00210057082000DB009F316A27913175
:1023F000200059085804031D080085319425080061
:102400002000400E890C0339003A031D0800522AAF
:102410002200CF1708302100AC002C08EE00080085
:102420009531572508009731712708005430220054
:10243000CD000130CE004F14D001D00ACF170800D4
:102440009031A12008008631DB26080020004408D6
:10245000553E2200CD000130CE004F14D001D00AED
:10246000CF1708002200CF17200042082100AC003F
:1024700020004408553E86000130870021002C08CA
:102480008100080002302100A0000030A1000030CF
:10249000A2000030A3000030A4000030A5009E314F
:1024A000EB2608002000410884000D3004020318C8
:1024B000080098310435003E8200080020005B08C7
:1024C0000319672A5A0859045804031D782A003052
:1024D000D8000030D9000030DA0008000130DD00FB
:1024E0005D08DB070130DA36D90CD80C890B732A6A
:1024F000FE305A050319912A6E2A0130DD005D086D
:10250000DB070130D807003003180130D90700304D
:1025100003180130DA070130DA36D90CD80C890BF0
:102520008C2AFF305A0503199E2A7D2A0130DB02CE
:102530000130D835D90DDA0D890B992AD91F962A81
:102540005B18A82AFF30D8057F30D905FF30DA059F
:102550000310DB0C5B08DD00DE01DF011030DD3530
:10256000DE0DDF0D890BAF2A5D08D8045E08D904A3
:102570005F08DA045C0803190800DA170800200075
:102580006808860087010030011B0130DD0004303F
:10259000DB005B08E80621006E08083A031DDF2A0D
:1025A000200042083D00960016080319D92A103071
:1025B000DA2A04302000DB005B082100EE00200056
:1025C0006C08013A031D152B4830DB000030DC009D
:1025D0006808023E860087015B08C03F5C08C13F77
:1025E0009631E326923122004C08023A031D012B5A
:1025F00084302000DB006808860087015B088100CA
:1026000008002000DD08031D0D2BC830DB00680822
:10261000860087015B08810008008830DB006808BD
:10262000860087015B08810008002200A21F1F2B83
:10263000250803191E2B250893311D2BA2132000FA
:10264000EC0108003C30840023308500B430FE00EB
:102650000030FF009C3136249331E801E901EA01A2
:10266000EB01EC01ED01EE01EF012100EE01EF01C4
:1026700020308400013085003830FE000030FF003B
:102680009C3136249331A0308400013085003030F5
:10269000FE000030FF009C3136249331203084004E
:1026A000033085002030FE000030FF009C313624CE
:1026B0009331423084009C308500583086000130D0
:1026C00087000030FF000E309C312A249331E33024
:1026D00084009C308500D0308600013087000030B7
:1026E000FF001A309C312A249331C73084009D307A
:1026F000850040308600033087000030FF00203026
:102700009C312A2420009C31CC2C2200C208031DBD
:10271000080001302000D80058082200C200C30879
:10272000031D080001302000D80058082200C30013
:1027300020006C08023A031DA92B680A8600870155
:102740008101C830D80068088600870158088100D8
:1027500008006C08013A031D08002200B20108308D
:102760002000D8006D0A860087015808810040309B
:10277000D8000030D9006D08023E86008701580855
:10278000C03F5908C13F8430D8006D0886008701DA
:10279000580881002200B201B20A08302000D80097
:1027A0006E0A86008701580881004030D80000304A
:1027B000D9006E08023E860087015808C03F5908BC
:1027C000C13F8030D8006E0886008701580881001C
:1027D00008003D000E122200CF1B222CA21FFF2B4F
:1027E00002302000DD005D08EC002200BF08031D60
:1027F000FB2B903151202200C301C2010800083098
:102800002000DD006E0A860087015D0881004030EF
:10281000DD000030DE006E08023E860087015D08A4
:10282000C03F5E08C13F8C30DD006E088600870126
:102830005D0881008430DD006808860087015D083E
:10284000810008002000C01F382CEC01EC0A220097
:10285000BE08031D2E2C9031512093312200C3015C
:10286000C2012000EB08031D0800933185230800F6
:1028700002302000DD005D08EC000830DD006E0A4B
:10288000860087015D0881004030DD000030DE00F9
:102890006E08023E860087015D08C03F5E08C13FAA
:1028A0008430DD006E08860087015D08810022000B
:1028B000C301C2012000EB08031D080093318523EA
:1028C0000800203021006E02031C08003D008E1815
:1028D00008002200410803197A2C4108860087016C
:1028E000010D010D0139E600E7016608EA006708FD
:1028F000EB007C2CEA01EB016B086A04031D9A2CA7
:10290000A0308431142494312000DC01A030220056
:10291000E60066082000DD0040302200E70067087E
:102920002000DE0001309F31B22794312200E80000
:102930006808C10056085706031908004008031923
:10294000AE2C400886008701010D010D0139E6001B
:10295000E7016608EC006708ED00B02CEC01ED0122
:102960006D086C04031D08002000DC01DC0A0F3038
:102970002200E60066082000D800220057089C319B
:1029800050249431203E2200E70067082000DD003B
:102990000F302200E80068082000DE0001309F317F
:1029A000B2272200E9006908C000570A0339E6008F
:1029B0006608D700080028302100AE002E0822004B
:1029C000C40021006F08FD39031D4C2D6F363F39BF
:1029D000AE000130AE35FF3E031DEA2C2E35203E01
:1029E000AF002F082000ED006D082100AE002E087A
:1029F0002000EE0004302100AE002E082000EE067C
:102A00006D0886008701010C890C0F390D3A031DF2
:102A1000492D2100B101083031020318382D200062
:102A20006D08023E86008701403F2100AE00413F15
:102A3000AF002E0886002F0887000108B00031087B
:102A4000403E860087013008810020006D08023E6C
:102A5000860087010130810741310318810A013066
:102A60002100AE002E08B10708303102031C0F2DE3
:102A70004030AE000030AF0020006D08023E8600FE
:102A8000870121002E08C03F2F08C13F903102204E
:102A900008009E3150260800FD3021006F05AE0071
:102AA0002E08043A031D08009231BF2208002000BE
:102AB0004008803A031D0800C030D80058082200A2
:102AC000CF00C92D8D302200CD008830CE001230CD
:102AD000D0000030D1000800043084008830850028
:102AE0002000420884070318850A003F2200CD0019
:102AF0008830CE004E082000D90022004D0820006A
:102B0000D80002305807840059080318590A850074
:102B10000008DA005A082200D0004E082000D90030
:102B200022004D082000D8000330580784005908BF
:102B30000318590A85000008DA005A082200D1005B
:102B400008000330200042020318C32D0130840026
:102B500088308500420884070318850A003F220058
:102B6000CD008830CE004D0884004E088500000856
:102B70002000D800D90158082200D00020005908B0
:102B80002200D10008002200CF0108002200CF015E
:102B9000080020004308013A0319622D033A031983
:102BA0006C2D013A0319A12DC62D080022004608FC
:102BB0002100E500E60165082000D8002100660834
:102BC0002000D9002D30DA000030DB009D3189254E
:102BD00095313C302100E7002330E8002000580800
:102BE00021006707A000200059082100683DA100CE
:102BF000803114209531220046082100E500E601CD
:102C000065082000D800210066082000D9002D307A
:102C1000DA000030DB009D31892595313C30210000
:102C2000E7002330E80020005808210067078600ED
:102C3000200059082100683D87000108E900690863
:102C40002200DD0046082100E500E60165082000BD
:102C5000D800210066082000D9002D30DA000030AD
:102C6000DB009D31892595313C302100E700233080
:102C7000E80020005808210067072000DE005908FE
:102C80002100683D2000DF00893153212200460ADF
:102C900003392100E50065082200C600E101E201D8
:102CA00058082000950057302100E50065082200F3
:102CB000D9000130DC02080021004008C4004108AE
:102CC000C5004208C6000310450D460DC700470861
:102CD000CD00CD08031D752E0030C3000030C200AA
:102CE0000030C1000030C00008004008C4004108A6
:102CF000C5004208C6001730C636C50CC40C890B87
:102D00007C2E4408C7004708C800C117FF30C00523
:102D1000FF30C1050030C2054008C9004108CA00A3
:102D20004208CB00CC018E30CD02CD1FB32E4D0812
:102D3000803A8F3E0318A52E0030C3000030C20039
:102D40000030C1000030C00008000130CC36CB0C90
:102D5000CA0CC90C890BA62E0130C4004408CD074B
:102D60000319CC2EA52E18304D02031CC92E00309D
:102D7000C3000030C2000030C1000030C0000800B5
:102D80000130C935CA0DCB0DCC0D890BC12E0130D8
:102D9000CD02CD08031DC02E48080319DA2EC9093B
:102DA000CA09CB09CC09C90A0319CA0A0319CB0AF3
:102DB0000319CC0A4C08C3004B08C2004A08C100E2
:102DC0004908C000080008302000D8005808DA0080
:102DD0000030220051020830031950020318062F58
:102DE00050082000D8005808DA002200CC08031D43
:102DF000FC2ECC01CC0A062F4C08013A031D062FED
:102E000002302000D80058082200CC0003304D3E8C
:102E100086000130870020005A08D800D901D8095F
:102E2000D909D80A0319D90A403F58072200D0000F
:102E3000413F2000593D2200D10020005A08D8000F
:102E4000680A86008701580881004830D800580871
:102E50002200CA004F1C4A2F6C2F22004D0884000C
:102E60004E08850000082000D80022004A0886008D
:102E7000870120005808810001302200CD07003072
:102E8000CE3D01302000D80058082200CA0701308A
:102E90002000DA022000DA08031908002D2F220092
:102EA0004D0884004E08850000082000D80022004C
:102EB0004A0886008701200058088100013022005E
:102EC000CD070030CE3D01302000D8005808220048
:102ED000CA0701302000DA022000DA0803190800CE
:102EE0004F2F2200CF170E302100A8009930A700E5
:102EF000A9012908031D8C2F2708860028088700B0
:102F000081010130A7070030A83D0130A600260846
:102F1000A907290803197C2F20302000D800003091
:102F2000D9000030DA000030DB002030DC00003057
:102F3000DD009D31A72597313D000E172100AA0124
:102F400002302A020318B82F2A082A3E86000130D0
:102F5000870081012A082C3E86000130870081010C
:102F60000130A6002608AA0702302A02031CA42F5B
:102F700055302000D8000130D9000030DA00003090
:102F8000DB000130DC000030DD009D31A7259731EA
:102F90003D000E1328302100A60026082000E8007E
:102FA00020302100A60026082000ED006D08210039
:102FB000A60026082000EE0042082100A6002608F0
:102FC0002200D400D408031DEB2F10302100A600EE
:102FD0002608EE00080001302100A0000030A1000A
:102FE0005430A2000130A3000130A4000030A5003D
:102FF0009E31EB2620302100A6002608EE000800B6
:103000009231202A9231232A92315D2A9231232A49
:1030100092315D2A9231082A9231102A9231422A45
:103020009231162A9231132A9231262A9231322A6B
:0430300092315D2A52
:10384C000800803103200800FE0012001E00013029
:10385C00FE020030FF3B7F087E04031900342B2C42
:10386C006400800101310130FE020030FF3B7F0813
:10387C007E0403190034372CDC3449340034003412
:10388C00003400340034003400340034003400348C
:10389C00403400342000DB00DA015B1C592C580842
:1038AC00D9005908DA070310D80D0310DB0CDB081C
:1038BC00031D532C5A0808002200B90123001E16C0
:1038CC009D179E131F129F158D12270094178B1591
:1038DC0096018B1723001D16FF309900080021005C
:1038EC008C1222008C169C319E249C319D315025CB
:1038FC009C319C3188249C319C3162249C318C31CC
:10390C008C24080021009512951107309504220093
:10391C0058082000950021008E130E130E128E11E4
:10392C00D83022008E0021000C1222000C1208004C
:10393C0021000E151D08833918389D001D149E1387
:10394C001E088F3960389E00FC309E058F309F0515
:10395C008F302000D80058082300EA00080023000C
:10396C008C018D0104308E0021009801FC309900EF
:10397C00903027009B002200C101C001D701D60165
:10398C009C3175249C318931E72108009C31B52488
:10399C009C318E3105269C310B1DD72C9131A321E6
:1039AC009C3122005908503A031DDF2C9531D62545
:1039BC009C31943161249C31CF2C98342F348A342F
:1039CC0042349134443437347134CF34FB34C03402
:1039DC00B5340734003437340534723401340034D0
:1039EC0000344D3401348F34003400340034220060
:1039FC00BD0174302100A0000030A1000030A200F5
:103A0C000030A3000030A4000030A5009E31EB264E
:103A1C003D008E101211FB302100A60026083D003F
:103A2C00900508001E302000E5006508DF0001301D
:103A3C009E312B269D312000DC01A030E50065086D
:103A4C00DD004030E6006608DE0001309F31B22711
:103A5C002000E70067082200C10008003D00121595
:103A6C00EF302100A60026083D0090058E142200A0
:103A7C00BD01BD0A75302100A0000030A10000304E
:103A8C00A2000030A3000030A4000030A5009E313D
:103A9C00EB26080021008E162C009301FF3020002D
:103AAC009B00C0302C009300E6302200EE002C006E
:103ABC0092009101200091101C08FC3901389C00E7
:103ACC001C1521008E122C0013170800F401F501AF
:103ADC00701C742D7208F4077308F53D0130F23533
:103AEC00F30D890B752D0130F136F00C890B7A2D05
:103AFC0071087004031D6E2D7508F101F10774082F
:103B0C00F001F00708002000DC01DD01581C922DAB
:103B1C005A08DC075B08DD3D0130DA35DB0D890B1B
:103B2C00932D0130D936D80C890B982D590858048F
:103B3C00031D8C2D5D08D901D9075C08D801D80765
:103B4C00080020005908E001E0075808DF01DF07F2
:103B5C000130DC020030DD3BFF305D06031DB82D6B
:103B6C00FF305C06031908005A08DE005F08860067
:103B7C00600887005E0881000130DF070030E03DFF
:103B8C00AE2D0034003400340034003400340034E2
:103B9C004034AA34AA34AA342A3400340034003411
:103BAC002034993499349934193455345534553466
:103BBC001534923424344934123400340034003433
:103BCC0010343D00181C022E20006D088600870161
:103BDC000108803A031D002E680886008701010841
:103BEC00843A031D002E8C30D8006D0886008701A6
:103BFC00580881003D001810DF302000D80058080C
:103C0C003D00900508002000E501E11F142EE0099D
:103C1C00E109E00A0319E10AE501E50A6008D800A8
:103C2C006108D900DA018E30E3006308DB00650817
:103C3C00E4006408DC0092315E2220005808E000A9
:103C4C005908E1005A08E20008002000E4005F1D5A
:103C5C00342ED80164089F312A279E312000DF1CA6
:103C6C003C2ED801D80A64089F312A27200064080A
:103C7C00983EE000E1010E30E13D6008E200610891
:103C8C00E3005F08E00062088600630887006008B4
:103C9C008100080020006C08023A031D582E8A315E
:103CAC008F2208002000EC012200B208031D7A2E9E
:103CBC0008302000DE006E0A860087015E08810055
:103CCC004030DE000030DF006E08023E86008701C7
:103CDC005E08C03F5F08C13F8C30DE006E08860076
:103CEC0087015E08810008002200B2010800200054
:103CFC005808DD005908DE005A08DF005B08E000B8
:103D0C005C03FF3A203E890A902E0310E00CDF0C76
:103D1C00DE0CDD0CFF3E031D8B2E5808E10059080C
:103D2C00E2005A08E3005B08E4005C0AA12EE135CE
:103D3C00E20DE30DE40D890B9D2E6108DD04620894
:103D4C00DE046308DF046408E0046008DB005F083D
:103D5C00DA005E08D9005D08D80008002000DE01FA
:103D6C00DF01590858040319E42EDD01DD0AD91BC3
:103D7C00C92E0130D835D90D890BC02E0130DC008D
:103D8C005C08DD07BD2E0130DE35DF0D890BCA2E38
:103D9C0059085B02031DD42E58085A02031CDB2E53
:103DAC005808DA025908DB3B5E140130D936D80CBE
:103DBC00890BDC2E0130DD02031DC92E5F08D901F1
:103DCC00D9075E08D801D8070800012F90310120CF
:103DDC0008009C31262408009031002008009D31F9
:103DEC00182508008731FF2708009C31272408007C
:103DFC0080310220080021002108003A03190A2F03
:103E0C007F3A0319242F292F2008013A0319F52E84
:103E1C00033A0319F82E013A0319FB2E063A03193B
:103E2C00292F773A0319292F013A0319EC2E073A57
:103E3C000319F22E013A0319EF2E292F2008FF3A0D
:103E4C000319FE2E292F08002000DD002030D90098
:103E5C005908DE005808D9000130D935890B332FA9
:103E6C005D08DA000130DA35FF3E031D392F5A3573
:103E7C005907DB000130DB35FF3E031D412F5B355D
:103E8C00DC005C08DE075E08860087018113D80819
:103E9C00031D582F5E08D9005D082E3E86000130A8
:103EAC0087005E2F5E08D9005D08683E860087019A
:103EBC00590881005E088600870101135E08043EE4
:103ECC0086008701011708002000DE01DB1F752F1B
:103EDC00DA09DB09DA0A0319DB0ADE01DE0AD91F6B
:103EEC007C2FD809D909D80A0319D90A59085804BA
:103EFC000319A32FDD01DD0AD91B8E2F0130D83514
:103F0C00D90D890B852F0130DC005C08DD07822F71
:103F1C0059085B02031D942F58085A02031C9A2F50
:103F2C005808DA025908DB3B0130D936D80C890B1A
:103F3C009B2F0130DD02031D8E2F5E080319AB2F62
:103F4C00DA09DB09DA0A0319DB0A5B08D901D9079C
:103F5C005A08D801D80708002000E1005C080319B2
:103F6C00BC2F6108683E86008701C12F61082E3E78
:103F7C008600013087000108DF005F08E200E208DC
:103F8C00031DCA2F003008005D08DF000230E0007E
:103F9C006208023E860087015F08C03F6008C13F8F
:103FAC005E08DF00620A860087015F0881004030EE
:103FBC00DF006208860087015F0881058830DF001A
:103FCC006208860087015F0881045C080319F52FDD
:103FDC000430DF006108683E86008701FC2F043046
:103FEC00DF0061082E3E8600013087005F088106E5
:043FFC00620808004F
:020000040001F9
:04000E0084CFCFDFED
:00000001FF
