:100000008031122808000800803120007F08DD00C0
:100010002700160803190E288A31E02220005D0807
:10002000FF0009009231382AA03086000130870095
:1000300020308400013085000C30FF0016001A00CB
:10004000FF0B1E282200D80108305802031863282D
:1000500058082100AF00B001AF35B00DAF35B00D7D
:100060002F08013EB1000030303DB20031082D07AD
:10007000860032082E3D8700403FB300413FB40068
:10008000423FB500433FB600220058082100B700A8
:100090000130B735FF3E031D492837352C3E860019
:1000A000013087003308C03F3408C13F3508C23FE4
:1000B0003608C33F0130AF002F082200D8070830B0
:1000C0005802031C2828D8010330580203180800DE
:1000D0005803FF3A2100AF000130AF35FF3E031D4A
:1000E0006D282F35183E2C3E860001308700403F9A
:1000F000B000413FB100423FB200433FB300220095
:100100005803FF3A2100B4000130B435FF3E031D0F
:1001100085283435143E2C3E860001308700403F50
:10012000B500413FB600423FB700433FB80030083A
:1001300035062200D4002100310836062200D50001
:100140002100320837062200D60021003308380685
:100150002200D7005803FF3A2100AF000130AF352D
:10016000FF3E031DAF282F35103E2C3E8600013088
:1001700087002200540801052100B000413122000F
:10018000550801052100B100413122005608010542
:100190002100B20041312200570801052100B300BF
:1001A00033082200D700210032082200D6002100A7
:1001B00031082200D500210030082200D400580365
:1001C000FF3A2100AF000130AF35FF3E031DE428A8
:1001D0002F35183E2C3E860001308700220054083F
:1001E00001062100B000413122005508010621001E
:1001F000B10041312200560801062100B200413110
:100200002200570801062100B30033082200D7005E
:10021000210032082200D600210031082200D5003A
:10022000210030082200D40058082100AF0001301E
:10023000AF35FF3E031D18292F35203E86000130C3
:100240008700403F2200D407413FD53D423FD63D85
:10025000433FD73D58082100AF00B001AF35B00D86
:10026000AF35B00D2F08213EB1000030303DB20057
:1002700031082D07860032082E3D8700403F2200BE
:10028000D407413FD53D423FD63D433FD73D58037C
:10029000FF3A2100AF000130AF35FF3E031D4C296E
:1002A0002F351C3E2C3E860001308700403F220047
:1002B000D407413FD53D423FD63D433FD73D58034C
:1002C000FF3A2100AF000130AF35FF3E031D642926
:1002D0002F35103E2C3E860001308700403FA000A5
:1002E000413FA100423FA200433FA3001A30B000AB
:1002F0003008A4009D311025803121002308220000
:10030000D300210022082200D2002100210822006F
:10031000D100210020082200D0005803FF3A21001C
:10032000AF000130AF35FF3E031D92292F35103E3F
:100330002C3E860001308700403FA000413FA100D5
:10034000423FA200433FA3001530B0003008A40094
:100350009D3110258031210023082200CF0021008B
:1003600022082200CE00210021082200CD00210019
:1003700020082200CC0050084C062100AF002200CB
:1003800051084D062100B000220052084E062100FF
:10039000B100220053084F062100B20032082200AB
:1003A000CF00210031082200CE00210030082200B9
:1003B000CD0021002F082200CC005803FF3A210075
:1003C000AF000130AF35FF3E031DE2292F35103E4F
:1003D0002C3E860001308700403FA000413FA10035
:1003E000423FA200433FA3000730B0003008A40002
:1003F0009D3110258031210023082200D3002100E7
:1004000022082200D200210021082200D100210070
:1004100020082200D00050084C062100AF00220026
:1004200051084D062100B000220052084E0621005E
:10043000B100220053084F062100B200320822000A
:10044000CF00210031082200CE0021003008220018
:10045000CD0021002F082200CC004C0854072100B9
:10046000AF0022004D08553D2100B00022004E088B
:10047000563D2100B10022004F08573D2100B20037
:1004800022005803FF3A2100B3000130B335FF3E8C
:10049000031D462A33351C3E2C3E86000130870062
:1004A0002F08C03F3008C13F3108C23F3208C33F68
:1004B00022005803FF3A2100AF000130AF35FF3E64
:1004C000031D5E2A2F351C3E2C3E8600013087001E
:1004D000403FB000413FB100423FB200433FB30054
:1004E00022005803FF3A2100B4000130B435FF3E2A
:1004F000031D762A34350C3E2C3E860001308700E1
:10050000403FB007413FB13D423FB23D433FB33D65
:1005100022005803FF3A2100B5000130B535FF3EF7
:10052000031D8E2A35350C3E2C3E86000130870097
:100530003008C03F3108C13F3208C23F3308C33FD3
:1005400022005803FF3A07392100AF000130AF35D0
:10055000FF3E031DA72A2F352C3E86000130870061
:10056000403FA000413FA100423FA200433FA30003
:100570001E30B0003008A4009D31102580312100CC
:1005800023082200D700210022082200D6002100E3
:1005900021082200D500210020082200D4005803A1
:1005A000FF3A07392100AF000130AF35FF3E031D90
:1005B000D52A2F352C3E860001308700403FA00011
:1005C000413FA100423FA200433FA3001330B000CF
:1005D0003008A4009D31102580312100230822001D
:1005E000D300210022082200D2002100210822008D
:1005F000D100210020082200D0005008540621001C
:10060000AF002200510855062100B0002200520818
:1006100056062100B1002200530857062100B200FF
:1006200032082200D300210031082200D20021002C
:1006300030082200D10021002F082200D0005803EA
:10064000FF3A07392100AF000130AF35FF3E031DEF
:10065000252B2F352C3E860001308700403FA0001F
:10066000413FA100423FA200433FA3000A30B00037
:100670003008A4009D31102580312100230822007C
:10068000D700210022082200D600210021082200E4
:10069000D500210020082200D40054085006210073
:1006A000AF002200550851062100B0002200560874
:1006B00052062100B1002200570853062100B20063
:1006C00032082200D300210031082200D20021008C
:1006D00030082200D10021002F082200D00058034A
:1006E000FF3A013E07392100AF000130AF35FF3E30
:1006F000031D762B2F352C3E860001308700403FAE
:10070000B000413FB100423FB200433FB30022007E
:100710005803FF3A07392100B4000130B435FF3ED9
:10072000031D8E2B34352C3E860001308700403F60
:10073000B500413FB600423FB700433FB800300824
:1007400035042200D4002100310836042200D500EF
:100750002100320837042200D60021003308380473
:100760002200D7005803FF3A023E07392100AF00AC
:100770000130AF35FF3E031DB92B2F352C3E8600CF
:10078000013087002200540801052100B0004131EA
:100790002200550801052100B10041312200560810
:1007A00001052100B2004131220057080105210056
:1007B000B30033082200D700210032082200D600FF
:1007C000210031082200D500210030082200D40089
:1007D0005803FF3A013E07392100AF000130AF3521
:1007E000FF3E031DEF2B2F352C3E86000130870086
:1007F000403FB000413FB100423FB200433FB30031
:1008000022005803FF3A07392100B4000130B43503
:10081000FF3E031D072C34352C3E86000130870037
:10082000403FB500413FB600423FB700433FB800EC
:10083000300835052200CC002100310836052200A1
:10084000CD002100320837052200CE0021003308F8
:1008500038052200CF0054084C042100AF002200CC
:1008600055084D042100B000220056084E04210016
:10087000B100220057084F042100B20032082200C4
:10088000D700210031082200D600210030082200C4
:10089000D50021002F082200D40050085407210061
:1008A000AF0022005108553D2100B000220052083F
:1008B000563D2100B10022005308573D2100B200EF
:1008C00022005803FF3A2100B3000130B335FF3E48
:1008D000031D662C33351C3E2C3E860001308700FC
:1008E0002F08810741313008813D41313108813D78
:1008F00041313208813D22005803FF3A2100AF0008
:100900000130AF35FF3E031D812C2F351C3E2C3EA0
:10091000860001308700403FB000413FB100423FB8
:10092000B200433FB30022005803FF3A2100B40055
:100930000130B435FF3E031D992C3435083E403E4E
:100940008600033087003008C03F3108C13F3208BD
:10095000C23F3308C33F22005803FF3A2100AF00D3
:100960000130AF35FF3E031DB12C2F350C3E2C3E20
:10097000860001308700403FB000413FB100423F58
:10098000B200433FB30022005803FF3A2100B400F5
:100990000130B435FF3E031DC92C3435143E403EB2
:1009A0008600033087003008C03F3108C13F32085D
:1009B000C23F3308C33F0130AF002F082200D807E1
:1009C00064282100C400352E033023002F020318B1
:1009D000212E21004408023E86000230870066086E
:1009E00023002F072100BE00BF01BF0D03303E05CD
:1009F0002000DE00003021003F052000DF002D3008
:100A0000E0000030E1009C31982484313C3021002A
:100A1000C0002330C10020005E0821004007840090
:100A200020005F082100413D85002D30FF001600A9
:100A30001A00FF0B172D0130BE003E082300AF0740
:100A40002C08523A031D212E943123248431212E67
:100A50002100E6012300AF01523021001D2E2100AC
:100A60004408A2000230A3009F30A4008830A500F3
:100A70000C30BE003E08A6009731692784314E2E07
:100A8000212E21004408023E860002308700160015
:100A900001040319E62D4408023E86000230870057
:100AA000C1308400013085000630FF0016001A00B6
:100AB000FF0B562D00302300420280300319410203
:100AC0000318662D8030C1000030C20000304202A1
:100AD000FB30031941020318782D00304202E13047
:100AE00003194102031C782DE030C1000030C20020
:100AF00001304202C23003194102031C832DC13070
:100B0000C1000130C20000304202FB300319410233
:100B10000318A32D41082100BE0023004208210034
:100B2000BF00C001C1010130BE35BF0DC00DC10DF8
:100B3000890B942D1230BE35BF0DC00DC10D890B30
:100B40009B2D1730B42D41082100BE002300420820
:100B50002100BF00C001C1011230BE35BF0DC00D64
:100B6000C10D890BAD2D07303E042300B9000030C4
:100B700021003F042300BA00033021004004230079
:100B8000BB000030210041042300BC0042082000CB
:100B9000DF01DF07230041082000DE01DE07FD3012
:100BA000E0002F30E1009D31C925843120005E082E
:100BB000FF3A013E2100BE003E082000EE00230067
:100BC00043082100BE003E082300E800210044083D
:100BD000A2000230A300C130A4000130A5000630FD
:100BE000BE003E08A6009731692784314E2E2100B1
:100BF0004408023E8600023087000108313A003086
:100C000003190130BE00BE0E22000C0821003E0672
:100C1000EF393E0622008C0021004408023E860087
:100C2000023087000108313A0319182E4430192E7A
:100C30005230C2000030C3004208BE003E0823000C
:100C4000AC0021004408A2000230A300AC30A40094
:100C50000130A5000D30BE003E08A600973169277F
:100C600084312300B301B8014E2E210044088600D0
:100C7000023087000108413A0319282D023A03196E
:100C8000412D063A0319F72D0C3A03192F2D1A3A64
:100C90000319402D043A0319E42C4E2E22008C1621
:100CA0000800230068082100D800D901D809D90913
:100CB000D80A0319D90A2300310821005807DA009D
:100CC00059080318590ADB005A082300E5002100DF
:100CD0005B082300E60066082100A601A6072300A2
:100CE00065082100A501A5079C31712486312100EA
:100CF0002508C0002608C1002708C20023003108CB
:100D00002100D800D901D809D909D80A0319D90A6C
:100D10002300550821005807DA0059080318590A1A
:100D2000DB00DA35DB0DDA35DB0DDA35DB0D5A08A1
:100D3000A5005B08A6009C3171248631210025089E
:100D4000BA002608BB002708BC009A31DF22863192
:100D500021003A08BD003B08BE003C08BF008D31B1
:100D6000F025863121003D08DC003E08DD003F080B
:100D7000DE005C08C0005D08C1005E08C200230000
:100D800050082100A601A60723004F082100A50155
:100D9000A5079C317124863121002508AD00260865
:100DA000AE002708AF000030AA000030AB003F3093
:100DB000AC008B319323863121002A08BA002B081E
:100DC000BB002C08BC009A31DF22863121003A0892
:100DD000BD003B08BE003C08BF008D31F0258631C8
:100DE00021003D08CA003E08CB003F08CC009431EA
:100DF000A524863121004B082200DA01DA07210000
:100E00004A082200D901D9072300670822005907A0
:100E10002100D80022005A0803185A0A2100D900DC
:100E20005908803AFF0080307F02031D192F4C3093
:100E30005802031C3A2F230067082200590721009B
:100E4000D80022005A0803185A0A2100D90059086C
:100E5000803AFF0081307F02031D302F003058029E
:100E600003183A2F220059082100D80058082300FF
:100E7000E707702F23006708220059072100D800D8
:100E800022005A0803185A0A2100D9005908803A4A
:100E9000FF0081307F02031D4F2F00305802031CDA
:100EA000532FFF306B2F23006708220059072100C2
:100EB000D80022005A0803185A0A2100D9005908FC
:100EC000803AFF0080307F02031D682F4B305802AC
:100ED0000318702F4B302100D80058082300E7007A
:100EE000230031082100D80058082300D5006608E7
:100EF000D001D0076508CF01CF070630AC3E860091
:100F0000013087006708C03F2C009200080028309D
:100F10002100B90039082200EB0021006E08FD39DC
:100F2000031DF02F6E363F39B9000130B935FF3E51
:100F3000031D962F3935203EBA003A08E7006708AE
:100F4000B90039082000E90004302100B90039084F
:100F50002000E9062100670886008701010C890C42
:100F60000F390D3A031DED2FBC0108303C02031868
:100F7000DE2F6708023E86008701403FB900413FEF
:100F8000BA00390886003A0887000108BB003C080F
:100F9000403E860087013B0881006708023E8600CC
:100FA00087010130810741310318810A0130B900FE
:100FB0003908BC0708303C02031CB92F4030B90087
:100FC0000030BA006708023E860087013908C03F3A
:100FD0003A08C13F9D318625080090310120080064
:100FE000FD3021006E05B9003908043A031D0800E0
:100FF000903192200800803103200800DD34080081
:101000000034AB34053439346D34343403344B3468
:1010100000346C3400346F3400346E340034643483
:101020000034693400346B340034653400342034C7
:10103000003450340034723400346F3400346A3475
:1010400000346534003463340034743400340034C4
:1010500000340034003400340034003400340034F0
:1010600000340034003400340034003400340034E0
:101070000034343403344B340034313400343634E7
:1010800000340034003400340034003400340034C0
:1010900000340034003400340034003400340034B0
:1010A00000340034003400340034003400340034A0
:1010B0000034003400340034003400340034003490
:1010C0000034003400340034003400340034003480
:1010D0000034003400340034003409340234203445
:1010E0000034013401340034C0343234093404345F
:1010F000003400340234FF34FF34FF34003407344A
:1011000005340134023440340034013407340534EA
:101110008134023440340034013412340134003458
:1011200002340034003400340834D83404340A342F
:10113000F634003400340134023400340134103405
:101140004B34313436340034003400340034EF345E
:10115000BE34AD34DE3404340334093404340800BE
:1011600008002100A1002108A0002008A2000130F1
:101170002000E0020030E13BFF306106031DC22881
:10118000FF3060060319080020005E082100A0005F
:10119000220886008701200881000130A000200875
:1011A000A207B72822005D0886005E088700483045
:1011B0008E01011890308E0048308E0181189030D9
:1011C0008E0048308E01011990308E0048308E011B
:1011D000811990308E0048308E01011A90308E00B7
:1011E00048308E01811A90308E0048308E01011BEC
:1011F00090308E0048308E01811B90308E0041313E
:1012000048308E01011890308E0048308E018118D0
:1012100090308E0048308E01011990308E00483099
:101220008E01811990308E0048308E01011A903065
:101230008E0048308E01811A90308E0048308E0129
:10124000011B90308E0048308E01811B90308E0043
:10125000413148308E01011890308E0048308E01A7
:10126000811890308E0048308E01011990308E0028
:1012700048308E01811990308E0048308E01011A5D
:1012800090308E0048308E01811A90308E004830A8
:101290008E01011B90308E0048308E01811B9030F2
:1012A0008E00413148308E01011890308E00483058
:1012B0008E01811890308E0048308E0101199030D7
:1012C0008E0048308E01811990308E0048308E019A
:1012D000011A90308E0048308E01811A90308E00B5
:1012E00048308E01011B90308E006C088E01811BEE
:1012F0006D088E004131EF0BD72808002100121134
:101300003D009301900198010E302100A100993019
:10131000A000A2012208031D9F29200886002108A1
:10132000870081010130A0070030A13D013020007D
:10133000DE005E082100A207220803198D2916305D
:101340003D0091009F3097007B3092002100A30167
:10135000083023020318C72923082000DE000130CB
:10136000DE35FF3E031DB0295E35203E8600870135
:101370000030C03F0030C13FC23FC33F0130DE00FC
:101380005E082100A30708302302031CAC293D009E
:101390000E1796010E120E133D00901DDC29F7303A
:1013A0002000DE005E083D0090052100EA012300D8
:1013B000C901CA01CB01CC2901302000DE005E0842
:1013C0002200E90001302000DE005E082200EA0071
:1013D000E501E601E4012100A30102302302031824
:1013E000122A2308E23E86008701810123085B3E22
:1013F00086000130870081012308D13E860001303C
:10140000870081012308D33E8600013087008101D7
:1014100001302000DE005E082100A3070230230215
:10142000031CF12928302000DE005E082100E200C4
:1014300016303D00980040302000DE000030DF0014
:101440005E08A2005F08A3000830A1008430DE001F
:101450005E08A0002100ED01E501080021006708F9
:1014600086008701413FA10021082000E000E10142
:10147000610823004B02031D412A2000600823005D
:101480004A020318492A4A082000E00060082100A7
:10149000A1000330C73E86000130870021002108EB
:1014A0002000E000E101E009E109E00A0319E10A96
:1014B000403F60072300CA00413F2000613D2300F8
:1014C000CB002100A001210820020318812A200856
:1014D000483E8600870101082000E00023004708FD
:1014E000860087012000600881000130E00060086C
:1014F0002300C70701302000E00060082100A0079A
:10150000632A0330C73E86000130870016000104BD
:101510000319B62A08302000E000690A8600870116
:10152000600881004830E0000030E1006908023EB8
:10153000860087016008C03F6108C13F210067083D
:1015400086008701011BAD2AC8302000E000690831
:101550008600870160088100080088302000E000D4
:1015600069088600870160088100080008302000B3
:10157000E000690A86008701600881004030E000D1
:101580000030E1006908023E860087016008C03F24
:101590006108C13F8430E000690886008701600867
:1015A000810023004C080319D82A4C088A31D72A15
:1015B000C9132000E608031D08009131CA21080064
:1015C0002300D70101302000D8005808E50765083E
:1015D000023A0319E5010430220063020318352B97
:1015E0002000911E172B230019082000D80002307C
:1015F000220063072000D900D9305907DA000630ED
:10160000DB005B08F00065089B3100238A31200075
:101610005A07DC005C08860001308700580881000A
:101620000130D80058082200E3072300D701013019
:101630002000D80058082300D70722305702031C87
:10164000282B01302000D80058082300B8078B2B26
:101650009D1CEB2A2C08573A031D8B2B01302000D0
:10166000D80058082300B3078B2B23002C08573AC7
:10167000031D8B2B3D302000D8000630D9005908BF
:10168000F00065089B3100238A31D93E8600013085
:101690008700200058088100230030082000D8006F
:1016A0000630D9005908F00065089B3100238A31C3
:1016B0002000DA005A0AD93E860001308700580817
:1016C00081000630D8005808F00065089B310023DF
:1016D0008A31D93E2000D9005908FC000630D800D4
:1016E0005808F00065089B3100238A312000D9009A
:1016F000590AD93EDA005A08FD007C08F60001308C
:10170000F7007D08F8000130F9000530D8005808CE
:10171000FA009631412623009D139D172200E30114
:1017200027009601080021002A08B0002B08B1000C
:101730002C08B2000310310D320DB3003308B40091
:10174000B408031DAA2B0030AA000030AB00003003
:10175000AC0008002D08B0002E08B1002F08B20020
:101760000310310D320DB3003308B900B908031D61
:10177000C02B0030AA000030AB000030AC000800E5
:1017800039087B3EB0003008B4072A08B0002B08A7
:10179000B1002C08B2001030B236B10CB00C890B7D
:1017A000CC2B3008B3003308B9002D08B0002E0848
:1017B000B1002F08B2001030B236B10CB00C890B5A
:1017C000DC2B3008B3003308B9068030B000300895
:1017D000B905AB17AE17FF30AD05FF30AE050030D1
:1017E000AF050030B5000030B6000030B70007305C
:1017F000B0003008B8002A1C032C2D08B5072E08AD
:10180000B63D2F08B73D0130AC36AB0CAA0C890BA6
:10181000042C0130AD35AE0DAF0D890B0A2C013013
:10182000B802031DFB2B0930B0003008B8002A1C99
:101830001F2C2D08B5072E08B63D2F08B73D0130E7
:10184000AC36AB0CAA0C890B202C0130B736B60C89
:10185000B50C890B262C0130B802031D172C350856
:10186000A0003608A1003708A2003408B0003008F4
:10187000A3003908B1003108A40091315F21210093
:101880002008AA002108AB002208AC000800103094
:101890002100A50025082300AD0002302000DE0055
:1018A0000030DF0023002D082100A500A601250837
:1018B0002000E000210026082000E1009031F820FF
:1018C0008C3120005E082100A70027082300E900D2
:1018D00069082100A500A60125082000DE002100DE
:1018E00026082000DF000030E0004030E1009031A9
:1018F000F8208C3120005F082100AD01AD072000E9
:101900005E082100AC01AC0702302000DE00003090
:10191000DF0021002D082000E101E10721002C0853
:101920002000E001E0079031F8208C3120005F08B2
:101930002300B701B70720005E082300B601B607F1
:1019400000302600A3000030A2000030A1000030CB
:10195000A0002100AE01AE0A2300690821002E027A
:101960000318F72C230069082100A5000130A535D4
:10197000FF3E031DB72C2535FC3EA03E86000330FC
:101980008700403FA600413FA700423FA800433FD9
:10199000A9002E08AA000130AA35FF3E031DCC2C59
:1019A0002A35FC3E203E860003308700403FA607D4
:1019B000413FA73D423FA83D433FA93D2E08AB0014
:1019C0000130AB35FF3E031DE12C2B35203E860058
:1019D000033087002608C03F2708C13F2808C23FC0
:1019E0002908C33F0130A5002508AE07AC2C5230B2
:1019F000A50025082300AC00B401B50108002100B2
:101A0000E508031D132D3D008E0192011630910053
:101A10009F3097007B3092008E19102D8E150C2D63
:101A20002100E501E50A6508013A031D232D3D006B
:101A30008E1A232D900192011214121602302100E9
:101A4000BD003D08E5003D001019121D302DFB3092
:101A50002100BD003D083D0090059B318C238C3159
:101A60003D008E1C362D2000121108001018121C8B
:101A7000462D89317E218C3104302100BD003D0886
:101A8000E500FE30BD003D083D009005101A121E15
:101A9000522D9B31A4238C31EF302100BD003D0835
:101AA0003D009005101F752D121F632D733021000E
:101AB000AC000030AD00AE010130AF000030B0002E
:101AC0009D3147258C31BF302100BD003D083D00D0
:101AD000900522006B0803196F2D0130EB02EB0813
:101AE000031D752D9131CA218C313D00901A921E33
:101AF0007C2D9C314C248C313D009018921C8F2DF4
:101B0000FF302100AC007F30AD00AE010130AF00EE
:101B10000030B0009D3147258C313D0093010430E9
:101B2000210065020318972D2000121108003D00C6
:101B3000921DED2D2100BF01E62D0F082100BD00F3
:101B40003D08EE006E0CBD00BD0C3D0C0F39BE0013
:101B50003E082000E800F7302100BD003D083D00B0
:101B6000900521006E19B82D20006808D33EBB2DCA
:101B700020006808D13E8600013087000108013945
:101B80002100BD000130BD0601083D06FE393D06BD
:101B900081002000E808031DD12D873187278C3173
:101BA000E12D72302100AC000030AD00EE30BD0000
:101BB0003D08AE000030AF000030B0009D31472539
:101BC0008C3101302100BD003D08BF0704303F02C9
:101BD0000318ED2D3D0090199D2D200012110800D5
:101BE00021003D08C3003E08C4003F08C5000310A3
:101BF000440D450DC6004608C9004008C300410811
:101C0000C4004208C5000310440D450DC600460837
:101C1000C80049080319182E4808490203181F2E46
:101C20004903FF3A4807C30019304302031C1F2E23
:101C30004008BD004108BE004208BF000800480837
:101C4000031908004908480203182E2E4803FF3ADA
:101C50004907C30019304302031808000630C300C7
:101C60004308C700BF1BC717C21B4717BE17FF306B
:101C7000BD05FF30BE050030BF05C117FF30C005F0
:101C8000FF30C1050030C2054808490203186A2E1A
:101C90000130C035C10DC20D890B492E0130C8027B
:101CA000480849060319652E0130C702470807395D
:101CB0000319652E482E0130BF36BE0CBD0C890BB2
:101CC0005C2E0130C3004308C907490848060319C0
:101CD0008F2E5B2E4908480203188F2E0130BD3528
:101CE000BE0DBF0D890B6F2E0130C9024808490691
:101CF00003198B2E0130C7024708073903198B2EB1
:101D00006E2E0130C236C10CC00C890B822E013000
:101D1000C3004308C80749084806031D812EC71F92
:101D2000A12EFF30BD06FF30BE06FF30BF060130DA
:101D3000BD07003003180130BE0700300318013022
:101D4000BF07471FB32EFF30C006FF30C106FF306C
:101D5000C2060130C007003003180130C10700304F
:101D600003180130C207C7013D08C0073E08C13D46
:101D70003F08C23DC21FCE2EFF30C006FF30C10655
:101D8000FF30C2060130C007003003180130C10720
:101D9000003003180130C207C701C70A4008A0007D
:101DA0004108A1004208A2004908C3004308A3005B
:101DB0004708C4004408A40091315F212100200895
:101DC000BD002108BE002208BF0008002000420814
:101DD000013A031DFD2E40081F390038031DFD2E5A
:101DE0002100EA1720004108033A031DFB2E2200C0
:101DF000E201E20AFD2E2200E20120004208031D5A
:101E0000080040081F39023A031D080044080F3932
:101E1000003A0319080044080F392100B1000230CC
:101E20003102031808006508203A031D0800EA176C
:101E30002000C41B2B2F44080F395B3E8600013065
:101E4000870001082100B1003108B60020004408D5
:101E50000F39D33E3A2F200044080F39E23E860066
:101E6000870101082100B1003108B60020004408B4
:101E70000F39D13E86000130870001082100B100F2
:101E80003108B5003518492FFB30B1003108B605CF
:101E90004A2F36152000C41B582F21003608B100E8
:101EA000200044080F395B3E860001308700612F17
:101EB00021003608B100200044080F39E23E8600B8
:101EC000870121003108810020004108033A031DE9
:101ED000862F2100360886008701811F7D2F200074
:101EE000C41B762F44080F39D33E792F44080F398D
:101EF000D13E860001308700811484302100B1007A
:101F0000360886008701310881040800043021006A
:101F1000B1003108B606360886008701811FAB2F55
:101F20007F30B10036088600870131088105360808
:101F30008600870101170530AC000030AD0036087F
:101F4000B1003108AE000130AF000030B0009D316B
:101F500047258E31B02F21003608860087010117F2
:101F600004302100B1003108B606B518BC2F360880
:101F700086008701811FE22F2000C41BC32F440865
:101F80000F39D33EC62F44080F39D13E86000130A9
:101F9000870081103B302100B100360886008701A0
:101FA000310881050530AC000030AD003608B100C5
:101FB0003108AE000130AF000030B0009D31472540
:101FC0008E31EA2F3B302100B100360886008701B0
:101FD00031088105200044080F39983E2100B100E6
:101FE000B2010E30B23D3108B3003208B400FE3009
:101FF000B1003308860034088700310881050800E5
:10200000080020006708023A031D09288A312E22A1
:1020100008002000E7012200DF08031D31280830F6
:102020002100A2002000690A860087012100220801
:1020300081004030A2000030A30020006908023E69
:102040008600870121002208C03F2308C13F8C3051
:10205000A200200069088600870121002208810073
:1020600008002200DF01080020006E082100DF00C8
:102070005F08200095070B1123002C08573A031D19
:102080005F280830AC3E86000130870001308107B0
:1020900041310318810A7F31403F3606031D522823
:1020A000413F3706031D5F282F0803195928503078
:1020B0005A2852302100DF005F082300AC000130B5
:1020C0002100DF005F082300D607031D080022005F
:1020D0008C1221001C08DF005F082300B1002100E2
:1020E0009D140F302000DE000030DF0001302100A1
:1020F000DF005F082300D80758082100E000E10155
:1021000060082000E000210061082000E1009E310D
:10211000FC26903120005F085E04031D0800863114
:102120005126080021006208860087010030011B4B
:1021300001302000E10004302100A0002008E20668
:102140006508083A031DB228200042083D009600A9
:1021500016080319AD281030AE2804302100A00065
:102160002008E50020006708013A031DEB284830ED
:102170002100A0000030A1006208023E8600870115
:102180002008C03F2108C13F9531B425903120007F
:102190006B08023A031DD52884302100A000620894
:1021A000860087012008810008002000E108031D47
:1021B000E228C8302100A0006208860087012008BC
:1021C0008100080088302100A00062088600870195
:1021D0002008810008002300C91FF5284C080319B6
:1021E000F4284C089031F328C9132000E7010800B7
:1021F0002100A2012000DF1F0529DE09DF09DE0A18
:102200000319DF0A2100A201A20A2000E11F1229FE
:10221000E009E109E00A0319E10A01302100A00008
:102220002008A2062100A301A40120005F085E048B
:1022300003194C292100A101A10A2000DF1B2C2930
:1022400001302000DE35DF0D890B2229013021000D
:10225000A0002008A1071D2901302100A335A40DED
:10226000890B2E2920005F086102031D39295E08B1
:102270006002031C41295E08E0025F08E13B210087
:10228000231401302000DF36DE0C890B4329013096
:102290002100A102031D2C29210022080319552920
:1022A000A309A409A30A0319A40A24082000DF0132
:1022B000DF07210023082000DE01DE0708002100DF
:1022C000230803196829220821042004031D7B29FF
:1022D0000030A0000030A1000030A2000800013052
:1022E0002000DE005E082100A3070130A236A10C09
:1022F000A00C890B7629FE302205031996296F2937
:1023000001302000DE005E082100A3070130A00795
:10231000003003180130A107003003180130A20774
:102320000130A236A10CA00C890B9129FF302205A7
:102330000319A32980290130A3020130A035A10D82
:10234000A20D890B9E29A11F9B292318AD29FF30BF
:10235000A0057F30A105FF30A2050310A30C2308C0
:102360002000DE00DF01E0011030DE35DF0DE00D82
:10237000890BB5295E082100A00420005F08210018
:10238000A104200060082100A20424080319080009
:10239000A21708002200E908031D080001302000F0
:1023A000DE005E082200E900EA08031D0800013093
:1023B0002000DE005E082200EA0020006708023AE2
:1023C000031DF2292100620A860087018101C830BD
:1023D0002000DE00210062088600870120005E08E0
:1023E000810008006708013A031D08002200DF0190
:1023F00008302000DE002100670A860087012000E7
:102400005E0881004030DE000030DF0021006708F8
:10241000023E8600870120005E08C03F5F08C13F82
:102420008430DE00210067088600870120005E08F6
:1024300081002200DF01DF0A08302000DE00690A87
:10244000860087015E0881004030DE000030DF003A
:102450006908023E860087015E08C03F5F08C13FF1
:102460008030DE006908860087015E088100080070
:102470003C30840023308500B430FE000030FF0083
:102480009A31F422923162308400003085000C30A1
:10249000FE000030FF009A31F4229231E2308400D5
:1024A000003085000E30FE000030FF009A31F4222B
:1024B000923159308400013085001730FE00003021
:1024C000FF009A31F4229231C73084000130850038
:1024D0002030FE000030FF009A31F422923160304B
:1024E0008400023085001030FE000030FF009A3179
:1024F000F422923120308400033085003830FE0011
:102500000030FF009A31F42292318731FE27923158
:10251000EE00BF3084009C308500A0308600013082
:1025200087000030FF0027309A31E82292312C30AA
:1025300084009C308500A030860003308700003086
:10254000FF0020309A31E82220009B31752B20308B
:1025500021006502031C08003D008E1808002200BF
:1025600068080319C12A680886008701010D010D5A
:1025700001392100C500C6014508C9004608CA0046
:10258000C42A2100C901CA014A084904031DDF2ADF
:10259000A0308431E12492312100A001A030C50097
:1025A0004508A1004030C6004608A20001309E3117
:1025B0005B2692312100C70047082200E800210075
:1025C0006F0820006D060319080022006708031930
:1025D000F72A670886008701010D010D01392100E6
:1025E000C500C6014508CB004608CC00FA2A2100E8
:1025F000CB01CC014C084B04031D0800A001A00A2C
:102600000F30C50045082000DE006D089B31112306
:102610009231203E2100C6004608A1000F30C700BD
:102620004708A20001309E315B262100C8004808FF
:102630002200E70020006D0A03392100C50045088B
:102640002000ED00080020004008803A031D08002B
:10265000C030DE005E082100EA00952B8D3021009D
:10266000E8008830E9001230EB000030EC00080090
:102670000430840088308500200042088407031855
:10268000850A003F2100E8008830E9006908200041
:10269000DF00210068082000DE0002305E078400B1
:1026A0005F0803185F0A85000008E0006008210049
:1026B000EB0069082000DF00210068082000DE0030
:1026C00003305E0784005F0803185F0A8500000876
:1026D000E00060082100EC00080003302000420206
:1026E00003188F2B0130840088308500420884074E
:1026F0000318850A003F2100E8008830E9006808D7
:1027000084006908850000082000DE00DF015E0803
:102710002100EB0020005F082100EC0008002100F0
:10272000EA0108002100EA01080020004308013AFC
:1027300003192E2B033A0319382B013A03196D2B79
:10274000922B08002100EA170E30B3009930B20036
:10275000B4013408031DBC2B3208860033088700FF
:1027600081010130B2070030B33D0130B1003108C2
:10277000B40734080319AC2B00302000DE00003011
:10278000DF002030E0000030E10020308831B1204F
:1027900093313D000E172100B501023035020318B8
:1027A000E52B3508D13E86000130870081013508D0
:1027B000D33E86000130870081010130B10031082D
:1027C000B50702303502031CD12B00302000DE009B
:1027D0000030DF000130E0000030E1006C30883173
:1027E000B12093313D000E1328302100B100310893
:1027F000E2002030B1003108E7006708B10031087D
:102800002000E90042082100B1003108ED00ED0888
:10281000031D0F2C1030B1003108E5000800013015
:10282000AC000030AD00ED30B1003108AE00013039
:10283000AF000030B0009D31472520302100B100AD
:102840003108E500080021006608B900BA0139081E
:102850002000DE0021003A082000DF002D30E000DB
:102860000030E1009C31982494313C302100BB00C1
:102870002330BC0020005E0821003B07AD00200093
:102880005F0821003C3DAE008031142094312100CE
:102890006608B900BA0139082000DE0021003A08B4
:1028A0002000DF002D30E0000030E1009C31982452
:1028B00094313C302100BB002330BC0020005E0876
:1028C00021003B07860020005F0821003C3D870077
:1028D0000108BD003D082300B00021006608B900D2
:1028E000BA0139082000DE0021003A082000DF008C
:1028F0002D30E0000030E1009C31982494313C30D0
:102900002100BB002330BC0020005E0821003B07F3
:10291000A20020005F0821003C3DA3009631D42690
:102920002100660A0339B9003908E6002300B40122
:10293000B50120006E08950057302100B900390814
:102940002300AC000130AF02080021004A08CE008D
:102950004B08CF004C08D00003104F0D500DD10094
:102960005108D700D708031DBE2C0030CD00003021
:10297000CC000030CB000030CA0008004A08CE006E
:102980004B08CF004C08D0001730D036CF0CCE0CFF
:10299000890BC52C4E08D1005108D200CB17FF304F
:1029A000CA05FF30CB050030CC054A08D3004B08E0
:1029B000D4004C08D500D6018E30D702D71FFC2C8E
:1029C0005708803A8F3E0318EE2C0030CD000030BF
:1029D000CC000030CB000030CA0008000130D636F1
:1029E000D50CD40CD30C890BEF2C0130CE004E0843
:1029F000D7070319152DEE2C18305702031C122D82
:102A00000030CD000030CC000030CB000030CA00D8
:102A100008000130D335D40DD50DD60D890B0A2D04
:102A20000130D702D708031D092D52080319232DA1
:102A3000D309D409D509D609D30A0319D40A03192D
:102A4000D50A0319D60A5608CD005508CC005408FB
:102A5000CB005308CA0008003D000E122100EA1BFB
:102A60006D2D2300C91F442D02302100A200220831
:102A70002000E7002200E608031D402D9F3150276B
:102A80002200EA01E901080008302100A20020002C
:102A9000690A860087012100220881004030A200D7
:102AA0000030A30020006908023E86008701210053
:102AB0002208C03F2308C13F8C30A20020006908D3
:102AC000860087012100220881008430A20062086C
:102AD000860087012208810008002000C01F832D86
:102AE000E701E70A2200E508031D792D9F315027F1
:102AF00095312200EA01E9012000E608031D0800E3
:102B00009131CA21080002302100A20022082000D1
:102B1000E70008302100A2002000690A8600870132
:102B20002100220881004030A2000030A3002000D4
:102B30006908023E8600870121002208C03F230861
:102B4000C13F8430A200200069088600870121006F
:102B5000220881002200EA01E9012000E608031DA5
:102B600008009131CA21080008302000DE005E080C
:102B7000E000003021006C02083003196B020318DA
:102B8000D42D6B082000DE005E08E000EB08031D7A
:102B9000CC2DEB01EB0AD42D6B08013A031DD42D8B
:102BA0000230DE005E08EB000330E83E860087015D
:102BB00020006008DE00DF01DE09DF09DE0A0319FC
:102BC000DF0A403F5E072100EB00413F20005F3DF0
:102BD0002100EC0020006008DE002100620A86006F
:102BE000870120005E0881004830DE005E08220078
:102BF000EE0021006A1C1A2E3C2E21006808840079
:102C00006908850000082000DE0022006E088600AA
:102C1000870120005E08810001302100E8070030B4
:102C2000E93D01302000DE005E082200EE070130A1
:102C30002000E0022000E00803190800FD2D21001B
:102C4000680884006908850000082000DE00220072
:102C50006E088600870120005E0881000130210097
:102C6000E8070030E93D01302000DE005E08220068
:102C7000EE0701302000E0022000E0080319080000
:102C80001F2E7A082000D000D10121006F082000FB
:102C9000D200D3015208F0005308F1000F30F200C7
:102CA0000030F3009B31F22396312000500870076A
:102CB000D4005108713DD5005408023ED6000030C2
:102CC000553DD7005708803AFF0080307F02031D32
:102CD0006B2E4030560203180800760886007708ED
:102CE000870001082000D0000F30D1005108F0000B
:102CF00021006F089B3100239631203E8600023070
:102D00008700200050088100210064082000D000C6
:102D10000F30D1005108F00021006F089B310023D3
:102D200096312000D200520A203E860002308700F1
:102D300050088100FB017A087B020318CB2E79082A
:102D4000D1007808D0007B08500784005108031890
:102D5000510A85000008D20021006F082000D3002E
:102D6000D4015308F0005408F1000F30F200003095
:102D7000F3009B31F223963170087B07023E203E20
:102D80008600023087002000520881000130D00008
:102D90005008FB079B2E21006F0A03392000D0004A
:102DA00050082100EF0008008B1348302100A400D8
:102DB00024082200EC0090302100A4002408220006
:102DC000ED00B930DD000130DE0002302100A4004A
:102DD00024082200EF008831D220963121002208F9
:102DE000213E2200DD0000302100233D2200DE00D4
:102DF00003302100A40024082200EF008831D220F3
:102E0000963144302200DD000330DE000530210021
:102E1000A40024082200EF008831D220963121003E
:102E20002208013E2200DD0000302100233D220067
:102E3000DE0008302100A40024082200EF008831C1
:102E4000D220963140302200DD000330DE00EF0159
:102E5000EF0A8831D220963150302200ED00210057
:102E6000A40024082200EC002030DD000330DE0046
:102E7000230069082100A40024082200EF00883103
:102E8000D220D83022008E008B17FD302300390568
:102E90002100A400FF3023003A052100A500FF30E7
:102EA00023003B052100A600FF3023003C05210044
:102EB000A70027082300BC00210026082300BB0030
:102EC000210025082300BA00210024082300B900AE
:102ED000080021002608A700A8016F08A900AA0180
:102EE00029082000DE0021002A082000DF000F3022
:102EF000E0000030E1009C31982497312100270840
:102F000020005E072100AB00280820005F3D210063
:102F1000AC002B08023EAD0000302C3DAE002E0868
:102F2000803AFF0080307F02031D982F40302D0231
:102F300003180800210022088600230887000108E2
:102F4000A7000F30A80028082000DE0021006F082D
:102F50009B3111239731203E8600023087002100EB
:102F6000270881006408A7000F30A8002808200067
:102F7000DE0021006F089B31112397312100A90049
:102F8000290A203E86000230870027088100AF0111
:102F900026082F020318FA2F2508A8002408A700E6
:102FA0002F082707840028080318280A850000082E
:102FB000A9006F08AA00AB012A082000DE0021004A
:102FC0002B082000DF000F30E0000030E1009C31D2
:102FD0009824973120005E0821002F07023E203EF2
:102FE000860002308700290881000130A7002708E9
:102FF000AF07C82F6F0A0339A7002708EF000800A2
:103000009F31C62F9F31C92F9F31FF2F9F31C92F6D
:103010009F31FF2F9F31AF2F9F31B62F9F31E72F69
:103020009F31BC2F9F31B92F9F31CC2F9F31D82F8B
:043030009F31FF2F9E
:1035BE0021003C083B043A04031908008030BC0685
:1035CE000800FE0012001E000130FE020030FF3B1C
:1035DE007F087E0403190034E92A6400800101315A
:1035EE000130FE020030FF3B7F087E0403190034D9
:1035FE00F52AF200F301721C082B7008F100710815
:10360E00F3070310F00D0310F20CF208031D022B4A
:10361E00730808002000E100E001611C1A2B5E080F
:10362E00DF005F08E0070310DE0D0310E10CE10878
:10363E00031D142B600808002200E30123001E1650
:10364E009D179E131F129F158D12270094178B1511
:10365E0096018B1723001D16FF30990008002100DC
:10366E008C1222008C169B315E239B319B31D6230C
:10367E009B319B3149239B319B3123239B318C31D1
:10368E00472408002100951295110730950420005B
:10369E006E08950021008E130E130E128E11D83067
:1036AE0022008E0021000C1222000C1208002100B4
:1036BE000E151D08833918389D001D149E131E0803
:1036CE008F3960389E00FC309E058F309F058F30FD
:1036DE002000DE005E082300E80008009B31BD23B9
:1036EE009B318C31FF249B310B1D802B903134206C
:1036FE009B3123002C08503A031D882B9431232430
:10370E009B319231A7229B31782B2200E401743039
:10371E002100AC000030AD00AE010030AF00003033
:10372E00B0009D3147253D008E101211FB30210057
:10373E00B10031083D00900508003D001215EF3034
:10374E002100B10031083D0090058E142200E401E5
:10375E00E40A75302100AC000030AD00AE0100303F
:10376E00AF000030B0009D314725080023008C01CA
:10377E008D0104308E0021009801FC3099009030AC
:10378E0027009B002200E801E7012000ED01210047
:10379E00EF019B3136239B3189317E2108002100B8
:1037AE008E162C009301FF3020009B00C0302C00A1
:1037BE009300E6302300E7002C00920091012000D8
:1037CE0091101C08FC3901389C001C1521008E122A
:1037DE002C0013170800F401F501701CFA2B720867
:1037EE00F4077308F53D0130F235F30D890BFB2B11
:1037FE000130F136F00C890B002C71087004031D9A
:10380E00F42B7508F101F1077408F001F0070800B8
:10381E001E302100A90029082000E10001309C3152
:10382E00E6249C312100A001A030A9002908A100A6
:10383E004030AA002A08A20001309E315B262100EA
:10384E00AB002B082200E8000800003400340034DE
:10385E0000340034003400344034AA34AA34AA347C
:10386E002A34003400340034203499349934993495
:10387E00193455345534553415349234243449346E
:10388E00123400340034003410343D00181C6A2CFD
:10389E0021006708860087010108803A031D682C05
:1038AE006208860087010108843A031D682C8C305B
:1038BE002000DE00210067088600870120005E08D8
:1038CE0081003D001810DF302000DE005E083D0054
:1038DE00900508002000E1012100A61F7E2CA509FD
:1038EE00A609A50A0319A60A2000E101E10A210092
:1038FE002508A0002608A100A2018E30A8002808E5
:10390E00A300200061082100A9002908A40091311C
:10391E005F2121002008A5002108A6002208A7008B
:10392E0008002100A001A10120005E1CA52C60084A
:10393E002100A007200061082100A13D01302000D8
:10394E00E035E10D890BA72C0130DF36DE0C890B3B
:10395E00AC2C5F085E04031D9B2C21002108200067
:10396E00DF01DF07210020082000DE01DE0708004E
:10397E0098342F348A344234913444343734713489
:10398E00CF34FB34C034B534493400340034003401
:10399E000034003400340034003400340034403439
:1039AE000034073400347B3405347234013400346F
:1039BE0000345E3401348F3400340034003421007E
:1039CE00A8002000611DF12CDE01210028089E3187
:1039DE000E269C312000E11CFA2CDE01DE0A2100AD
:1039EE0028089E310E2621002808983EA400A50125
:1039FE000E30A53D2408A6002508A700200061086A
:103A0E002100A400260886002708870024088100CC
:103A1E00080021002008A5002108A6002208A70002
:103A2E002308A8002403FF3A203E890A232D031001
:103A3E00A80CA70CA60CA50CFF3E031D1E2D2008DE
:103A4E00A9002108AA002208AB002308AC00240A12
:103A5E00342DA935AA0DAB0DAC0D890B302D2908CF
:103A6E00A5042A08A6042B08A7042C08A8042808D5
:103A7E00A3002708A2002608A1002508A000080020
:103A8E005D2D8831B020080090310020080088316B
:103A9E00AF2008009C310F2408008731FF27080053
:103AAE008731FB27080080310220080021002D08F5
:103ABE00003A0319662D7F3A0319802D852D2C08A7
:103ACE00013A0319512D033A0319542D013A0319E2
:103ADE00572D063A0319852D773A0319852D013A8C
:103AEE000319482D073A03194E2D013A03194B2D90
:103AFE00852D2C08FF3A03195A2D852D080020001C
:103B0E00EB01E6012200E501E601DF012000E701FD
:103B1E007F302100B80062088600870138088105D1
:103B2E000430B8003808E2067F30B800620886001C
:103B3E008701380881050430B8003808E2067F3066
:103B4E00B800200069088600870121003808810529
:103B5E00EA01EB01EC012300C901CA01CB019F313F
:103B6E00A7279D3103302100AC000030AD00AE011F
:103B7E000030AF000030B0009D3147259D319531AA
:103B8E002C2508002100A101A20120005F085E047F
:103B9E000319032E2100A301A30A2000DF1BE32D2E
:103BAE0001302000DE35DF0D890BD92D01302100CB
:103BBE00A0002008A307D42D01302100A135A20DAD
:103BCE00890BE52D20005F086102031DF02D5E08B4
:103BDE006002031CF82D5E08E0025F08E13B210045
:103BEE00211401302000DF36DE0C890BFA2D013056
:103BFE002100A302031DE32D210022082000DF0176
:103C0E00DF07210021082000DE01DE07080020006A
:103C1E00DF0020302100A00020082000E0005E0818
:103C2E002100A0000130A035890B1A2E20005F085C
:103C3E002100A1000130A135FF3E031D222E2135AA
:103C4E002007A2000130A235FF3E031D2A2E223589
:103C5E00A30023082000E007600886008701811377
:103C6E00DE08031D442E60082100A00020005F081E
:103C7E005B3E8600013087004D2E2000600821003B
:103C8E00A00020005F08E23E860087012100200888
:103C9E008100200060088600870101136008043E41
:103CAE0086008701011708002100A50020080319CE
:103CBE00652E2508E23E860087016A2E25085B3EAA
:103CCE008600013087000108A3002308A600A6087D
:103CDE00031D732E003008002108A3000230A4003B
:103CEE002608023E860087012308C03F2408C13FF4
:103CFE002208A300260A860087012308810040308F
:103D0E00A300260886008701230881058830A300BA
:103D1E0026088600870123088104200803199E2E99
:103D2E000430A3002508E23E86008701A52E04304C
:103D3E00A30025085B3E860001308700230881061C
:103D4E00260808002000C8010030C900E12E21001D
:103D5E00EA172000481422006208013A031DED2ED6
:103D6E002000C814ED2E2100EA17ED2E2100EA17CF
:103D7E002000C41BC92E44080F395B3E860001305B
:103D8E008700CE2E44080F39E23E860087010108D7
:103D9E00DE005E08DF005F0886008701811FED2EC2
:103DAE005F0886008701011DED2E0130DE005E08E2
:103DBE00C800ED2E40081F39003A0319AE2E013A05
:103DCE000319BA2E033A0319BD2EED2E2100EA1F58
:103DDE0008004830E8000030E9006A140230200084
:103DEE00DE005E082100EB0008002100A201200089
:103DFE00E11F092FE009E109E00A0319E10A210098
:103E0E00A201A20A2000DF1F112FDE09DF09DE0A40
:103E1E000319DF0A5F085E0403193E2F2100A1017A
:103E2E00A10A2000DF1B272F01302000DE35DF0D19
:103E3E00890B1D2F01302100A0002008A107182F8B
:103E4E0020005F086102031D2E2F5E086002031C16
:103E5E00342F5E08E0025F08E13B0130DF36DE0CF6
:103E6E00890B352F01302100A102031D272F2100C0
:103E7E0022080319482F2000E009E109E00A03197E
:103E8E00E10A20006108DF01DF076008DE01DE07BE
:103E9E0008002200E501E60120006708023A031D32
:103EAE007A2F08302100A0002000690A86008701C1
:103EBE002100200881004830A0000030A100200021
:103ECE006908023E8600870121002008C03F2108B4
:103EDE00C13FC830A000200069088600870121007C
:103EEE0020088100080021006C0820004702031DF5
:103EFE00842F21006B082000460203188F2F4708DD
:103F0E002100EC01EC07200046082100EB01EB0735
:103F1E009531B4259F3148302100A0000030A1001A
:103F2E006208023E860087012008C03F2108C13F7B
:103F3E00C830A000620886008701200881000800B2
:103F4E002000400E890C0339003A031D0800F42F9F
:103F5E002100EA170830B7003708E5000800933152
:103F6E00232308009331A2230800ED302100E8003E
:103F7E000030E9006A14EB01EB0AEA1708009E31E3
:103F8E00A92608008E31E6260800200044086C3E63
:103F9E002100E8000030E9006A14EB01EB0AEA1791
:103FAE0008002100EA17200042082100B700200077
:103FBE0044086C3E86008701210037088100080006
:103FCE0002302100AC000030AD00AE010030AF0079
:103FDE000030B0009D3147250800200041088400C4
:103FEE000D3004020318080098310435003E82009B
:023FFE000800B9
:020000040001F9
:04000E0084CFCFDFED
:00000001FF
