:100000008031122808000800803120007F08DD00C0
:100010002700160803190E288C31FC2420005D08E7
:10002000FF0009009731082FCA3086000130870091
:1000300020308400013085000C30FF0016001A00CB
:10004000FF0B1E282200D80108305802031863282D
:1000500058082100AF00B001AF35B00DAF35B00D7D
:100060002F08013EB1000030303DB20031082D07AD
:10007000860032082E3D8700403FB300413FB40068
:10008000423FB500433FB600220058082100B700A8
:100090000130B735FF3E031D492837352C3E860019
:1000A000013087003308C03F3408C13F3508C23FE4
:1000B0003608C33F0130AF002F082200D8070830B0
:1000C0005802031C2828D8010330580203180800DE
:1000D0005803FF3A2100AF000130AF35FF3E031D4A
:1000E0006D282F35183E2C3E860001308700403F9A
:1000F000B000413FB100423FB200433FB300220095
:100100005803FF3A2100B4000130B435FF3E031D0F
:1001100085283435143E2C3E860001308700403F50
:10012000B500413FB600423FB700433FB80030083A
:1001300035062200D4002100310836062200D50001
:100140002100320837062200D60021003308380685
:100150002200D7005803FF3A2100AF000130AF352D
:10016000FF3E031DAF282F35103E2C3E8600013088
:1001700087002200540801052100B000413122000F
:10018000550801052100B100413122005608010542
:100190002100B20041312200570801052100B300BF
:1001A00033082200D700210032082200D6002100A7
:1001B00031082200D500210030082200D400580365
:1001C000FF3A2100AF000130AF35FF3E031DE428A8
:1001D0002F35183E2C3E860001308700220054083F
:1001E00001062100B000413122005508010621001E
:1001F000B10041312200560801062100B200413110
:100200002200570801062100B30033082200D7005E
:10021000210032082200D600210031082200D5003A
:10022000210030082200D40058082100AF0001301E
:10023000AF35FF3E031D18292F35203E86000130C3
:100240008700403F2200D407413FD53D423FD63D85
:10025000433FD73D58082100AF00B001AF35B00D86
:10026000AF35B00D2F08213EB1000030303DB20057
:1002700031082D07860032082E3D8700403F2200BE
:10028000D407413FD53D423FD63D433FD73D58037C
:10029000FF3A2100AF000130AF35FF3E031D4C296E
:1002A0002F351C3E2C3E860001308700403F220047
:1002B000D407413FD53D423FD63D433FD73D58034C
:1002C000FF3A2100AF000130AF35FF3E031D642926
:1002D0002F35103E2C3E860001308700403FA000A5
:1002E000413FA100423FA200433FA3001A30B000AB
:1002F0003008A40092310822803121002308220016
:10030000D300210022082200D2002100210822006F
:10031000D100210020082200D0005803FF3A21001C
:10032000AF000130AF35FF3E031D92292F35103E3F
:100330002C3E860001308700403FA000413FA100D5
:10034000423FA200433FA3001530B0003008A40094
:10035000923108228031210023082200CF002100A1
:1003600022082200CE00210021082200CD00210019
:1003700020082200CC0050084C062100AF002200CB
:1003800051084D062100B000220052084E062100FF
:10039000B100220053084F062100B20032082200AB
:1003A000CF00210031082200CE00210030082200B9
:1003B000CD0021002F082200CC005803FF3A210075
:1003C000AF000130AF35FF3E031DE2292F35103E4F
:1003D0002C3E860001308700403FA000413FA10035
:1003E000423FA200433FA3000730B0003008A40002
:1003F000923108228031210023082200D3002100FD
:1004000022082200D200210021082200D100210070
:1004100020082200D00050084C062100AF00220026
:1004200051084D062100B000220052084E0621005E
:10043000B100220053084F062100B200320822000A
:10044000CF00210031082200CE0021003008220018
:10045000CD0021002F082200CC004C0854072100B9
:10046000AF0022004D08553D2100B00022004E088B
:10047000563D2100B10022004F08573D2100B20037
:1004800022005803FF3A2100B3000130B335FF3E8C
:10049000031D462A33351C3E2C3E86000130870062
:1004A0002F08C03F3008C13F3108C23F3208C33F68
:1004B00022005803FF3A2100AF000130AF35FF3E64
:1004C000031D5E2A2F351C3E2C3E8600013087001E
:1004D000403FB000413FB100423FB200433FB30054
:1004E00022005803FF3A2100B4000130B435FF3E2A
:1004F000031D762A34350C3E2C3E860001308700E1
:10050000403FB007413FB13D423FB23D433FB33D65
:1005100022005803FF3A2100B5000130B535FF3EF7
:10052000031D8E2A35350C3E2C3E86000130870097
:100530003008C03F3108C13F3208C23F3308C33FD3
:1005400022005803FF3A07392100AF000130AF35D0
:10055000FF3E031DA72A2F352C3E86000130870061
:10056000403FA000413FA100423FA200433FA30003
:100570001E30B0003008A4009231082280312100E2
:1005800023082200D700210022082200D6002100E3
:1005900021082200D500210020082200D4005803A1
:1005A000FF3A07392100AF000130AF35FF3E031D90
:1005B000D52A2F352C3E860001308700403FA00011
:1005C000413FA100423FA200433FA3001330B000CF
:1005D0003008A40092310822803121002308220033
:1005E000D300210022082200D2002100210822008D
:1005F000D100210020082200D0005008540621001C
:10060000AF002200510855062100B0002200520818
:1006100056062100B1002200530857062100B200FF
:1006200032082200D300210031082200D20021002C
:1006300030082200D10021002F082200D0005803EA
:10064000FF3A07392100AF000130AF35FF3E031DEF
:10065000252B2F352C3E860001308700403FA0001F
:10066000413FA100423FA200433FA3000A30B00037
:100670003008A40092310822803121002308220092
:10068000D700210022082200D600210021082200E4
:10069000D500210020082200D40054085006210073
:1006A000AF002200550851062100B0002200560874
:1006B00052062100B1002200570853062100B20063
:1006C00032082200D300210031082200D20021008C
:1006D00030082200D10021002F082200D00058034A
:1006E000FF3A013E07392100AF000130AF35FF3E30
:1006F000031D762B2F352C3E860001308700403FAE
:10070000B000413FB100423FB200433FB30022007E
:100710005803FF3A07392100B4000130B435FF3ED9
:10072000031D8E2B34352C3E860001308700403F60
:10073000B500413FB600423FB700433FB800300824
:1007400035042200D4002100310836042200D500EF
:100750002100320837042200D60021003308380473
:100760002200D7005803FF3A023E07392100AF00AC
:100770000130AF35FF3E031DB92B2F352C3E8600CF
:10078000013087002200540801052100B0004131EA
:100790002200550801052100B10041312200560810
:1007A00001052100B2004131220057080105210056
:1007B000B30033082200D700210032082200D600FF
:1007C000210031082200D500210030082200D40089
:1007D0005803FF3A013E07392100AF000130AF3521
:1007E000FF3E031DEF2B2F352C3E86000130870086
:1007F000403FB000413FB100423FB200433FB30031
:1008000022005803FF3A07392100B4000130B43503
:10081000FF3E031D072C34352C3E86000130870037
:10082000403FB500413FB600423FB700433FB800EC
:10083000300835052200CC002100310836052200A1
:10084000CD002100320837052200CE0021003308F8
:1008500038052200CF0054084C042100AF002200CC
:1008600055084D042100B000220056084E04210016
:10087000B100220057084F042100B20032082200C4
:10088000D700210031082200D600210030082200C4
:10089000D50021002F082200D40050085407210061
:1008A000AF0022005108553D2100B000220052083F
:1008B000563D2100B10022005308573D2100B200EF
:1008C00022005803FF3A2100B3000130B335FF3E48
:1008D000031D662C33351C3E2C3E860001308700FC
:1008E0002F08810741313008813D41313108813D78
:1008F00041313208813D22005803FF3A2100AF0008
:100900000130AF35FF3E031D812C2F351C3E2C3EA0
:10091000860001308700403FB000413FB100423FB8
:10092000B200433FB30022005803FF3A2100B40055
:100930000130B435FF3E031D992C3435083EA63EE8
:100940008600013087003008C03F3108C13F3208BF
:10095000C23F3308C33F22005803FF3A2100AF00D3
:100960000130AF35FF3E031DB12C2F350C3E2C3E20
:10097000860001308700403FB000413FB100423F58
:10098000B200433FB30022005803FF3A2100B400F5
:100990000130B435FF3E031DC92C3435143EA63E4C
:1009A0008600013087003008C03F3108C13F32085F
:1009B000C23F3308C33F0130AF002F082200D807E1
:1009C00064282100C400292E033022005C02031891
:1009D000152E21004408023E86000230870062087E
:1009E00022005C072100BE00BF01BF0D03303E05A1
:1009F000A00000303F05A1002D30A2000030A30070
:100A00009131872184313C302100C0002330C10066
:100A10002008400784002108413D85002D30FF005B
:100A200016001A00FF0B102D0130BE003E082200F8
:100A3000DC075908523A031D152E9531B72584312C
:100A4000152E2100E2012200DC0152302100112E7E
:100A500021004408A4000230A5009F30A600883081
:100A6000A7000C30BE003E08A8008A3183228431E2
:100A7000422E152E21004408023E860002308700D7
:100A8000160001040319DA2D4408023E86000230E4
:100A90008700DE308400013085000630FF0016003C
:100AA0001A00FF0B4F2D003023005F028030031926
:100AB0005E0203185F2D8030DE000030DF00003062
:100AC0005F02FB3003195E020318712D00305F02D4
:100AD000E13003195E02031C712DE030DE000030AE
:100AE000DF0001305F02C23003195E02031C7C2D5F
:100AF000C130DE000130DF0000305F02FB3003193F
:100B00005E0203189C2D5E082100BE0023005F08D2
:100B10002100BF00C001C1010130BE35BF0DC00DB5
:100B2000C10D890B8D2D1230BE35BF0DC00DC10D0D
:100B3000890B942D1730AD2D5E082100BE002300D7
:100B40005F082100BF00C001C1011230BE35BF0DDA
:100B5000C00DC10D890BA62D07303E042300D60021
:100B6000003021003F042300D7000330210040045F
:100B70002300D8000030210041042300D9005F0881
:100B80002100A101A10723005E082100A001A00708
:100B90000C30A2003030A3009231FF2284312100BA
:100BA0002008FF3A013EBE003E08EF002300620825
:100BB0002C00920021004408A4000230A500DE3081
:100BC000A6000130A7000630BE003E08A8008A310A
:100BD00083228431422E21004408023E86000230E6
:100BE00087000108313A003003190130BE00BE0E03
:100BF00022000C0821003E06EF393E0622008C0040
:100C000021004408023E8600023087000108313A84
:100C100003190C2E44300D2E5230C2000030C30098
:100C20004208BE003E082200D90021004408A4006A
:100C30000230A5005930A6000130A7000D30BE00DB
:100C40003E08A8008A31832284312200E001E501B8
:100C5000422E210044088600023087000108413AF4
:100C60000319212D023A03193A2D063A0319EB2DE7
:100C70000C3A0319282D1A3A0319392D043A03198D
:100C8000E42C422E22008C16080020004208013A73
:100C9000031D5C2E40081F390038031D5C2E210007
:100CA000E71720004108033A031D5A2E2100D701FF
:100CB000D70A5C2E2100D70120004208031D08003E
:100CC00040081F39023A031D080044080F39003A52
:100CD0000319080044080F392100B2000230320223
:100CE000031808005C08203A031D0800E7172000DD
:100CF000C41B892E44080F39D33E860087010108A2
:100D00002100B2003208B700200044080F39CF3E5E
:100D1000982E200044080F39D13E86008701010833
:100D20002100B2003208B700200044080F39CD3E40
:100D30008600870101082100B2003208B60036188B
:100D4000A62EFB30B2003208B705A72E37152000BB
:100D5000C41BB22E21003708B200200044080F390E
:100D6000D33EB92E21003708B200200044080F39C5
:100D7000D13E860087012100320881002000410811
:100D8000033A031DDF2E2100370886008701811FEB
:100D9000D62E2000C41BD02E44080F39CF3ED32EB0
:100DA00044080F39CD3E860087018114843021002C
:100DB000B200370886008701320881040800043039
:100DC0002100B2003208B706370886008701811F6C
:100DD000042F7F30B2003708860087013208810572
:100DE00037088600870101170530AD000030AE00DE
:100DF0003708B2003208AF000130B0000030B10057
:100E000092317D228631092F210037088600870123
:100E1000011704302100B2003208B706B618152FAA
:100E2000370886008701811F3A2F2000C41B1C2F22
:100E300044080F39CF3E1F2F44080F39CD3E86009E
:100E4000870181103B302100B200370886008701FE
:100E5000320881050530AD000030AE003708B20021
:100E60003208AF000130B0000030B10092317D2275
:100E70008631422F3B302100B200370886008701BF
:100E800032088105200044080F39983E2100B20045
:100E9000B3010E30B33D3208B4003308B500FE3064
:100EA000B200340886003508870032088105080042
:100EB0008B1348302100A60026082200EA0090305B
:100EC0002100A60026082200EB00D630E800013001
:100ED000E90002302100A60026082200EC008B3138
:100EE000A223873121002408213E2200E80000309F
:100EF0002100253D2200E90003302100A60026083C
:100F00002200EC008B31A2238731AA302200E800B6
:100F10000130E90005302100A60026082200EC007F
:100F20008B31A223873121002408013E2200E800F2
:100F300000302100253D2200E90008302100A600F4
:100F400026082200EC008B31A2238731A630220034
:100F5000E8000130E900EC01EC0A8B31A223873173
:100F600050302200EB002100A60026082200EA00F3
:100F70002030E8000330E9006D082100A6002608B3
:100F80002200EC008B31A223D83022008E008B1778
:100F9000FD30230056052100A600FF302300570531
:100FA0002100A700FF30230058052100A800FF30D2
:100FB000230059052100A90029082300D900210098
:100FC00028082300D800210027082300D70021008B
:100FD00026082300D600080021008C1222008C165F
:100FE0009F31EF2787319031B620873190314420EF
:100FF00087319031312087318E315F260800DC3413
:101000000034AB34053439346D34343403344B3468
:1010100000346C3400346F3400346E340034643483
:101020000034693400346B340034653400342034C7
:10103000003450340034723400346F3400346A3475
:1010400000346534003463340034743400340034C4
:1010500000340034003400340034003400340034F0
:1010600000340034003400340034003400340034E0
:101070000034343403344B340034313400343634E7
:1010800000340034003400340034003400340034C0
:1010900000340034003400340034003400340034B0
:1010A00000340034003400340034003400340034A0
:1010B0000034003400340034003400340034003490
:1010C0000034003400340034003400340034003480
:1010D0000034003400340034003409340234203445
:1010E0000034013401340034C0343234093404345F
:1010F000003400340234FF34FF34FF34003407344A
:1011000005340134023440340034013407340534EA
:101110008134023440340034013412340134003458
:1011200002340034003400340834D83404340A342F
:10113000F634003400340134023400340134103405
:101140004B34313436340034003400340034EF345E
:10115000BE34AD34DE3404340334093404340800BE
:1011600008002000DF0020302100A000200820001F
:10117000E0005E082100A0000130A035890BBD28E9
:1011800020005F082100A1000130A135FF3E031DB2
:10119000C52821352007A2000130A235FF3E031DDE
:1011A000CD282235A30023082000E0076008860030
:1011B00087018113DE08031DE42860082100A000D8
:1011C00020005F08D33EEB28200060082100A0002B
:1011D00020005F08D13E86008701210020088100A1
:1011E000200060088600870101136008043E860025
:1011F00087010117080020004008803A031D0800FD
:10120000C030DE005E082100E7006D298D3021002E
:10121000E5008830E6001230E8000030E900080000
:1012200004308400883085002000420884070318B9
:10123000850A003F2100E5008830E60066082000AE
:10124000DF00210065082000DE0002305E07840018
:101250005F0803185F0A85000008E00060082100AD
:10126000E80066082000DF00210065082000DE009D
:1012700003305E0784005F0803185F0A85000008DA
:10128000E00060082100E90008000330200042026D
:1012900003186729013084008830850042088407DC
:1012A0000318850A003F2100E5008830E600650844
:1012B00084006608850000082000DE00DF015E086B
:1012C0002100E80020005F082100E900080021005B
:1012D000E70108002100E701080020004308013A67
:1012E00003190629033A03191029013A031945295C
:1012F0006A29080008302000DE005E08E0000030A7
:101300002100690208300319680203189A29680845
:101310002000DE005E08E000EF08031D9229EF01C7
:10132000EF0A9A296F08013A031D9A290230DE005C
:101330005E08EF000330E53E86008701200060086C
:10134000DE00DF01DE09DF09DE0A0319DF0A403FA4
:101350005E072100E800413F20005F3D2100E900D9
:1013600020006008DE002100510A8600870120006D
:101370005E0881004830DE005E08ED002100671C39
:10138000DB29F9292100650884006608850000082A
:101390002000DE006D08860087015E0881000130B4
:1013A0002100E5070030E63D01302000DE005E0848
:1013B000ED070130E0022000E00803190800C2290F
:1013C0002100650884006608850000082000DE0012
:1013D0006D08860087015E08810001302100E50765
:1013E0000030E63D01302000DE005E08ED070130F0
:1013F000E0022000E00803190800E0293D000E1279
:101400002100E71B3E2A2300A21F152A02302100DB
:10141000A20022082000EB00E908031D112A9331E5
:10142000DC232100E001DF01080008302100A200D8
:1014300020006C0A860087012100220881004030CC
:10144000A2000030A30020006C08023E8600870145
:1014500021002208C03F2308C13F8C30A200200099
:101460006C08860087012100220881008430A200D8
:101470005108860087012208810008002000C01F53
:10148000532AEB01EB0AE808031D492A9331DC23B8
:1014900089312100E001DF012000EA08031D080076
:1014A00095314925080002302100A20022082000C1
:1014B000EB0008302100A20020006C0A86008701A2
:1014C0002100220881004030A2000030A30020004B
:1014D0006C08023E8600870121002208C03F2308D5
:1014E000C13F8430A20020006C08860087012100E3
:1014F00022088100E001DF012000EA08031D080046
:1015000095314925080021002808A900AA016D0885
:10151000AB00AC012B08A0002C08A1000F30A200EA
:101520000030A300913187218A312100290820074A
:10153000AD002A08213DAE002D08023EAF0000306C
:101540002E3DB0003008803AFF0080307F02031D3E
:10155000AB2A40302F02031808002100240886001F
:10156000250887000108A9000F30AA002A082000DA
:10157000DE0021006D0890311F208A31203E860058
:10158000023087002100290881005808A9000F3087
:10159000AA002A082000DE0021006D0890311F20DB
:1015A0008A312100AB002B0A203E860002308700E2
:1015B00029088100B101280831020318092B2708E6
:1015C000AA002608A9003108290784002A08031860
:1015D0002A0A85000008AB006D08AC00AD012C089C
:1015E000A0002D08A1000F30A2000030A30091310F
:1015F00087218A31210020083107023E203E8600E3
:10160000023087002B0881000130A9002908B107AA
:10161000DB2A6D0A0339A9002908ED0008007A08C1
:101620002000D000D10121006D082000D200D3019C
:101630005208F0005308F1000F30F2000030F300C0
:10164000913104218B31200050087007D4005108DB
:10165000713DD5005408023ED6000030553DD700FC
:101660005708803AFF0080307F02031D392B40303D
:1016700056020318080076088600770887000108DC
:101680002000D0000F30D1005108F00021006D087B
:101690009F31DE278B31203E8600023087002000FC
:1016A00050088100210058082000D0000F30D100E0
:1016B0005108F00021006D089F31DE278B3120009A
:1016C000D200520A203E8600023087005008810076
:1016D000FB017A087B020318992B7908D10078085E
:1016E000D0007B085007840051080318510A850078
:1016F0000008D20021006D082000D300D401530857
:10170000F0005408F1000F30F2000030F300913186
:1017100004218B3170087B07023E203E8600023098
:1017200087002000520881000130D0005008FB07DC
:10173000692B21006D0A03392000D00050082100D8
:10174000ED0008002200680886006908870048301C
:101750008E01011890308E0048308E018118903033
:101760008E0048308E01011990308E0048308E0175
:10177000811990308E0048308E01011A90308E0011
:1017800048308E01811A90308E0048308E01011B46
:1017900090308E0048308E01811B90308E00413198
:1017A00048308E01011890308E0048308E0181182B
:1017B00090308E0048308E01011990308E004830F4
:1017C0008E01811990308E0048308E01011A9030C0
:1017D0008E0048308E01811A90308E0048308E0184
:1017E000011B90308E0048308E01811B90308E009E
:1017F000413148308E01011890308E0048308E0102
:10180000811890308E0048308E01011990308E0082
:1018100048308E01811990308E0048308E01011AB7
:1018200090308E0048308E01811A90308E00483002
:101830008E01011B90308E0048308E01811B90304C
:101840008E00413148308E01011890308E004830B2
:101850008E01811890308E0048308E010119903031
:101860008E0048308E01811990308E0048308E01F4
:10187000011A90308E0048308E01811A90308E000F
:1018800048308E01011B90308E006A088E01811B4A
:101890006B088E004131EC0BA72B080021001211C0
:1018A0003D009301900198010E302100A100993074
:1018B000A000A2012208031D6F2C20088600210829
:1018C000870081010130A0070030A13D01302000D8
:1018D000DE005E082100A207220803195D2C1630E5
:1018E0003D0091009F3097007B3092002100A301C2
:1018F000083023020318972C23082000DE00013053
:10190000DE35FF3E031D802C5E35203E86008701BC
:101910000030C03F0030C13FC23FC33F0130DE0056
:101920005E082100A30708302302031C7C2C3D0025
:101930000E1796010E120E133D00901DAC2CF730C1
:101940002000DE005E083D0090052100E701230035
:10195000A201A301A4019C2C01302000DE005E083E
:101960002100DF0001302000DE005E082100E000E1
:101970002000E801E9012100DB01A301023023027C
:101980000318E02C2308D13E86008701810123083B
:10199000D33E8600870181012308CD3E8600870162
:1019A00081012308CF3E860087018101013020009C
:1019B000DE005E082100A30702302302031CC22CB4
:1019C00028302000DE005E082100D10016303D00E6
:1019D000980040302000DE000030DF005E08A200EA
:1019E0005F08A3000830A1008430DE005E08A0007C
:1019F0002100EA01DC0108002100DA0101302000A9
:101A0000D8005808E6076608023A0319E6010430D0
:101A10002000670203184F2D911E2F2D2300190857
:101A20002000D80002306707D900BE305907DA001D
:101A30000630DB005B08F00066089F31DE278C3142
:101A400020005A07DC005C08860001308700580837
:101A500081000130D8005808E7072100DA01013081
:101A60002000D80058082100DA0722305A02031C4F
:101A7000402D01302000D80058082200E507A52D90
:101A800023009D1C072D22005908573A031DA52D40
:101A900001302000D80058082200E007A52D2200C0
:101AA0005908573A031DA52D3D302000D8000630B7
:101AB000D9005908F00066089F31DE278C31BE3E00
:101AC00086000130870020005808810022005D0850
:101AD0002000D8000630D9005908F00066089F3170
:101AE000DE278C312000DA005A0ABE3E8600013023
:101AF0008700580881000630D8005808F0006608B2
:101B00009F31DE278C31BE3E2000D9005908FC00F1
:101B10000630D8005808F00066089F31DE278C3167
:101B20002000D900590ABE3EDA005A08FD007C08A0
:101B3000F6000130F7007D08F8000130F9000530AB
:101B4000D8005808FA008B310F2323009D139D17EE
:101B50002000E701270096010800210064088600A4
:101B60008701413FA10021082000E000E101610858
:101B700023002402031DC02D20006008230023023F
:101B80000318C82D23082000E00060082100A100F0
:101B90000330A03E8600013087002100210820008C
:101BA000E000E101E009E109E00A0319E10A403F30
:101BB00060072300A300413F2000613D2300A400F3
:101BC0002100A001210820020318002E2008483E11
:101BD0008600870101082000E0002300200886001D
:101BE00087012000600881000130E00060082300C8
:101BF000A00701302000E00060082100A007E22DCE
:101C00000330A03E8600013087001600010403194E
:101C1000352E08302000E0006C0A8600870160083D
:101C200081004830E0000030E1006C08023E860090
:101C300087016008C03F6108C13F21006408860039
:101C40008701011B2C2EC8302000E0006C088600A4
:101C5000870160088100080088302000E0006C08DF
:101C60008600870160088100080008302000E0003D
:101C70006C0A86008701600881004030E000003077
:101C8000E1006C08023E860087016008C03F6108E1
:101C9000C13F8430E0006C08860087016008810045
:101CA000230025080319572E25088E31562EA2131E
:101CB0002000EA08031D080095314925080010306E
:101CC0002100A80028082200DA0002302100A0002C
:101CD0000030A10022005A082100A800A90128080C
:101CE000A2002908A300943132248E31210020085B
:101CF000AA002A082200ED006D082100A800A90111
:101D00002808A0002908A1000030A2004030A3004C
:101D1000943132248E31210021082000E001E007B7
:101D2000210020082000DF01DF0702302100A00091
:101D30000030A100200060082100A301A3072000BB
:101D40005F082100A201A207943132248E312100C4
:101D500021082200E401E407210020082200E30119
:101D6000E30700302600A3000030A2000030A100ED
:101D70000030A0002000E101E10A22006D082000EF
:101D8000610203180D2F22006D082100A800013008
:101D9000A835FF3E031DC82E2835FC3E403E860078
:101DA00003308700403FA900413FAA00423FAB00FB
:101DB000433FAC00200061082100AD000130AD358B
:101DC000FF3E031DDF2E2D35FC3E203E86000330F6
:101DD0008700403FA907413FAA3D423FAB3D433FFB
:101DE000AC3D200061082100AE000130AE35FF3E61
:101DF000031DF62E2E35203E86000330870029086D
:101E0000C03F2A08C13F2B08C23F2C08C33F013006
:101E1000A80028082000E107BD2E52302100A800AC
:101E200028082200D900E101E20108002100DC08B5
:101E3000031D2A2F3D008E019201163091009F3024
:101E400097007B3092008E19272F8E15232F2100AB
:101E5000DC01DC0A5C08013A031D3A2F3D008E1AB2
:101E60003A2F900192011214121602302100BE0086
:101E70003E08DC003D001019121D472FFB302100E9
:101E8000BE003E083D009005903159208F313D0045
:101E90008E1C4D2F2000121108001018121C5D2FEF
:101EA0008C314E248F3104302100BE003E08DC000E
:101EB000FE30BE003E083D009005101A121E692F2C
:101EC00090319E208F31EF302100BE003E083D0052
:101ED0009005101F8C2F121F7A2F73302100AD0038
:101EE0000030AE00AF010130B0000030B1009231DF
:101EF0007D228F31BF302100BE003E083D0090059D
:101F0000210061080319862F0130E102E108031D59
:101F10008C2F953149258F313D00901A921E932FB9
:101F2000913162218F313D009018921CA62FFF3015
:101F30002100AD007F30AE00AF010130B0000030B5
:101F4000B10092317D228F313D0093010430210098
:101F50005C020318AE2F2000121108003D00921DF4
:101F6000FD2F2100C001F62F0F082100BE003E0802
:101F7000EC006C0CBE00BE0C3E0C0F39BF003F08DD
:101F8000E300F730BE003E083D00900521006C19CB
:101F9000CC2F6308CF3ECE2F6308CD3E860087014D
:101FA00001080139BE000130BE0601083E06FE39B7
:101FB0003E068100E308031DE12F963196268F31FE
:101FC000F12F72302100AD000030AE00EC30BE00C9
:101FD0003E08AF000030B0000030B10092317D22E9
:101FE0008F3101302100BE003E08C007043040029E
:101FF0000318FD2F3D009019B42F20001211080086
:102000009431A92C9431AC2C9431E22C9431AC2C29
:102010009431E22C9431922C9431992C9431CA2C25
:1020200094319F2C94319C2C9431AF2C9431BB2C47
:102030009431E22C080008008031022008002000C2
:10204000E100E001611C28285E08DF005F08E0076E
:102050000310DE0D0310E10CE108031D22286008C7
:1020600008002000E70123001E169D179E131F1273
:102070009F158D12270094178B1596018B1723003F
:102080001D16FF30990008002100951295110730A8
:1020900095046F082000950021008E130E130E1278
:1020A0008E11D83022008E0021000C1222000C1656
:1020B00008002100DB017430AD000030AE00AF013C
:1020C0000030B0000030B10092317D223D008E1012
:1020D0001211FB302100B20032083D0090050800CB
:1020E00023008C018D0104308E0021009801FC300A
:1020F0009900903027009B002100DE01DD01EE01F8
:10210000ED018731EC2790318C314E24080090315D
:10211000702090318F31162790310B1D922892310B
:102120003F22903122005908503A031D9A289531D8
:10213000B72590319631252690318A283D00121519
:10214000EF302100B20032083D0090058E142100CE
:10215000DB01DB0A7530AD000030AE00AF010030AE
:10216000B0000030B10092317D22080021008E16AF
:102170002C009301FF3020009B00C0302C00930006
:10218000FF3092009101200091101C08FC390138A9
:102190009C001C1521008E122C0013170800983487
:1021A0002F348A3442349134443437347134CF3448
:1021B000FB34C034B534073400343734053472345A
:1021C0000134003400344D3401343C345034FF3495
:1021D00000341E302100AA002A08A40001309131E9
:1021E000AE2190312100A001A030AA002A08A10050
:1021F0004030AB002B08A200013093314423210072
:10220000AC002C08DE000800F401F501701C0C295C
:102210007208F4077308F53D0130F235F30D890BB0
:102220000D290130F136F00C890B12297108700468
:10223000031D06297508F101F1077408F001F00784
:10224000080000340034003400340034003400341A
:102250004034AA34AA34AA342A3400340034003476
:1022600020349934993499341934553455345534CB
:102270001534923424344934123400340034003498
:1022800010342000DF005F08DE005E08E00001304F
:102290002100A2020030A33BFF302306031D522978
:1022A000FF30220603190800210020082000DE006C
:1022B0006008860087015E0881000130DE005E084C
:1022C000E00747293D00181C80292100640886008A
:1022D00087010108803A031D7E2951088600870185
:1022E0000108843A031D7E298C302000DE00210085
:1022F00064088600870120005E0881003D001810F8
:10230000DF302000DE005E083D0090050800200060
:10231000DE01DF012100201C942922082000DE07B5
:10232000210023082000DF3D01302100A235A30D4C
:10233000890B96290130A136A00C890B9B29210815
:102340002004031D8A2920005F082100A101A107A4
:1023500020005E082100A001A00708002100A900BC
:10236000241DB9292000DE01210029088831B1206F
:1023700091312100A41CC3292000DE01DE0A2100C6
:1023800029088831B12021002908983EA500A6011E
:102390000E30A63D2508A7002608A8002408A500A1
:1023A00027088600280887002508810008002000EB
:1023B0006B08023A031DDF298D31AD25080020008E
:1023C000EB012100D508031D062A0830A2002000D9
:1023D0006C0A860087012100220881004030A2009B
:1023E0000030A30020006C08023E86008701210017
:1023F0002208C03F2308C13F8C30A20020006C0897
:10240000860087012100220881000800D50108000C
:1024100021002008A5002108A6002208A700230803
:10242000A8002403FF3A203E890A1B2A0310A80CA7
:10243000A70CA60CA50CFF3E031D162A2008A90018
:102440002108AA002208AB002308AC00240A2C2A89
:10245000A935AA0DAB0DAC0D890B282A2908A504B6
:102460002A08A6042B08A7042C08A8042808A300FF
:102470002708A2002608A1002508A00008002100C6
:102480006F082000DE005E0895070B112200590836
:10249000573A031D692A0830593E860001308700EB
:1024A0000130810741310318810A7F31403F6306C3
:1024B000031D5C2A413F6406031D692A5C08031959
:1024C000632A5030642A52302000DE005E08220069
:1024D000D90001302000DE005E082100D907031D6D
:1024E000080022008C1221001C082000DE005E087B
:1024F0002200DE0021009D140800932A8831AF20BD
:10250000080090311A20080090311B2008009031FB
:10251000E920080080310320080090311C200800C9
:102520008831B020080021002E08003A03199C2AA7
:102530007F3A0319B62ABB2A2D08013A0319872AC4
:10254000033A03198A2A013A03198D2A063A031914
:10255000BB2A773A0319BB2A013A03197E2A073AA4
:102560000319842A013A0319812ABB2A2D08FF3A4C
:102570000319902ABB2A08002000EF01EA01E801B4
:10258000E9012100D5012000EB017F302100B900D5
:10259000510886008701390881050430B9003908DF
:1025A000D1067F30B90051088600870139088105BE
:1025B0000430B9003908D1067F30B90020006C081A
:1025C00086008701210039088105E701E801E9015A
:1025D0002300A201A301A40194318A249231033083
:1025E0002100AD000030AE00AF010030B00000307F
:1025F000B10092317D2292318931FE210800200004
:10260000E001E1012100210820040319392B2000F9
:10261000DF01DF0A2100A11B192B01302100A035A9
:10262000A10D890B0F2B01302000DE005E08DF07B3
:102630000A2B01302000E035E10D890B1B2B210016
:1026400021082302031D262B20082202031C2E2B07
:102650002008A2022108A33B2000601401302100C1
:10266000A136A00C890B302B01302000DF02031DA6
:10267000192B200061082100A101A107200060089A
:102680002100A001A00708002100A50020080319CF
:102690004C2B2508D13E4E2B2508D33E86008701C2
:1026A0000108A3002308A600A608031D592B00302B
:1026B00008002108A3000230A4002608023E86007C
:1026C00087012308C03F2408C13F2208A300260A2F
:1026D00086008701230881004030A3002608860079
:1026E0008701230881058830A3002608860087011A
:1026F0002308810420080319822B0430A300250835
:10270000D13E862B0430A3002508D33E86008701E6
:1027100023088106260808002000C8010030C900EF
:10272000C12B2100E7172000481421005708013A67
:10273000031DCD2B2000C814CD2B2100E717CD2B76
:102740002100E7172000C41BA92B44080F39D33EF2
:10275000AC2B44080F39D13E860087010108DE000A
:102760005E08DF005F0886008701811FCD2B5F08B0
:1027700086008701011DCD2B0130DE005E08C800F8
:10278000CD2B40081F39003A0319912B013A031948
:102790009D2B033A0319A02BCD2B2100E71F080026
:1027A0004830E5000030E600671402302000DE000B
:1027B0005E082100E80008002000E801E9016B083C
:1027C000023A031D052C08302100A00020006C0AED
:1027D000860087012100200881004830A0000030D9
:1027E000A10020006C08023E86008701210020081D
:1027F000C03F2108C13FC830A00020006C088600FF
:1028000087012100200881000800210069082000BC
:102810004702031D0F2C2100680820004602031800
:102820001A2C47082100E901E90720004608210089
:10283000E801E80789317A21933148302100A0006E
:102840000030A1005108023E860087012008C03FE9
:102850002108C13FC830A000510886008701200828
:10286000810008002100A501A11F3D2CA009A1099C
:10287000A00A0319A10AA501A50AA31F4A2CA209AF
:10288000A309A20A0319A30A01302000DE005E0892
:102890002100A506A601A7012108200403197B2C0D
:1028A000A401A40AA11B602C0130A035A10D890B45
:1028B000552C01302000DE005E082100A407522CB8
:1028C0000130A635A70D890B612C21082302031DB9
:1028D0006B2C20082202031C722C2008A202210863
:1028E000A33B26140130A136A00C890B732C0130B8
:1028F000A402031D602C25080319832CA609A7092F
:10290000A60A0319A70A2708A101A1072608A00102
:10291000A00708002000400E890C0339003A031D6F
:102920000800D72C2100E7170830B8003808DC0071
:1029300008008831FB200800973183270800EA301F
:102940002100E5000030E6006714E801E80AE71717
:10295000080093318C2308008631452608002000AA
:102960004408EB3E2100E5000030E6006714E80172
:10297000E80AE71708002100E717200042082100B5
:10298000B80020004408EB3E86008701210038088B
:102990008100080002302100AD000030AE00AF0120
:1029A0000030B0000030B10092317D2208002000DC
:1029B000410884000D3004020318080090310435EA
:1029C000003E820008002100510886008701003087
:1029D000011B01302000E10004302100A00020088C
:1029E000D1065C08083A031D032D200042083D0073
:1029F000960016080319FE2C1030FF2C043021001D
:102A0000A0002008DC0020006B08013A031D3C2DCB
:102A100048302100A0000030A1005108023E86008D
:102A200087012008C03F2108C13F89317A219431B4
:102A300020006F08023A031D262D84302100A000DB
:102A40005108860087012008810008002000E10865
:102A5000031D332DC8302100A000510886008701D6
:102A600020088100080088302100A000510886005D
:102A700087012008810008002300A21F462D250899
:102A80000319452D25089531442DA2132000EB0193
:102A900008002100DF08031D080001302000DE00CF
:102AA0005E082100DF00E008031D0800013020005F
:102AB000DE005E082100E00020006B08023A031DE2
:102AC000712D2100510A860087018101C830200044
:102AD000DE00210051088600870120005E08810089
:102AE00008006B08013A031D08002100D5010830D9
:102AF0002000DE002100640A8600870120005E08B5
:102B000081004030DE000030DF0021006408023E1A
:102B10008600870120005E08C03F5F08C13F843007
:102B2000DE00210064088600870120005E08810025
:102B30002100D501D50A08302000DE006C0A86008D
:102B400087015E0881004030DE000030DF006C0845
:102B5000023E860087015E08C03F5F08C13F8030AB
:102B6000DE006C08860087015E08810008002100F5
:102B70006208B900BA013908A0003A08A1002D3056
:102B8000A2000030A3009131872195313C30210013
:102B9000BB002330BC0020083B07AD0021083C3DB2
:102BA000AE0080311420953121006208B900BA01CD
:102BB0003908A0003A08A1002D30A2000030A3007F
:102BC0009131872195313C302100BB002330BC007E
:102BD00020083B07860021083C3D87000108BD0016
:102BE0003D082200DD0021006208B900BA01390861
:102BF000A0003A08A1002D30A2000030A3009131BE
:102C0000872195313C302100BB002330BC002008D7
:102C10003B07A40021083C3DA5008731582721002F
:102C2000620A0339B9003908E2002200E101E20139
:102C300021006F082000950057302100B9003908A5
:102C40002200D9000130DC020800203021005C02A3
:102C5000031C08003D008E18080021005E080319BF
:102C60003E2E5E0886008701010D010D0139C50069
:102C7000C6014508C9004608CA00402EC901CA015C
:102C80004A084904031D5A2EA0308431E1249631AC
:102C90002100A001A030C5004508A1004030C600B9
:102CA0004608A20001309331442396312100C70029
:102CB0004708DE006D086E06031908005D08031959
:102CC0006E2E5D0886008701010D010D0139C500DA
:102CD000C6014508CB004608CC00702ECB01CC01C4
:102CE0004C084B04031D0800A001A00A0F30C500CA
:102CF00045082000DE0021006E0890311F2096312B
:102D0000203E2100C6004608A1000F30C70047083A
:102D1000A2000130933144232100C8004808DD009F
:102D20006E0A0339C5004508EE000800283021006E
:102D3000BA003A08E1006C08FD39031DFD2E6C361F
:102D40003F39BA000130BA35FF3E031DA32E3A3594
:102D5000203EBB003B08E4006408BA003A082000AB
:102D6000EC0004302100BA003A082000EC062100F3
:102D7000640886008701010C890C0F390D3A031D88
:102D8000FA2EBD0108303D020318EB2E6408023E06
:102D900086008701403FBA00413FBB003A088600E9
:102DA0003B0887000108BC003D08403E86008701C3
:102DB0003C0881006408023E8600870101308107DB
:102DC00041310318810A0130BA003A08BD070830C2
:102DD0003D02031CC62E4030BA000030BB00640820
:102DE000023E860087013A08C03F3B08C13F92314E
:102DF000BC2208009131D7210800FD3021006C056C
:102E0000BA003A08043A031D08009431E32408008C
:102E10003C30840023308500B430FE000030FF00D9
:102E20009F31C527973162308400003085000E3015
:102E3000FE000030FF009F31C5279731CD30840060
:102E4000003085002230FE000030FF009F31C52792
:102E500097312200E601E701E801E901EA01EB010F
:102E6000EC01A0308400013085002A30FE000030E3
:102E7000FF009F31C5279731603084000230850004
:102E80001030FE000030FF009F31C5279731203001
:102E90008400033085002030FE000030FF009F31A9
:102EA000C527973121008731FF279731EF00D130B7
:102EB00084009F3085005930860001308700003043
:102EC000FF000D309F31B9279731CF30840090300B
:102ED0008500CA308600013087000030FF001A30BC
:102EE0009F31B927973121308400913085004030DF
:102EF0008600033087000030FF0020309F31B92763
:102F00002000903187282100E7170E30B400993057
:102F1000B300B5013508031D9D2F33088600340822
:102F2000870081010130B3070030B43D0130B200A9
:102F30003208B507350803198D2F0030A000003086
:102F4000A1002030A2000030A300203091314121A7
:102F500097313D000E172100B601023036020318EA
:102F6000C32F3608CD3E8600870181013608CF3E4B
:102F70008600870181010130B2003208B6070230B5
:102F80003602031CB12F0030A0000030A100013038
:102F9000A2000030A300EB309131412197313D0078
:102FA0000E1328302100B2003208D1002030B200C8
:102FB0003208E4006408B20032082000EC00420845
:102FC0002100B2003208EA00EA08031DEC2F10309D
:102FD000B2003208DC0008000130AD000030AE0065
:102FE000EA30B2003208AF000130B0000030B1006A
:102FF00092317D2220302100B2003208DC0008002E
:103F7200FE0012001E000130FE020030FF3B7F08EF
:103F82007E0403190034BA2F64008001013101302C
:103F9200FE020030FF3B7F087E0403190034C62F67
:103FA2004934003400340034003400340034003426
:103FB20000340034003440340034F200F301721C47
:103FC200E62F7008F1007108F3070310F00D0310DB
:103FD200F20CF208031DE02F7308080021000E15F1
:103FE2001D08833918389D001D149E131E088F3931
:0E3FF20060389E00FC309E058F309F05080051
:020000040001F9
:04000E0084CFCFDFED
:00000001FF
