:100000008031122808000800803120007F08DD00C0
:100010002700160803190E288A31E62220005D0801
:10002000FF0009009231412AA0308600013087008C
:1000300020308400013085000C30FF0016001A00CB
:10004000FF0B1E282200D80108305802031863282D
:1000500058082100AF00B001AF35B00DAF35B00D7D
:100060002F08013EB1000030303DB20031082D07AD
:10007000860032082E3D8700403FB300413FB40068
:10008000423FB500433FB600220058082100B700A8
:100090000130B735FF3E031D492837352C3E860019
:1000A000013087003308C03F3408C13F3508C23FE4
:1000B0003608C33F0130AF002F082200D8070830B0
:1000C0005802031C2828D8010330580203180800DE
:1000D0005803FF3A2100AF000130AF35FF3E031D4A
:1000E0006D282F35183E2C3E860001308700403F9A
:1000F000B000413FB100423FB200433FB300220095
:100100005803FF3A2100B4000130B435FF3E031D0F
:1001100085283435143E2C3E860001308700403F50
:10012000B500413FB600423FB700433FB80030083A
:1001300035062200D4002100310836062200D50001
:100140002100320837062200D60021003308380685
:100150002200D7005803FF3A2100AF000130AF352D
:10016000FF3E031DAF282F35103E2C3E8600013088
:1001700087002200540801052100B000413122000F
:10018000550801052100B100413122005608010542
:100190002100B20041312200570801052100B300BF
:1001A00033082200D700210032082200D6002100A7
:1001B00031082200D500210030082200D400580365
:1001C000FF3A2100AF000130AF35FF3E031DE428A8
:1001D0002F35183E2C3E860001308700220054083F
:1001E00001062100B000413122005508010621001E
:1001F000B10041312200560801062100B200413110
:100200002200570801062100B30033082200D7005E
:10021000210032082200D600210031082200D5003A
:10022000210030082200D40058082100AF0001301E
:10023000AF35FF3E031D18292F35203E86000130C3
:100240008700403F2200D407413FD53D423FD63D85
:10025000433FD73D58082100AF00B001AF35B00D86
:10026000AF35B00D2F08213EB1000030303DB20057
:1002700031082D07860032082E3D8700403F2200BE
:10028000D407413FD53D423FD63D433FD73D58037C
:10029000FF3A2100AF000130AF35FF3E031D4C296E
:1002A0002F351C3E2C3E860001308700403F220047
:1002B000D407413FD53D423FD63D433FD73D58034C
:1002C000FF3A2100AF000130AF35FF3E031D642926
:1002D0002F35103E2C3E860001308700403FA000A5
:1002E000413FA100423FA200433FA3001A30B000AB
:1002F0003008A4009D31BD25803121002308220053
:10030000D300210022082200D2002100210822006F
:10031000D100210020082200D0005803FF3A21001C
:10032000AF000130AF35FF3E031D92292F35103E3F
:100330002C3E860001308700403FA000413FA100D5
:10034000423FA200433FA3001530B0003008A40094
:100350009D31BD258031210023082200CF002100DE
:1003600022082200CE00210021082200CD00210019
:1003700020082200CC0050084C062100AF002200CB
:1003800051084D062100B000220052084E062100FF
:10039000B100220053084F062100B20032082200AB
:1003A000CF00210031082200CE00210030082200B9
:1003B000CD0021002F082200CC005803FF3A210075
:1003C000AF000130AF35FF3E031DE2292F35103E4F
:1003D0002C3E860001308700403FA000413FA10035
:1003E000423FA200433FA3000730B0003008A40002
:1003F0009D31BD258031210023082200D30021003A
:1004000022082200D200210021082200D100210070
:1004100020082200D00050084C062100AF00220026
:1004200051084D062100B000220052084E0621005E
:10043000B100220053084F062100B200320822000A
:10044000CF00210031082200CE0021003008220018
:10045000CD0021002F082200CC004C0854072100B9
:10046000AF0022004D08553D2100B00022004E088B
:10047000563D2100B10022004F08573D2100B20037
:1004800022005803FF3A2100B3000130B335FF3E8C
:10049000031D462A33351C3E2C3E86000130870062
:1004A0002F08C03F3008C13F3108C23F3208C33F68
:1004B00022005803FF3A2100AF000130AF35FF3E64
:1004C000031D5E2A2F351C3E2C3E8600013087001E
:1004D000403FB000413FB100423FB200433FB30054
:1004E00022005803FF3A2100B4000130B435FF3E2A
:1004F000031D762A34350C3E2C3E860001308700E1
:10050000403FB007413FB13D423FB23D433FB33D65
:1005100022005803FF3A2100B5000130B535FF3EF7
:10052000031D8E2A35350C3E2C3E86000130870097
:100530003008C03F3108C13F3208C23F3308C33FD3
:1005400022005803FF3A07392100AF000130AF35D0
:10055000FF3E031DA72A2F352C3E86000130870061
:10056000403FA000413FA100423FA200433FA30003
:100570001E30B0003008A4009D31BD25803121001F
:1005800023082200D700210022082200D6002100E3
:1005900021082200D500210020082200D4005803A1
:1005A000FF3A07392100AF000130AF35FF3E031D90
:1005B000D52A2F352C3E860001308700403FA00011
:1005C000413FA100423FA200433FA3001330B000CF
:1005D0003008A4009D31BD25803121002308220070
:1005E000D300210022082200D2002100210822008D
:1005F000D100210020082200D0005008540621001C
:10060000AF002200510855062100B0002200520818
:1006100056062100B1002200530857062100B200FF
:1006200032082200D300210031082200D20021002C
:1006300030082200D10021002F082200D0005803EA
:10064000FF3A07392100AF000130AF35FF3E031DEF
:10065000252B2F352C3E860001308700403FA0001F
:10066000413FA100423FA200433FA3000A30B00037
:100670003008A4009D31BD258031210023082200CF
:10068000D700210022082200D600210021082200E4
:10069000D500210020082200D40054085006210073
:1006A000AF002200550851062100B0002200560874
:1006B00052062100B1002200570853062100B20063
:1006C00032082200D300210031082200D20021008C
:1006D00030082200D10021002F082200D00058034A
:1006E000FF3A013E07392100AF000130AF35FF3E30
:1006F000031D762B2F352C3E860001308700403FAE
:10070000B000413FB100423FB200433FB30022007E
:100710005803FF3A07392100B4000130B435FF3ED9
:10072000031D8E2B34352C3E860001308700403F60
:10073000B500413FB600423FB700433FB800300824
:1007400035042200D4002100310836042200D500EF
:100750002100320837042200D60021003308380473
:100760002200D7005803FF3A023E07392100AF00AC
:100770000130AF35FF3E031DB92B2F352C3E8600CF
:10078000013087002200540801052100B0004131EA
:100790002200550801052100B10041312200560810
:1007A00001052100B2004131220057080105210056
:1007B000B30033082200D700210032082200D600FF
:1007C000210031082200D500210030082200D40089
:1007D0005803FF3A013E07392100AF000130AF3521
:1007E000FF3E031DEF2B2F352C3E86000130870086
:1007F000403FB000413FB100423FB200433FB30031
:1008000022005803FF3A07392100B4000130B43503
:10081000FF3E031D072C34352C3E86000130870037
:10082000403FB500413FB600423FB700433FB800EC
:10083000300835052200CC002100310836052200A1
:10084000CD002100320837052200CE0021003308F8
:1008500038052200CF0054084C042100AF002200CC
:1008600055084D042100B000220056084E04210016
:10087000B100220057084F042100B20032082200C4
:10088000D700210031082200D600210030082200C4
:10089000D50021002F082200D40050085407210061
:1008A000AF0022005108553D2100B000220052083F
:1008B000563D2100B10022005308573D2100B200EF
:1008C00022005803FF3A2100B3000130B335FF3E48
:1008D000031D662C33351C3E2C3E860001308700FC
:1008E0002F08810741313008813D41313108813D78
:1008F00041313208813D22005803FF3A2100AF0008
:100900000130AF35FF3E031D812C2F351C3E2C3EA0
:10091000860001308700403FB000413FB100423FB8
:10092000B200433FB30022005803FF3A2100B40055
:100930000130B435FF3E031D992C3435083E403E4E
:100940008600033087003008C03F3108C13F3208BD
:10095000C23F3308C33F22005803FF3A2100AF00D3
:100960000130AF35FF3E031DB12C2F350C3E2C3E20
:10097000860001308700403FB000413FB100423F58
:10098000B200433FB30022005803FF3A2100B400F5
:100990000130B435FF3E031DC92C3435143E403EB2
:1009A0008600033087003008C03F3108C13F32085D
:1009B000C23F3308C33F0130AF002F082200D807E1
:1009C00064282100C400372E22000C1603302300B7
:1009D0002F020318232E21004408023E8600023015
:1009E0008700640823002F072100BE00BF01BF0D50
:1009F00003303E052000DE00003021003F052000CE
:100A0000DF002D30E0000030E1009D3139258431D8
:100A10003C302100C0002330C10020005E082100CE
:100A20004007840020005F082100413D85002D30F3
:100A3000FF0016001A00FF0B192D0130BE003E0802
:100A40002300AF072C08523A031D232E94312C2487
:100A50008431232E2100E4012300AF015230210014
:100A60001F2E21004408A2000230A3009F30A400E2
:100A70008830A5000C30BE003E08A60097316927DB
:100A80008431502E232E21004408023E860002307D
:100A90008700160001040319E82D4408023E860071
:100AA00002308700C1308400013085000630FF002D
:100AB00016001A00FF0B582D003023004202803030
:100AC000031941020318682D8030C1000030C200B4
:100AD00000304202FB300319410203187A2D003026
:100AE0004202E13003194102031C7A2DE030C100BB
:100AF0000030C20001304202C23003194102031C1F
:100B0000852DC130C1000130C20000304202FB30EF
:100B1000031941020318A52D41082100BE0023003E
:100B200042082100BF00C001C1010130BE35BF0D28
:100B3000C00DC10D890B962D1230BE35BF0DC00DF5
:100B4000C10D890B9D2D1730B62D41082100BE0027
:100B5000230042082100BF00C001C1011230BE3590
:100B6000BF0DC00DC10D890BAF2D07303E04230012
:100B7000B900003021003F042300BA0003302100F7
:100B800040042300BB000030210041042300BC00CE
:100B900042082000DF01DF07230041082000DE01BA
:100BA000DE07FD30E0002F30E1009E3176268431F3
:100BB00020005E08FF3A013E2100BE003E082000F2
:100BC000EF00230043082100BE003E082300E4009C
:100BD00021004408A2000230A300C130A40001306B
:100BE000A5000630BE003E08A60097316927843173
:100BF000502E21004408023E860002308700010882
:100C0000313A003003190130BE00BE0E22000C083C
:100C100021003E06EF393E0622008C0021004408E8
:100C2000023E8600023087000108313A03191A2E6D
:100C300044301B2E5230C2000030C3004208BE00B8
:100C40003E082300AC0021004408A2000230A300AB
:100C5000AC30A4000130A5000D30BE003E08A60057
:100C60009731692784312300B301B801502E210048
:100C700044088600023087000108413A03192A2DF2
:100C8000023A0319432D063A0319F92D0C3A0319B8
:100C9000312D1A3A0319422D043A0319E42C502E2F
:100CA00022008C160800230064082100D800D90116
:100CB000D809D909D80A0319D90A23003108210013
:100CC0005807DA0059080318590ADB005A082300AC
:100CD000E10021005B082300E20062082100A60178
:100CE000A607230061082100A501A5079D31122553
:100CF000863121002508C0002608C1002708C2004F
:100D0000230031082100D800D901D809D909D80A0F
:100D10000319D90A2200600821005807DA0059088F
:100D20000318590ADB00DA35DB0DDA35DB0DDA356D
:100D3000DB0D5A08A5005B08A6009D3112258631FF
:100D400021002508BA002608BB002708BC009B31FB
:100D50005F23863121003A08BD003B08BE003C08F5
:100D6000BF008D31F025863121003D08DC003E08B2
:100D7000DD003F08DE005C08C0005D08C1005E08C1
:100D8000C200230050082100A601A60723004F0837
:100D90002100A501A5079D311225863121002508D6
:100DA000AD002608AE002708AF000030AA000030D2
:100DB000AB003F30AC008B319923863121002A08EB
:100DC000BA002B08BB002C08BC009B315F23863186
:100DD00021003A08BD003B08BE003C08BF008D3131
:100DE000F025863121003D08CA003E08CB003F08AF
:100DF000CC0095313225863121004B082000E301DB
:100E0000E30721004A082000E201E207230063080B
:100E1000200062072100D800200063080318630A3D
:100E20002100D9005908803AFF0080307F02031D5D
:100E30001B2F4C305802031C3C2F2300630820005A
:100E400062072100D800200063080318630A21000C
:100E5000D9005908803AFF0081307F02031D322FEC
:100E60000030580203183C2F200062082100D800EF
:100E700058082300E307722F23006308200062074D
:100E80002100D800200063080318630A2100D9005C
:100E90005908803AFF0081307F02031D512F003036
:100EA0005802031C552FFF306D2F230063082000CC
:100EB00062072100D800200063080318630A21009C
:100EC000D9005908803AFF0080307F02031D6A2F45
:100ED0004B3058020318722F4B302100D8005808AD
:100EE0002300E300230031082100D8005808220025
:100EF000E00023006208D001D0076108CF01CF07CE
:100F00000630AC3E8600013087006308C03F2C00ED
:100F10009200080028302100B90039082200EC00B6
:100F200021006E08FD39031DF32F6E363F39B900DD
:100F30000130B935FF3E031D992F3935203EBA00E7
:100F40003A08E6006608B90039082000EA000430D3
:100F50002100B90039082000EA0621006608860051
:100F60008701010C890C0F390D3A031DF02FBC01CC
:100F700008303C020318E12F6608023E8600870114
:100F8000403FB900413FBA00390886003A0887005F
:100F90000108BB003C08403E860087013B088100F9
:100FA0006608023E8600870101308107413103183F
:100FB000810A0130B9003908BC0708303C02031C23
:100FC000BC2F4030B9000030BA006608023E8600EF
:100FD00087013908C03F3A08C13F9E3133260800D7
:100FE0009D318A250800FD3021006E05B9003908C1
:100FF000043A031D080090319B200800DD340800EE
:101000000034AB34053439346D34343403344B3468
:1010100000346C3400346F3400346E340034643483
:101020000034693400346B340034653400342034C7
:10103000003450340034723400346F3400346A3475
:1010400000346534003463340034743400340034C4
:1010500000340034003400340034003400340034F0
:1010600000340034003400340034003400340034E0
:101070000034343403344B340034313400343634E7
:1010800000340034003400340034003400340034C0
:1010900000340034003400340034003400340034B0
:1010A00000340034003400340034003400340034A0
:1010B0000034003400340034003400340034003490
:1010C0000034003400340034003400340034003480
:1010D0000034003400340034003409340234203445
:1010E0000034013401340034C0343234093404345F
:1010F000003400340234FF34FF34FF34003407344A
:1011000005340134023440340034013407340534EA
:101110008134023440340034013412340134003458
:1011200002340034003400340834D83404340A342F
:10113000F634003400340134023400340134103405
:101140004B34313436340034003400340034EF345E
:10115000BE34AD34DE3404340334093404340800BE
:10116000080098342F348A3442349134443437346C
:101170007134CF34FB34C034B534493400340034D6
:1011800000340034003400340034003400340034BF
:1011900040340034073400347B3405347234013475
:1011A000003400345E3401348F34003400340034B1
:1011B00022005B0886005C08870048308E01011819
:1011C00090308E0048308E01811890308E0048306B
:1011D0008E01011990308E0048308E0181199030B7
:1011E0008E0048308E01011A90308E0048308E01FA
:1011F000811A90308E0048308E01011B90308E0095
:1012000048308E01811B90308E00413148308E0174
:10121000011890308E0048308E01811890308E0079
:1012200048308E01011990308E0048308E018119AE
:1012300090308E0048308E01011A90308E00483078
:101240008E01811A90308E0048308E01011B903043
:101250008E0048308E01811B90308E004131483025
:101260008E01011890308E0048308E018118903028
:101270008E0048308E01011990308E0048308E016A
:10128000811990308E0048308E01011A90308E0006
:1012900048308E01811A90308E0048308E01011B3B
:1012A00090308E0048308E01811B90308E0041318D
:1012B00048308E01011890308E0048308E01811820
:1012C00090308E0048308E01011990308E004830E9
:1012D0008E01811990308E0048308E01011A9030B5
:1012E0008E0048308E01811A90308E0048308E0179
:1012F000011B90308E006D088E01811B6E088E00E0
:101300004131EF0BDD280800210012113D0093014F
:10131000900198010E302100A1009930A000A20197
:101320002208031DA52920088600210887008101C5
:101330000130A0070030A13D01302000DE005E0832
:101340002100A20722080319932916303D009100BD
:101350009F3097007B3092002100A30108302302C8
:101360000318CD2923082000DE000130DE35FF3EC2
:10137000031DB6295E35203E860087010030C03F40
:101380000030C13FC23FC33F0130DE005E08210094
:10139000A30708302302031CB2293D000E17960153
:1013A0000E120E133D00901DE229F7302000DE00E2
:1013B0005E083D0090052100E9012300C901CA0132
:1013C000CB01D22901302000DE005E082200EA00B5
:1013D00001302000DE005E082200EB00E601E7019C
:1013E000E5012100A301023023020318182A230873
:1013F000E03E8600870181012308593E86000130C6
:10140000870081012308D13E8600013087008101D9
:101410002308D33E8600013087008101013020007F
:10142000DE005E082100A30702302302031CF72917
:1014300028302000DE005E082100E00016303D006C
:10144000980040302000DE000030DF005E08A2007F
:101450005F08A3000830A1008430DE005E08A00011
:101460002100EC01E30108002100660886008701E5
:10147000413FA10021082000E000E10161082300B4
:101480004B02031D472A2000600823004A0203186C
:101490004F2A4A082000E00060082100A100033024
:1014A000C73E860001308700210021082000E000AF
:1014B000E101E009E109E00A0319E10A403F6007A0
:1014C0002300CA00413F2000613D2300CB002100E2
:1014D000A001210820020318872A2008483E860020
:1014E000870101082000E0002300470886008701EB
:1014F0002000600881000130E00060082300C70779
:1015000001302000E00060082100A007692A0330B4
:10151000C73E860001308700160001040319BC2A6B
:1015200008302000E0006A0A860087016008810018
:101530004830E0000030E1006A08023E8600870182
:101540006008C03F6108C13F21006608860087012E
:10155000011BB32AC8302000E0006A08860087011A
:1015600060088100080088302000E0006A088600DA
:10157000870160088100080008302000E0006A0A46
:1015800086008701600881004030E0000030E10003
:101590006A08023E860087016008C03F6108C13FBB
:1015A0008430E0006A08860087016008810023001B
:1015B0004C080319DE2A4C088A31DD2AC9132000A1
:1015C000E808031D08009131D32108002200E4013E
:1015D00001302000D8005808E7076708023A0319CD
:1015E000E70104302200620203183B2B2000911E09
:1015F0001C2B230019082000D800023022006207AB
:101600002000D900D5305907DA000630DB005B082E
:10161000F00067089B3180238A3120005A07DC00E4
:101620005C08860001308700580881000130D8002E
:1016300058082200E207E40101302000D8005808D1
:101640002200E40722306402031C2D2B013020000D
:10165000D80058082300B807912B23009D1CF12ABD
:101660002C08573A031D912B01302000D800580850
:101670002300B307912B23002C08573A031D912B0D
:101680003D302000D8000630D9005908F000670826
:101690009B3180238A31D53E8600013087002000AF
:1016A00058088100230030082000D8000630D900F7
:1016B0005908F00067089B3180238A312000DA0046
:1016C0005A0AD53E8600013087005808810006304E
:1016D000D8005808F00067089B3180238A31D53E36
:1016E0002000D9005908FC000630D8005808F00046
:1016F00067089B3180238A312000D900590AD53EE2
:10170000DA005A08FD007C08F6000130F7007D0879
:10171000F8000130F9000530D8005808FA00963179
:10172000412623009D139D172200E2012700960108
:10173000080021002A08B0002B08B1002C08B200D4
:101740000310310D320DB3003308B400B408031D8B
:10175000B02B0030AA000030AB000030AC00080015
:101760002D08B0002E08B1002F08B2000310310D73
:10177000320DB3003308B900B908031DC62B003081
:10178000AA000030AB000030AC00080039087B3EF6
:10179000B0003008B4072A08B0002B08B1002C08AC
:1017A000B2001030B236B10CB00C890BD22B30081D
:1017B000B3003308B9002D08B0002E08B1002F087F
:1017C000B2001030B236B10CB00C890BE22B3008ED
:1017D000B3003308B9068030B0003008B905AB1744
:1017E000AE17FF30AD05FF30AE050030AF0500305D
:1017F000B5000030B6000030B7000730B000300848
:10180000B8002A1C092C2D08B5072E08B63D2F0854
:10181000B73D0130AC36AB0CAA0C890B0A2C013059
:10182000AD35AE0DAF0D890B102C0130B802031D84
:10183000012C0930B0003008B8002A1C252C2D08D6
:10184000B5072E08B63D2F08B73D0130AC36AB0CBE
:10185000AA0C890B262C0130B736B60CB50C890BB7
:101860002C2C0130B802031D1D2C3508A0003608B1
:10187000A1003708A2003408B0003008A3003908DE
:10188000B1003108A4009131682121002008AA008C
:101890002108AB002208AC00080010302100A50090
:1018A00025082300AD0002302000DE000030DF00FC
:1018B00023002D082100A500A60125082000E00036
:1018C000210026082000E100913101218C31200007
:1018D0005E082100A70027082300E5006508210015
:1018E000A500A60125082000DE0021002608200012
:1018F000DF000030E0004030E100913101218C3107
:1019000020005F082100AD01AD0720005E08210026
:10191000AC01AC0702302000DE000030DF00210007
:101920002D082000E101E10721002C082000E00142
:10193000E007913101218C3120005F082300B701BD
:10194000B70720005E082300B601B6070030260066
:10195000A3000030A2000030A1000030A000210050
:10196000AE01AE0A2300650821002E020318FD2CEB
:10197000230065082100A5000130A535FF3E031DA9
:10198000BD2C2535FC3EA03E860003308700403F3D
:10199000A600413FA700423FA800433FA9002E08F0
:1019A000AA000130AA35FF3E031DD22C2A35FC3E89
:1019B000203E860003308700403FA607413FA73DF9
:1019C000423FA83D433FA93D2E08AB000130AB3557
:1019D000FF3E031DE72C2B35203E86000330870099
:1019E0002608C03F2708C13F2808C23F2908C33F37
:1019F0000130A5002508AE07B22C5230A5002508FD
:101A00002300AC00B401B50108002100E308031D68
:101A1000192D3D008E019201163091009F309700E4
:101A20007B3092008E19162D8E15122D2100E301A8
:101A3000E30A6308013A031D292D3D008E1A292D62
:101A4000900192011214121602302100BD003D08CF
:101A5000E3003D001019121D362DFB302100BD00A2
:101A60003D083D0090059C310C248D313D008E1CBD
:101A70003C2D2000121108001018121C4C2D893129
:101A800084218D3104302100BD003D08E300FE308B
:101A9000BD003D083D009005101A121E582D9C31C6
:101AA00024248D31EF302100BD003D083D0090051C
:101AB000101F7B2D121F692D73302100AC000030E8
:101AC000AD00AE010130AF000030B0009D31F42513
:101AD0008D31BF302100BD003D083D009005220042
:101AE0006C080319752D0130EC02EC08031D7B2DE9
:101AF0009131D3218D313D00901A921E822D9C315F
:101B0000ED248D313D009018921C952DFF30210061
:101B1000AC007F30AD00AE010130AF000030B0004E
:101B20009D31F4258D313D00930104302100630285
:101B300003189D2D2000121108003D00921DED2D6F
:101B40002100BF01E62D0F082100BD003D08EE0079
:101B50006E0CBD00BD0C3D0C0F39BE003E08E5000B
:101B6000F730BD003D083D00900521006E19BB2DEA
:101B70006508D33EBD2D6508D13E86000130870043
:101B800001080139BD000130BD0601083D06FE39DE
:101B90003D068100E508031DD12D87318A278D314F
:101BA000E12D72302100AC000030AD00EE30BD0000
:101BB0003D08AE000030AF000030B0009D31F4258C
:101BC0008D3101302100BD003D08BF0704303F02C8
:101BD0000318ED2D3D009019A32D200012110800CF
:101BE00021003D08C3003E08C4003F08C5000310A3
:101BF000440D450DC6004608C9004008C300410811
:101C0000C4004208C5000310440D450DC600460837
:101C1000C80049080319182E4808490203181F2E46
:101C20004903FF3A4807C30019304302031C1F2E23
:101C30004008BD004108BE004208BF000800480837
:101C4000031908004908480203182E2E4803FF3ADA
:101C50004907C30019304302031808000630C300C7
:101C60004308C700BF1BC717C21B4717BE17FF306B
:101C7000BD05FF30BE050030BF05C117FF30C005F0
:101C8000FF30C1050030C2054808490203186A2E1A
:101C90000130C035C10DC20D890B492E0130C8027B
:101CA000480849060319652E0130C702470807395D
:101CB0000319652E482E0130BF36BE0CBD0C890BB2
:101CC0005C2E0130C3004308C907490848060319C0
:101CD0008F2E5B2E4908480203188F2E0130BD3528
:101CE000BE0DBF0D890B6F2E0130C9024808490691
:101CF00003198B2E0130C7024708073903198B2EB1
:101D00006E2E0130C236C10CC00C890B822E013000
:101D1000C3004308C80749084806031D812EC71F92
:101D2000A12EFF30BD06FF30BE06FF30BF060130DA
:101D3000BD07003003180130BE0700300318013022
:101D4000BF07471FB32EFF30C006FF30C106FF306C
:101D5000C2060130C007003003180130C10700304F
:101D600003180130C207C7013D08C0073E08C13D46
:101D70003F08C23DC21FCE2EFF30C006FF30C10655
:101D8000FF30C2060130C007003003180130C10720
:101D9000003003180130C207C701C70A4008A0007D
:101DA0004108A1004208A2004908C3004308A3005B
:101DB0004708C4004408A40091316821210020088C
:101DC000BD002108BE002208BF0008002000420814
:101DD000013A031DFD2E40081F390038031DFD2E5A
:101DE0002100E91720004108033A031DFB2E2200C1
:101DF000E101E10AFD2E2200E10120004208031D5D
:101E0000080040081F39023A031D080044080F3932
:101E1000003A0319080044080F392100B1000230CC
:101E20003102031808006308203A031D0800E9176F
:101E30002000C41B2B2F44080F39593E8600013067
:101E4000870001082100B1003108B60020004408D5
:101E50000F39D33E3A2F200044080F39E03E860068
:101E6000870101082100B1003108B60020004408B4
:101E70000F39D13E86000130870001082100B100F2
:101E80003108B5003518492FFB30B1003108B605CF
:101E90004A2F36152000C41B582F21003608B100E8
:101EA000200044080F39593E860001308700612F19
:101EB00021003608B100200044080F39E03E8600BA
:101EC000870121003108810020004108033A031DE9
:101ED000862F2100360886008701811F7D2F200074
:101EE000C41B762F44080F39D33E792F44080F398D
:101EF000D13E860001308700811484302100B1007A
:101F0000360886008701310881040800043021006A
:101F1000B1003108B606360886008701811FAB2F55
:101F20007F30B10036088600870131088105360808
:101F30008600870101170530AC000030AD0036087F
:101F4000B1003108AE000130AF000030B0009D316B
:101F5000F4258E31B02F2100360886008701011745
:101F600004302100B1003108B606B518BC2F360880
:101F700086008701811FE22F2000C41BC32F440865
:101F80000F39D33EC62F44080F39D13E86000130A9
:101F9000870081103B302100B100360886008701A0
:101FA000310881050530AC000030AD003608B100C5
:101FB0003108AE000130AF000030B0009D31F42593
:101FC0008E31EA2F3B302100B100360886008701B0
:101FD00031088105200044080F39983E2100B100E6
:101FE000B2010E30B23D3108B3003208B400FE3009
:101FF000B1003308860034088700310881050800E5
:1020000080310320080020006F082100DF005F08F6
:10201000200095070B1123002C08573A031D2E288A
:102020000830AC3E86000130870001308107413125
:102030000318810A7F31403F3606031D2128413FA6
:102040003706031D2E282F08031928285030292869
:1020500052302100DF005F082300AC000130210076
:10206000DF005F082200E307031D08008C12210037
:102070001C08DF005F082300B10021009D14863199
:10208000532608002000400E890C0339003A031D36
:1020900008008F282100E9170830B7003708E3004F
:1020A000080093312C2308009331AB230800EC3057
:1020B0002100E7000030E8006914EA01EA0AE917A4
:1020C00008009F31562708008E31E62608002000C0
:1020D0004408ED3E2100E7000030E8006914EA0101
:1020E000EA0AE91708002100E91720004208210048
:1020F000B70020004408ED3E860087012100370824
:102100008100080002302100AC000030AD00AE01BB
:102110000030AF000030B0009D31F42508002000F1
:10212000410884000D30040203180800983104357A
:10213000003E820008002100600886008701003010
:10214000011B01302000E10004302100A000200824
:10215000E0066308083A031DBB28200042083D0042
:10216000960016080319B6281030B728043021004D
:10217000A0002008E30020006908013A031DF428AC
:1021800048302100A0000030A1006008023E860017
:1021900087012008C03F2108C13F9431AE2490310F
:1021A00020006D08023A031DDE2884302100A000C3
:1021B0006008860087012008810008002000E108EF
:1021C000031DEB28C8302100A000600886008701AD
:1021D00020088100080088302100A00060088600E7
:1021E00087012008810008002300C91FFE284C0831
:1021F0000319FD284C089031FC28C9132000E9017F
:1022000008002100A2012000DF1F0E29DE09DF09DE
:10221000DE0A0319DF0A2100A201A20A2000E11F41
:102220001B29E009E109E00A0319E10A0130210054
:10223000A0002008A2062100A301A40120005F083D
:102240005E04031955292100A101A10A2000DF1B0A
:10225000352901302000DE35DF0D890B2B290130B7
:102260002100A0002008A107262901302100A33564
:10227000A40D890B372920005F086102031D422944
:102280005E086002031C4A295E08E0025F08E13B29
:102290002100231401302000DF36DE0C890B4C298D
:1022A00001302100A102031D352921002208031954
:1022B0005E29A309A409A30A0319A40A240820007B
:1022C000DF01DF07210023082000DE01DE07080010
:1022D0002100230803197129220821042004031D69
:1022E00084290030A0000030A1000030A2000800C6
:1022F00001302000DE005E082100A3070130A23675
:10230000A10CA00C890B7F29FE30220503199F29FF
:10231000782901302000DE005E082100A30701308B
:10232000A007003003180130A10700300318013066
:10233000A2070130A236A10CA00C890B9A29FF300C
:1023400022050319AC2989290130A3020130A035E7
:10235000A10DA20D890BA729A11FA4292318B62915
:10236000FF30A0057F30A105FF30A2050310A30CAC
:1023700023082000DE00DF01E0011030DE35DF0D34
:10238000E00D890BBE295E082100A00420005F0833
:102390002100A104200060082100A20424080319E0
:1023A0000800A21708002200EA08031D08000130F7
:1023B0002000DE005E082200EA00EB08031D080092
:1023C00001302000DE005E082200EB0020006908DA
:1023D000023A031DFB292100600A86008701810162
:1023E000C8302000DE002100600886008701200040
:1023F0005E08810008006908013A031D08002200F8
:10240000DD0108302000DE002100660A8600870119
:1024100020005E0881004030DE000030DF00210037
:102420006608023E8600870120005E08C03F5F0804
:10243000C13F8430DE00210066088600870120004D
:102440005E0881002200DD01DD0A08302000DE0088
:102450006A0A860087015E0881004030DE00003095
:10246000DF006A08023E860087015E08C03F5F0801
:10247000C13F8030DE006A08860087015E08810067
:1024800008003C30840023308500B430FE0000306A
:10249000FF009B317423923162308400003085004C
:1024A0000D30FE000030FF009B3174239231E0308C
:1024B0008400003085001030FE000030FF009B31AA
:1024C0007423923159308400013085001730FE00AA
:1024D0000030FF009B3174239231C73084000130FB
:1024E00085001C30FE000030FF009B3174239231C8
:1024F00060308400023085001030FE000030FF00A4
:102500009B317423923120308400033085003830B1
:10251000FE000030FF009B31742392318731FE278B
:102520009231EF00B130840088308500A030860001
:10253000013087000030FF0027309B316823923143
:10254000AC3084009C308500A030860003308700CA
:102550000030FF0020309B31682320009B31F52B99
:10256000203021006302031C08003D008E18080083
:10257000220069080319CA2A690886008701010D2B
:10258000010D01392100C500C6014508C9004608F2
:10259000CA00CD2A2100C901CA014A084904031D05
:1025A000E82AA0308431E12492312100A001A0303A
:1025B000C5004508A1004030C6004608A200013011
:1025C0009F31082792312100C70047082200E90007
:1025D00021006F0820006E06031908002200680819
:1025E0000319002B680886008701010D010D0139D0
:1025F0002100C500C6014508CB004608CC00032BCE
:102600002100CB01CC014C084B04031D0800A001A4
:10261000A00A0F30C50045082000DE006E089B317F
:1026200091239231203E2100C6004608A1000F30C0
:10263000C7004708A20001309F3108272100C800C9
:1026400048082200E80020006E0A03392100C50076
:1026500045082000EE00080020004008803A031DD5
:102660000800C030DE005E082100E9009E2B8D309E
:102670002100E7008830E8001230EA000030EB006B
:102680000800043084008830850020004208840758
:102690000318850A003F2100E7008830E800680839
:1026A0002000DF00210067082000DE0002305E0706
:1026B00084005F0803185F0A85000008E0006008D6
:1026C0002100EA0068082000DF00210067082000E0
:1026D000DE0003305E0784005F0803185F0A850090
:1026E0000008E00060082100EB0008000330200033
:1026F00042020318982B013084008830850042087C
:1027000084070318850A003F2100E7008830E800AD
:10271000670884006808850000082000DE00DF01EB
:102720005E082100EA0020005F082100EB0008009D
:102730002100E90108002100E90108002000430808
:10274000013A0319372B033A0319412B013A0319B4
:10275000762B9B2B08002100E9170E30B30099302F
:10276000B200B4013408031DC52B320886003308BB
:10277000870081010130B2070030B33D0130B10064
:102780003108B40734080319B52B00302000DE00EF
:102790000030DF002030E0000030E10020309C31CC
:1027A000CC2493313D000E172100B50102303502D3
:1027B0000318EE2B3508D13E8600013087008101D9
:1027C0003508D33E86000130870081010130B10019
:1027D0003108B50702303502031CDA2B0030200027
:1027E000DE000030DF000130E0000030E100ED30BD
:1027F0009C31CC2493313D000E1328302100B100D0
:102800003108E0002030B1003108E6006608B10070
:1028100031082000EA0042082100B1003108EC0034
:10282000EC08031D182C1030B1003108E30008003B
:102830000130AC000030AD00EC30B1003108AE002A
:102840000130AF000030B0009D31F4252030210070
:10285000B1003108E300080021006408B900BA01A2
:1028600039082000DE0021003A082000DF002D306A
:10287000E0000030E1009D31392594313C302100E9
:10288000BB002330BC0020005E0821003B07AD00E8
:1028900020005F0821003C3DAE00803114209431BF
:1028A00021006408B900BA0139082000DE002100C7
:1028B0003A082000DF002D30E0000030E1009D31BB
:1028C000392594313C302100BB002330BC0020006E
:1028D0005E0821003B07860020005F0821003C3D88
:1028E00087000108BD003D082300B00021006408F6
:1028F000B900BA0139082000DE0021003A082000A2
:10290000DF002D30E0000030E1009D3139259431A9
:102910003C302100BB002330BC0020005E082100B9
:102920003B07A20020005F0821003C3DA300963138
:10293000D4262100640A0339B9003908E4002300D1
:10294000B401B50120006F08950057302100B9008F
:1029500039082300AC000130AF0208000830200025
:10296000DE005E08E000003021006B020830031931
:102970006A020318CE2C6A082000DE005E08E00020
:10298000ED08031DC62CED01ED0ACE2C6D08013AB1
:10299000031DCE2C0230DE005E08ED000330E73E62
:1029A0008600870120006008DE00DF01DE09DF0904
:1029B000DE0A0319DF0A403F5E072100EA00413FBB
:1029C00020005F3D2100EB0020006008DE002100B8
:1029D000600A8600870120005E0881004830DE0022
:1029E0005E08EB002100691C0F2D2D2D21006708CA
:1029F00084006808850000082000DE006B0886005F
:102A000087015E08810001302100E7070030E83DC2
:102A100001302000DE005E08EB070130E0022000FC
:102A2000E00803190800F62C2100670884006808F4
:102A3000850000082000DE006B08860087015E0824
:102A4000810001302100E7070030E83D013020001F
:102A5000DE005E08EB070130E0022000E008031909
:102A60000800142D21004A08CE004B08CF004C0866
:102A7000D00003104F0D500DD1005108D700D708DA
:102A8000031D4B2D0030CD000030CC000030CB00BA
:102A90000030CA0008004A08CE004B08CF004C089E
:102AA000D0001730D036CF0CCE0C890B522D4E08EB
:102AB000D1005108D200CB17FF30CA05FF30CB053B
:102AC0000030CC054A08D3004B08D4004C08D50090
:102AD000D6018E30D702D71F892D5708803A8F3EF6
:102AE00003187B2D0030CD000030CC000030CB002F
:102AF0000030CA0008000130D636D50CD40CD30CF7
:102B0000890B7C2D0130CE004E08D7070319A22D6A
:102B10007B2D18305702031C9F2D0030CD00003054
:102B2000CC000030CB000030CA0008000130D335A3
:102B3000D40DD50DD60D890B972D0130D702D708AE
:102B4000031D962D52080319B02DD309D409D509B8
:102B5000D609D30A0319D40A0319D50A0319D60AC8
:102B60005608CD005508CC005408CB005308CA00C5
:102B700008003D000E122100E91BFA2D2300C91F99
:102B8000D12D02302100A20022082000E9002200FD
:102B9000E708031DCD2D9F31A9272200EB01EA0193
:102BA000080008302100A20020006A0A8600870180
:102BB0002100220881004030A2000030A300200044
:102BC0006A08023E8600870121002208C03F2308D0
:102BD000C13F8C30A20020006A08860087012100D6
:102BE000220881008430A200600886008701220844
:102BF000810008002000C01F102EE901E90A220010
:102C0000E608031D062E9F31A92795312200EB010E
:102C1000EA012000E808031D08009131D3210800D3
:102C200002302100A20022082000E9000830210023
:102C3000A20020006A0A8600870121002208810084
:102C40004030A2000030A30020006A08023E860047
:102C5000870121002208C03F2308C13F8430A20021
:102C600020006A08860087012100220881002200D6
:102C7000EB01EA012000E808031D08009131D3218F
:102C800008007A082000D000D10121006F08200040
:102C9000D200D3015208F0005308F1000F30F200C7
:102CA0000030F3009C3172249631200050087007E8
:102CB000D4005108713DD5005408023ED6000030C2
:102CC000553DD7005708803AFF0080307F02031D32
:102CD0006B2E4030560203180800760886007708ED
:102CE000870001082000D0000F30D1005108F0000B
:102CF00021006F089B3180239631203E86000230F0
:102D00008700200050088100210062082000D000C8
:102D10000F30D1005108F00021006F089B31802353
:102D200096312000D200520A203E860002308700F1
:102D300050088100FB017A087B020318CB2E79082A
:102D4000D1007808D0007B08500784005108031890
:102D5000510A85000008D20021006F082000D3002E
:102D6000D4015308F0005408F1000F30F200003095
:102D7000F3009C317224963170087B07023E203E9E
:102D80008600023087002000520881000130D00008
:102D90005008FB079B2E21006F0A03392000D0004A
:102DA00050082100EF0008008B1348302100A400D8
:102DB00024082200ED0090302100A4002408220005
:102DC000EE00B930DB000130DC0002302100A4004D
:102DD00024082200EF008831D820963121002208F3
:102DE000213E2200DB0000302100233D2200DC00D8
:102DF00003302100A40024082200EF008831D820ED
:102E0000963144302200DB000330DC000530210025
:102E1000A40024082200EF008831D8209631210038
:102E20002208013E2200DB0000302100233D220069
:102E3000DC0008302100A40024082200EF008831C3
:102E4000D820963140302200DB000330DC00EF0157
:102E5000EF0A8831D820963150302200EE00210050
:102E6000A40024082200ED002030DB000330DC0049
:102E7000230065082100A40024082200EF00883107
:102E8000D820D83022008E008B17FD302300390562
:102E90002100A400FF3023003A052100A500FF30E7
:102EA00023003B052100A600FF3023003C05210044
:102EB000A70027082300BC00210026082300BB0030
:102EC000210025082300BA00210024082300B900AE
:102ED000080021002608A700A8016F08A900AA0180
:102EE00029082000DE0021002A082000DF000F3022
:102EF000E0000030E1009D3139259731210027089D
:102F000020005E072100AB00280820005F3D210063
:102F1000AC002B08023EAD0000302C3DAE002E0868
:102F2000803AFF0080307F02031D982F40302D0231
:102F300003180800210022088600230887000108E2
:102F4000A7000F30A80028082000DE0021006F082D
:102F50009B3191239731203E86000230870021006B
:102F6000270881006208A7000F30A8002808200069
:102F7000DE0021006F089B31912397312100A900C9
:102F8000290A203E86000230870027088100AF0111
:102F900026082F020318FA2F2508A8002408A700E6
:102FA0002F082707840028080318280A850000082E
:102FB000A9006F08AA00AB012A082000DE0021004A
:102FC0002B082000DF000F30E0000030E1009D31D1
:102FD0003925973120005E0821002F07023E203E50
:102FE000860002308700290881000130A7002708E9
:102FF000AF07C82F6F0A0339A7002708EF000800A2
:10300000903161289031642890319A289031642859
:1030100090319A2890314A28903151289031822855
:103020009031572890315428903167289031732877
:0430300090319A2819
:1036BC00080021003C083B043A0403190800803040
:1036CC00BC060800FE0012001E000130FE02003095
:1036DC00FF3B7F087E0403190034692B64008001D2
:1036EC0001310130FE020030FF3B7F087E040319DC
:1036FC000034752BF200F301721C882B7008F1005A
:10370C007108F3070310F00D0310F20CF208031DFF
:10371C00822B730808002000E100E001611C9A2B49
:10372C005E08DF005F08E0070310DE0D0310E10CFC
:10373C00E108031D942B600808002200E20123001D
:10374C001E169D179E131F129F158D12270094177E
:10375C008B1596018B1723001D16FF30990008005E
:10376C0021008C1222008C169B31DE239B319C3164
:10377C0056249B319B31C9239B319B31A3239B3115
:10378C008C314D24080021009512951107309504B9
:10379C0020006F08950021008E130E130E128E114F
:1037AC00D83022008E0021000C1222000C120800CE
:1037BC0021000E151D08833918389D001D149E1309
:1037CC001E088F3960389E00FC309E058F309F0597
:1037DC008F302000DE005E082300E40008009C31DE
:1037EC003D249B318D3105259B310B1D002C9031D7
:1037FC0003209B3123002C08503A031D082C9431D4
:10380C002C249B319231B0229B31F82B2200E50104
:10381C0074302100AC000030AD00AE010030AF00C0
:10382C000030B0009D31F4253D008E101211FB309C
:10383C002100B10031083D00900508003D00121533
:10384C00EF302100B10031083D0090058E142200AC
:10385C00E501E50A75302100AC000030AD00AE0189
:10386C000030AF000030B0009D31F425080023007B
:10387C008C018D0104308E0021009801FC309900E0
:10388C00903027009B002200E901E8012000EE01A6
:10389C002100EF019B31B6239C3189318421080032
:1038AC0021008E162C009301FF3020009B00C030AD
:1038BC002C009300E6302300E3002C0092009101D1
:1038CC00200091101C08FC3901389C001C152100AB
:1038DC008E122C0013170800F401F501701C7A2CC1
:1038EC007208F4077308F53D0130F235F30D890BBE
:1038FC007B2C0130F136F00C890B802C7108700494
:10390C00031D742C7508F101F1077408F001F00720
:10391C0008001E302100A90029082000E100013018
:10392C009D3160259C312100A001A030A9002908FF
:10393C00A1004030AA002A08A20001309F310827BC
:10394C002100AB002B082200E900080000340034F1
:10395C00003400340034003400344034AA34AA3427
:10396C00AA342A3400340034003420349934993485
:10397C00993419345534553455341534923424341F
:10398C004934123400340034003410342100A100C6
:10399C002108A0002008A20001302000E002003025
:1039AC00E13BFF306106031DDD2CFF30600603197F
:1039BC00080020005E082100A00022088600870174
:1039CC00200881000130A0002008A207D22C3D0065
:1039DC00181C0B2D21006608860087010108803A0F
:1039EC00031D092D6008860087010108843A031D18
:1039FC00092D8C302000DE0021006608860087012E
:103A0C0020005E0881003D001810DF302000DE0031
:103A1C005E083D00900508002000E1012100A61F72
:103A2C001F2DA509A609A50A0319A60A2000E10164
:103A3C00E10A21002508A0002608A100A2018E3071
:103A4C00A8002808A300200061082100A90029086B
:103A5C00A4009131682121002008A5002108A600AE
:103A6C002208A70008002100A001A10120005E1C73
:103A7C00462D60082100A007200061082100A13D0F
:103A8C0001302000E035E10D890B482D0130DF3687
:103A9C00DE0C890B4D2D5F085E04031D3C2D2100AF
:103AAC0021082000DF01DF07210020082000DE01B3
:103ABC00DE0708002100A8002000611D6B2DDE012F
:103ACC00210028089E31BB269D312000E11C742D5D
:103ADC00DE01DE0A210028089E31BB2621002808C1
:103AEC00983EA400A5010E30A53D2408A60025088B
:103AFC00A700200061082100A400260886002708E2
:103B0C00870024088100080020006908023A031D80
:103B1C00922D8A31342208002000E9012200DD08B0
:103B2C00031DBA2D08302100A20020006A0A86006D
:103B3C0087012100220881004030A2000030A30040
:103B4C0020006A08023E8600870121002208C03F3F
:103B5C002308C13F8C30A20020006A088600870130
:103B6C0021002208810008002200DD01080021004C
:103B7C002008A5002108A6002208A7002308A800F9
:103B8C002403FF3A203E890AD02D0310A80CA70C61
:103B9C00A60CA50CFF3E031DCB2D2008A900210867
:103BAC00AA002208AB002308AC00240AE12DA93599
:103BBC00AA0DAB0DAC0D890BDD2D2908A5042A0827
:103BCC00A6042B08A7042C08A8042808A30027087F
:103BDC00A2002608A1002508A00008000A2E8831A2
:103BEC00B02008009B315E2308008831AF2008000C
:103BFC009C318F2408008731FF270800903100206A
:103C0C00080080310220080021002D08003A031919
:103C1C00132E7F3A03192D2E322E2C08013A03193C
:103C2C00FE2D033A0319012E013A0319042E063A0C
:103C3C000319322E773A0319322E013A0319F52D56
:103C4C00073A0319FB2D013A0319F82D322E2C08D3
:103C5C00FF3A0319072E322E08002000ED01E8016F
:103C6C002200E601E701DD012000E9017F3021009F
:103C7C00B800600886008701380881050430B80058
:103C8C003808E0067F30B8006008860087013808E5
:103C9C0081050430B8003808E0067F30B8002000F9
:103CAC006A0886008701210038088105E901EA01CC
:103CBC00EB012300C901CA01CB01903142209E3196
:103CCC0003302100AC000030AD00AE010030AF007D
:103CDC000030B0009D31F4259E319531B925080096
:103CEC002100A101A20120005F085E040319B02E7F
:103CFC002100A301A30A2000DF1B902E013020001D
:103D0C00DE35DF0D890B862E01302100A000200846
:103D1C00A307812E01302100A135A20D890B922E13
:103D2C0020005F086102031D9D2E5E086002031CCB
:103D3C00A52E5E08E0025F08E13B21002114013052
:103D4C002000DF36DE0C890BA72E01302100A302E8
:103D5C00031D902E210022082000DF01DF07210027
:103D6C0021082000DE01DE0708002000DF002030E3
:103D7C002100A00020082000E0005E082100A00027
:103D8C000130A035890BC72E20005F082100A1004F
:103D9C000130A135FF3E031DCF2E21352007A20097
:103DAC000130A235FF3E031DD72E2235A300230878
:103DBC002000E0076008860087018113DE08031DE0
:103DCC00F12E60082100A00020005F08593E8600FB
:103DDC0001308700FA2E200060082100A00020008E
:103DEC005F08E03E8600870121002008810020004A
:103DFC0060088600870101136008043E8600870175
:103E0C00011708002100A50020080319122F25080E
:103E1C00E03E86008701172F2508593E86000130A9
:103E2C0087000108A3002308A600A608031D202F65
:103E3C00003008002108A3000230A4002608023E2E
:103E4C00860087012308C03F2408C13F2208A30035
:103E5C00260A86008701230881004030A30026082B
:103E6C0086008701230881058830A3002608860078
:103E7C00870123088104200803194B2F0430A30069
:103E8C002508E03E86008701522F0430A300250848
:103E9C00593E860001308700230881062608080059
:103EAC002000C8010030C9008E2F2100E917200026
:103EBC00481422006108013A031D9A2F2000C814EF
:103ECC009A2F2100E9179A2F2100E9172000C41B13
:103EDC00762F44080F39593E8600013087007B2F1E
:103EEC0044080F39E03E860087010108DE005E08B9
:103EFC00DF005F0886008701811F9A2F5F0886000C
:103F0C008701011D9A2F0130DE005E08C8009A2F30
:103F1C0040081F39003A03195B2F013A0319672F28
:103F2C00033A03196A2F9A2F2100E91F0800483021
:103F3C00E7000030E800691402302000DE005E0863
:103F4C002100EA0008002200E601E70120006908D0
:103F5C00023A031DD32F08302100A00020006A0A6A
:103F6C00860087012100200881004830A000003025
:103F7C00A10020006A08023E86008701210020086B
:103F8C00C03F2108C13FC830A00020006A0886004D
:103F9C008701210020088100080021006B08200007
:103FAC004702031DDD2F21006A082000460203187A
:103FBC00E82F47082100EB01EB0720004608210001
:103FCC00EA01EA079431AE249F3148302100A00069
:103FDC000030A1006008023E860087012008C03F27
:103FEC002108C13FC830A000600886008701200866
:043FFC008100080038
:020000040001F9
:04000E0084CFCFDFED
:00000001FF
