:10000000803112280800DD34803120007F08DD00B7
:100010002700160803190E288931772120005D0872
:10002000FF0009009131F429CC30860001308700AF
:1000300020308400013085000C30FF0016001A00CB
:10004000FF0B1E282200D80108305802031863282D
:1000500058082100AF00B001AF35B00DAF35B00D7D
:100060002F08013EB1000030303DB20031082D07AD
:10007000860032082E3D8700403FB300413FB40068
:10008000423FB500433FB600220058082100B700A8
:100090000130B735FF3E031D492837352C3E860019
:1000A000013087003308C03F3408C13F3508C23FE4
:1000B0003608C33F0130AF002F082200D8070830B0
:1000C0005802031C2828D8010330580203180800DE
:1000D0005803FF3A2100AF000130AF35FF3E031D4A
:1000E0006D282F35183E2C3E860001308700403F9A
:1000F000B000413FB100423FB200433FB300220095
:100100005803FF3A2100B4000130B435FF3E031D0F
:1001100085283435143E2C3E860001308700403F50
:10012000B500413FB600423FB700433FB80030083A
:1001300035062200D4002100310836062200D50001
:100140002100320837062200D60021003308380685
:100150002200D7005803FF3A2100AF000130AF352D
:10016000FF3E031DAF282F35103E2C3E8600013088
:1001700087002200540801052100B000413122000F
:10018000550801052100B100413122005608010542
:100190002100B20041312200570801052100B300BF
:1001A00033082200D700210032082200D6002100A7
:1001B00031082200D500210030082200D400580365
:1001C000FF3A2100AF000130AF35FF3E031DE428A8
:1001D0002F35183E2C3E860001308700220054083F
:1001E00001062100B000413122005508010621001E
:1001F000B10041312200560801062100B200413110
:100200002200570801062100B30033082200D7005E
:10021000210032082200D600210031082200D5003A
:10022000210030082200D40058082100AF0001301E
:10023000AF35FF3E031D18292F35203E86000130C3
:100240008700403F2200D407413FD53D423FD63D85
:10025000433FD73D58082100AF00B001AF35B00D86
:10026000AF35B00D2F08213EB1000030303DB20057
:1002700031082D07860032082E3D8700403F2200BE
:10028000D407413FD53D423FD63D433FD73D58037C
:10029000FF3A2100AF000130AF35FF3E031D4C296E
:1002A0002F351C3E2C3E860001308700403F220047
:1002B000D407413FD53D423FD63D433FD73D58034C
:1002C000FF3A2100AF000130AF35FF3E031D642926
:1002D0002F35103E2C3E860001308700403FA000A5
:1002E000413FA100423FA200433FA3001A30B000AB
:1002F0003008A4009C311B248031210023082200F7
:10030000D300210022082200D2002100210822006F
:10031000D100210020082200D0005803FF3A21001C
:10032000AF000130AF35FF3E031D92292F35103E3F
:100330002C3E860001308700403FA000413FA100D5
:10034000423FA200433FA3001530B0003008A40094
:100350009C311B248031210023082200CF00210082
:1003600022082200CE00210021082200CD00210019
:1003700020082200CC0050084C062100AF002200CB
:1003800051084D062100B000220052084E062100FF
:10039000B100220053084F062100B20032082200AB
:1003A000CF00210031082200CE00210030082200B9
:1003B000CD0021002F082200CC005803FF3A210075
:1003C000AF000130AF35FF3E031DE2292F35103E4F
:1003D0002C3E860001308700403FA000413FA10035
:1003E000423FA200433FA3000730B0003008A40002
:1003F0009C311B248031210023082200D3002100DE
:1004000022082200D200210021082200D100210070
:1004100020082200D00050084C062100AF00220026
:1004200051084D062100B000220052084E0621005E
:10043000B100220053084F062100B200320822000A
:10044000CF00210031082200CE0021003008220018
:10045000CD0021002F082200CC004C0854072100B9
:10046000AF0022004D08553D2100B00022004E088B
:10047000563D2100B10022004F08573D2100B20037
:1004800022005803FF3A2100B3000130B335FF3E8C
:10049000031D462A33351C3E2C3E86000130870062
:1004A0002F08C03F3008C13F3108C23F3208C33F68
:1004B00022005803FF3A2100AF000130AF35FF3E64
:1004C000031D5E2A2F351C3E2C3E8600013087001E
:1004D000403FB000413FB100423FB200433FB30054
:1004E00022005803FF3A2100B4000130B435FF3E2A
:1004F000031D762A34350C3E2C3E860001308700E1
:10050000403FB007413FB13D423FB23D433FB33D65
:1005100022005803FF3A2100B5000130B535FF3EF7
:10052000031D8E2A35350C3E2C3E86000130870097
:100530003008C03F3108C13F3208C23F3308C33FD3
:1005400022005803FF3A07392100AF000130AF35D0
:10055000FF3E031DA72A2F352C3E86000130870061
:10056000403FA000413FA100423FA200433FA30003
:100570001E30B0003008A4009C311B2480312100C3
:1005800023082200D700210022082200D6002100E3
:1005900021082200D500210020082200D4005803A1
:1005A000FF3A07392100AF000130AF35FF3E031D90
:1005B000D52A2F352C3E860001308700403FA00011
:1005C000413FA100423FA200433FA3001330B000CF
:1005D0003008A4009C311B24803121002308220014
:1005E000D300210022082200D2002100210822008D
:1005F000D100210020082200D0005008540621001C
:10060000AF002200510855062100B0002200520818
:1006100056062100B1002200530857062100B200FF
:1006200032082200D300210031082200D20021002C
:1006300030082200D10021002F082200D0005803EA
:10064000FF3A07392100AF000130AF35FF3E031DEF
:10065000252B2F352C3E860001308700403FA0001F
:10066000413FA100423FA200433FA3000A30B00037
:100670003008A4009C311B24803121002308220073
:10068000D700210022082200D600210021082200E4
:10069000D500210020082200D40054085006210073
:1006A000AF002200550851062100B0002200560874
:1006B00052062100B1002200570853062100B20063
:1006C00032082200D300210031082200D20021008C
:1006D00030082200D10021002F082200D00058034A
:1006E000FF3A013E07392100AF000130AF35FF3E30
:1006F000031D762B2F352C3E860001308700403FAE
:10070000B000413FB100423FB200433FB30022007E
:100710005803FF3A07392100B4000130B435FF3ED9
:10072000031D8E2B34352C3E860001308700403F60
:10073000B500413FB600423FB700433FB800300824
:1007400035042200D4002100310836042200D500EF
:100750002100320837042200D60021003308380473
:100760002200D7005803FF3A023E07392100AF00AC
:100770000130AF35FF3E031DB92B2F352C3E8600CF
:10078000013087002200540801052100B0004131EA
:100790002200550801052100B10041312200560810
:1007A00001052100B2004131220057080105210056
:1007B000B30033082200D700210032082200D600FF
:1007C000210031082200D500210030082200D40089
:1007D0005803FF3A013E07392100AF000130AF3521
:1007E000FF3E031DEF2B2F352C3E86000130870086
:1007F000403FB000413FB100423FB200433FB30031
:1008000022005803FF3A07392100B4000130B43503
:10081000FF3E031D072C34352C3E86000130870037
:10082000403FB500413FB600423FB700433FB800EC
:10083000300835052200CC002100310836052200A1
:10084000CD002100320837052200CE0021003308F8
:1008500038052200CF0054084C042100AF002200CC
:1008600055084D042100B000220056084E04210016
:10087000B100220057084F042100B20032082200C4
:10088000D700210031082200D600210030082200C4
:10089000D50021002F082200D40050085407210061
:1008A000AF0022005108553D2100B000220052083F
:1008B000563D2100B10022005308573D2100B200EF
:1008C00022005803FF3A2100B3000130B335FF3E48
:1008D000031D662C33351C3E2C3E860001308700FC
:1008E0002F08810741313008813D41313108813D78
:1008F00041313208813D22005803FF3A2100AF0008
:100900000130AF35FF3E031D812C2F351C3E2C3EA0
:10091000860001308700403FB000413FB100423FB8
:10092000B200433FB30022005803FF3A2100B40055
:100930000130B435FF3E031D992C3435083E403E4E
:100940008600033087003008C03F3108C13F3208BD
:10095000C23F3308C33F22005803FF3A2100AF00D3
:100960000130AF35FF3E031DB12C2F350C3E2C3E20
:10097000860001308700403FB000413FB100423F58
:10098000B200433FB30022005803FF3A2100B400F5
:100990000130B435FF3E031DC92C3435143E403EB2
:1009A0008600033087003008C03F3108C13F32085D
:1009B000C23F3308C33F0130AF002F082200D807E1
:1009C0006428230067082100D800D901D809D90973
:1009D000D80A0319D90A22005E0821005807DA0054
:1009E00059080318590ADB005A082300A8002100FF
:1009F0005B082300A90066089A31BF2284312100D8
:100A00002508BD002608BE002708BF0023002908CE
:100A10002100A601A607230028082100A501A5079B
:100A20009B319723843121002508C0002608C1008E
:100A30002708C2008C318024843121003D08DF006A
:100A40003E08E0003F08E1005F08C0006008C10008
:100A50006108C20022005E082100D800D901D8092F
:100A6000D909D80A0319D90A2000650821005807B6
:100A7000DA0059080318590ADB00DA35DB0DDA35DC
:100A8000DB0DDA35DB0D5A08A5005B08A6009B31AB
:100A90009723843121002508BA002608BB002708C7
:100AA000BC009931BA21843121003A08BD003B08CD
:100AB000BE003C08BF008C318024843121003D08F9
:100AC000DC003E08DD003F08DE000030CA00963042
:100AD000CB004230CC0023002B082100A601A60742
:100AE00023002A082100A501A5079B319723843103
:100AF00021002508AD002608AE002708AF00003011
:100B0000AA000030AB003F30AC008A31DB228431D8
:100B100021002A08BA002B08BB002C08BC00993120
:100B2000BA21843121003A08BD003B08BE003C08D0
:100B3000BF005C08C0005D08C1005E08C2008C31C7
:100B40008024843121003D08CD003E08CE003F08BE
:100B5000CF009C31522484310318F92E23006608FB
:100B60009A31BF22843121002508BD002608BE002D
:100B70002708BF00230029082100A601A60723009B
:100B800028082100A501A5079B3197238431210066
:100B90002508C0002608C1002708C2008C31802427
:100BA000843121003D08DF003E08E0003F08E100FD
:100BB0005F08C0006008C1006108C20022005E0832
:100BC0002100D800D901D809D909D80A0319D90AAE
:100BD0002000650821005807DA0059080318590A4F
:100BE000DB00DA35DB0DDA35DB0DDA35DB0D5A08E3
:100BF000A5005B08A6009B319723843121002508BE
:100C0000BA002608BB002708BC009931BA218431FC
:100C100021003A08BD003B08BE003C08BF008C31F3
:100C20008024843121003D08DC003E08DD003F08BF
:100C3000DE000030CA007F30CB004330CC00230000
:100C40002B082100A601A60723002A082100A501E0
:100C5000A5079B319723843121002508AD00260884
:100C6000AE002708AF000030AA000030AB003F30D4
:100C7000AC008A31DB22843121002A08BA002B081B
:100C8000BB002C08BC009931BA21843121003A08FC
:100C9000BD003B08BE003C08BF005C08C0005D080A
:100CA000C1005E08C2008C318024843121003D08DF
:100CB000CD003E08CE003F08CF009C315224843145
:100CC000031CF92E230029082100A601A6072300F2
:100CD00028082100A501A5079B3197238431210015
:100CE0002508C0002608C1002708C20022005E08AF
:100CF0002100D800D901D809D909D80A0319D90A7D
:100D00002000650821005807DA0059080318590A1D
:100D1000DB00DA35DB0DDA35DB0DDA35DB0D5A08B1
:100D2000A5005B08A6009B3197238431210025088C
:100D3000BA002608BB002708BC009931BA218431CB
:100D400021003A08BD003B08BE003C08BF008C31C2
:100D50008024843121003D08DF003E08E0003F0888
:100D6000E1005F08C0006008C1006108C200230004
:100D70002B082100A601A60723002A082100A501AF
:100D8000A5079B319723843121002508AD00260853
:100D9000AE002708AF000030AA000030AB003F30A3
:100DA000AC008A31DB22843121002A08BA002B08EA
:100DB000BB002C08BC009931BA21843121003A08CB
:100DC000BD003B08BE003C08BF008C31802484314C
:100DD00021003D08CA003E08CB003F08CC009331FB
:100DE000F623843121004A08D80058082300E6077A
:100DF0002D2F230066082C072100D80023002D0882
:100E000003182D0A2100D9005908803AFF008130CB
:100E10007F02031D0D2F00305802031C112FFF30DD
:100E2000282F230066082C072100D80023002D0856
:100E300003182D0A2100D9005908803AFF0080309C
:100E40007F02031D252F4B30580203182D2F4B30E6
:100E50002100D80058082300E60022005E08210087
:100E6000D80058082000E50023002908AB01AB0793
:100E70002808AA01AA070630593E860001308700DB
:100E80006608C03F2C009200080010302100A50029
:100E900025082200DA0002302000DE000030DF00EA
:100EA00022005A082100A500A60125082000E00024
:100EB000210026082000E1009F319927873120007A
:100EC0005E082100A70027082300E8006808210029
:100ED000A500A60125082000DE002100260820002C
:100EE000DF000030E0004030E1009F31992787317A
:100EF00020005F082100AD01AD0720005E08210041
:100F0000AC01AC0702302000DE000030DF00210021
:100F10002D082000E101E10721002C082000E0015C
:100F2000E0079F319927873120005F082200E40104
:100F3000E40720005E082200E301E30700302600FA
:100F4000A3000030A2000030A1000030A00021006A
:100F5000AE01AE0A2300680821002E020318F52F07
:100F6000230068082100A5000130A535FF3E031DC0
:100F7000B52F2535FC3EA03E860003308700403F5C
:100F8000A600413FA700423FA800433FA9002E080A
:100F9000AA000130AA35FF3E031DCA2F2A35FC3EA8
:100FA000203E860003308700403FA607413FA73D13
:100FB000423FA83D433FA93D2E08AB000130AB3571
:100FC000FF3E031DDF2F2B35203E860003308700B8
:100FD0002608C03F2708C13F2808C23F2908C33F51
:100FE0000130A5002508AE07AA2F5230A50025081C
:100FF0002200D900E101E20108009031012008003F
:101000000034AB34053439346D34343403344B3468
:1010100000346C3400346F3400346E340034643483
:101020000034693400346B340034653400342034C7
:10103000003450340034723400346F3400346A3475
:1010400000346534003463340034743400340034C4
:1010500000340034003400340034003400340034F0
:1010600000340034003400340034003400340034E0
:101070000034343403344B340034313400343634E7
:1010800000340034003400340034003400340034C0
:1010900000340034003400340034003400340034B0
:1010A00000340034003400340034003400340034A0
:1010B0000034003400340034003400340034003490
:1010C0000034003400340034003400340034003480
:1010D0000034003400340034003409340234203445
:1010E0000034013401340034C0343234093404345F
:1010F000003400340234FF34FF34FF34003407344A
:1011000005340134023440340034013407340534EA
:101110008134023440340034013412340134003458
:1011200002340034003400340834D83404340A342F
:10113000F634003400340134023400340134103405
:101140004B34313436340034003400340034EF345E
:10115000BE34AD34DE3404340334093404342300A3
:10116000BA0174302100AC000030AD00AE01003097
:10117000AF000030B0009C318E243D008E10121163
:10118000FB302100B10031083D009005080021002E
:1011900012113D009301900198010E302100A10031
:1011A0009930A000A2012208031DE828200886002B
:1011B0002108870081010130A0070030A13D0130E6
:1011C0002000DE005E082100A20722080319D628AD
:1011D00016303D0091009F3097007B309200210037
:1011E000A301083023020318102923082000DE0081
:1011F0000130DE35FF3E031DF9285E35203E8600B6
:1012000087010030C03F0030C13FC23FC33F0130C3
:10121000DE005E082100A30708302302031CF52826
:101220003D000E1796010E120E133D00901D25294C
:10123000F7302000DE005E083D0090052100EB0144
:101240002300A201A301A401152901302000DE0022
:101250005E082200E90001302000DE005E08230065
:10126000BF00BB01BC01BA012100A301023023026F
:1012700003185B292308E33E8600870181012308C8
:10128000B23E86000130870081012308AE3E860011
:101290000130870081012308B03E860001308700BD
:1012A000810101302000DE005E082100A30702302A
:1012B0002302031C3A2928302000DE005E082100AA
:1012C000E30016303D00980040302000DE00003082
:1012D000DF005E08A2005F08A3000830A100843090
:1012E000DE005E08A000ED012100E60108002300F9
:1012F000B90101302000D8005808E6076608023A14
:101300000319E6010430230037020318CC2920001A
:10131000911EAD29230019082000D80002302300B7
:1013200037072000D900C0305907DA000630DB004B
:101330005B08F00066089931E821893120005A07DE
:10134000DC005C088600013087005808810001300D
:10135000D80058082300B707B90101302000D80091
:1013600058082300B90722303902031CBE29013076
:101370002000D80058082200E507222A9D1C822957
:1013800022005908573A031D222A01302000D800B4
:1013900058082200E007222A22005908573A031D64
:1013A000222A3D302000D8000630D9005908F0002C
:1013B00066089931E8218931C03E860001308700F6
:1013C00020005808810022005D082000D800063067
:1013D000D9005908F00066089931E82189312000C8
:1013E000DA005A0AC03E86000130870058088100A2
:1013F0000630D8005808F00066089931E821893194
:10140000C03E2000D9005908FC000630D80058081A
:10141000F00066089931E82189312000D900590A85
:10142000C03EDA005A08FD007C08F6000130F700E3
:101430007D08F8000130F9000530D8005808FA009E
:101440009531952523009D139D17B701270096011F
:1014500008002100680886008701413FA10021089B
:101460002000E000E101610823002402031D3C2A62
:1014700020006008230023020318442A23082000C8
:10148000E00060082100A1000330A03E860001308A
:101490008700210021082000E000E101E009E109C6
:1014A000E00A0319E10A403F60072300A300413F1F
:1014B0002000613D2300A4002100A001210820029A
:1014C00003187C2A2008483E860087010108200076
:1014D000E0002300200886008701200060088100CA
:1014E0000130E00060082300A00701302000E00088
:1014F00060082100A0075E2A0330A03E860001306C
:101500008700160001040319B12A08302000E0000A
:101510006A0A86008701600881004830E0000030D8
:10152000E1006A08023E860087016008C03F61084A
:10153000C13F2100680886008701011BA82AC83026
:101540002000E0006A08860087016008810008002A
:1015500088302000E0006A0886008701600881006A
:10156000080008302000E0006A0A86008701600851
:1015700081004030E0000030E1006A08023E860051
:1015800087016008C03F6108C13F8430E0006A08FD
:101590008600870160088100230025080319D32AEB
:1015A00025088A31D22AA2132000E708031D08006B
:1015B00090319420080021002A08B0002B08B100C7
:1015C0002C08B2000310310D320DB3003308B40003
:1015D000B408031DF22A0030AA000030AB0000302E
:1015E000AC0008002D08B0002E08B1002F08B20092
:1015F0000310310D320DB3003308B900B908031DD3
:10160000082B0030AA000030AB000030AC0008000E
:1016100039087B3EB0003008B4072A08B0002B0818
:10162000B1002C08B2001030B236B10CB00C890BEE
:10163000142B3008B3003308B9002D08B0002E0871
:10164000B1002F08B2001030B236B10CB00C890BCB
:10165000242B3008B3003308B9068030B0003008BE
:10166000B905AB17AE17FF30AD05FF30AE05003042
:10167000AF050030B5000030B6000030B7000730CD
:10168000B0003008B8002A1C4B2B2D08B5072E08D7
:10169000B63D2F08B73D0130AC36AB0CAA0C890B18
:1016A0004C2B0130AD35AE0DAF0D890B522B0130F7
:1016B000B802031D432B0930B0003008B8002A1CC3
:1016C000672B2D08B5072E08B63D2F08B73D013012
:1016D000AC36AB0CAA0C890B682B0130B736B60CB4
:1016E000B50C890B6E2B0130B802031D5F2B35083A
:1016F000A0003608A1003708A2003408B000300866
:10170000A3003908B1003108A4009031292021003C
:101710002008AA002108AB002208AC000800210024
:10172000E608031DA32B3D008E01920116309100A7
:101730009F3097007B3092008E19A02B8E159C2B2A
:101740002100E601E60A6608013A031DB32B3D00BD
:101750008E1AB32B9001920112141216023021003E
:10176000BD003D08E6003D001019121DC02BFB30E6
:101770002100BD003D083D0090058831AF208B3130
:101780003D008E1CC62B2000121108001018121CE0
:10179000D62B8831C7208B3104302100BD003D0895
:1017A000E600FE30BD003D083D009005101A121EF7
:1017B000E22B9A3173228B31EF302100BD003D08BE
:1017C0003D009005101F052C121FF32B73302100D4
:1017D000AC000030AD00AE010130AF000030B00011
:1017E0009C318E248B31BF302100BD003D083D006F
:1017F000900522006A080319FF2B0130EA02EA086B
:10180000031D052C903194208B313D00901A921EBF
:101810000C2C9B3172238B313D009018921C1F2C95
:10182000FF302100AC007F30AD00AE010130AF00D1
:101830000030B0009C318E248B313D009301043088
:10184000210066020318272C2000121108003D0019
:10185000921D7D2C2100BF01762C0F082100BD00B8
:101860003D08EE006E0CBD00BD0C3D0C0F39BE00F6
:101870003E082000E900F7302100BD003D083D0092
:10188000900521006E19482C20006908B03E4B2CB1
:1018900020006908AE3E860001308700010801394A
:1018A0002100BD000130BD0601083D06FE393D06A0
:1018B00081002000E908031D612C913103218B3147
:1018C000712C72302100AC000030AD00EE30BD0054
:1018D0003D08AE000030AF000030B0009C318E24D7
:1018E0008B3101302100BD003D08BF0704303F02AD
:1018F00003187D2C3D0090192D2C2000121108009A
:1019000021003D08C3003E08C4003F08C500031085
:10191000440D450DC6004608C9004008C3004108F3
:10192000C4004208C5000310440D450DC60046081A
:10193000C80049080319A82C480849020318AF2C0D
:101940004903FF3A4807C30019304302031CAF2C78
:101950004008BD004108BE004208BF00080048081A
:1019600003190800490848020318BE2C4803FF3A2F
:101970004907C30019304302031808000630C300AA
:101980004308C700BF1BC717C21B4717BE17FF304E
:10199000BD05FF30BE050030BF05C117FF30C005D3
:1019A000FF30C1050030C205480849020318FA2C6F
:1019B0000130C035C10DC20D890BD92C0130C802D0
:1019C000480849060319F52C0130C70247080739B2
:1019D0000319F52CD82C0130BF36BE0CBD0C890B79
:1019E000EC2C0130C3004308C90749084806031915
:1019F0001F2DEB2C4908480203181F2D0130BD355F
:101A0000BE0DBF0D890BFF2C0130C90248084906E5
:101A100003191B2D0130C7024708073903191B2D75
:101A2000FE2C0130C236C10CC00C890B122D0130C6
:101A3000C3004308C80749084806031D112DC71FE6
:101A4000312DFF30BD06FF30BE06FF30BF0601302E
:101A5000BD07003003180130BE0700300318013005
:101A6000BF07471F432DFF30C006FF30C106FF30C0
:101A7000C2060130C007003003180130C107003032
:101A800003180130C207C7013D08C0073E08C13D29
:101A90003F08C23DC21F5E2DFF30C006FF30C106A9
:101AA000FF30C2060130C007003003180130C10703
:101AB000003003180130C207C701C70A4008A00060
:101AC0004108A1004208A2004908C3004308A3003E
:101AD0004708C4004408A4009031292021002008B0
:101AE000BD002108BE002208BF00080020004208F7
:101AF000013A031D8D2D40081F390038031D8D2D1F
:101B00002100EB1720004108033A031D8B2D220012
:101B1000E801E80A8D2D2200E80120004208031D9B
:101B2000080040081F39023A031D080044080F3915
:101B3000003A0319080044080F392100B1000230AF
:101B40003102031808006608203A031D0800EB174D
:101B50002000C41BBB2D44080F39B23E8600013063
:101B6000870001082100B1003108B60020004408B8
:101B70000F39B03ECA2D200044080F39E33E8600DD
:101B8000870101082100B1003108B6002000440897
:101B90000F39AE3E86000130870001082100B100F8
:101BA0003108B5003518D92DFB30B1003108B60524
:101BB000DA2D36152000C41BE82D21003608B100AF
:101BC000200044080F39B23E860001308700F12D15
:101BD00021003608B100200044080F39E33E86009A
:101BE000870121003108810020004108033A031DCC
:101BF000162E2100360886008701811F0D2E200039
:101C0000C41B062E44080F39B03E092E44080F3974
:101C1000AE3E860001308700811484302100B1007F
:101C2000360886008701310881040800043021004D
:101C3000B1003108B606360886008701811F3B2EA9
:101C40007F30B100360886008701310881053608EB
:101C50008600870101170530AC000030AD00360862
:101C6000B1003108AE000130AF000030B0009C314F
:101C70008E248D31402E2100360886008701011701
:101C800004302100B1003108B606B5184C2E3608D4
:101C900086008701811F722E2000C41B532E44082A
:101CA0000F39B03E562E44080F39AE3E8600013043
:101CB000870081103B302100B10036088600870183
:101CC000310881050530AC000030AD003608B100A8
:101CD0003108AE000130AF000030B0009C318E24DE
:101CE0008D317A2E3B302100B10036088600870105
:101CF00031088105200044080F39983E2100B100C9
:101D0000B2010E30B23D3108B3003208B400FE30EB
:101D1000B1003308860034088700310881050800C7
:101D20002100C400E42F033022005C020318D02FEE
:101D300021004408023E8600023087006708220026
:101D40005C072100BE00BF01BF0D03303E0520002F
:101D5000DE00003021003F052000DF002D30E000D4
:101D60000030E100903102208E313C302100C00073
:101D70002330C10020005E082100400784002000BD
:101D80005F082100413D85002D30FF0016001A003C
:101D9000FF0BC62E0130BE003E082200DC075908AA
:101DA000523A031DD02F9231F0228E31D02F2100D4
:101DB000E7012200DC0152302100CC2F2100440831
:101DC000A2000230A3009F30A4008830A5000C3090
:101DD000BE003E08A6009631BD268E31FD2FD02FC5
:101DE00021004408023E86000230870016000104EC
:101DF0000319952F4408023E860002308700E03028
:101E00008400013085000630FF0016001A00FF0B29
:101E1000052F00302300610280300319600203188F
:101E2000152F8030E0000030E10000306102FB300F
:101E3000031960020318272F00306102E1300319F3
:101E40006002031C272FE030E0000030E100013089
:101E50006102C23003196002031C322FC130E0005E
:101E60000130E10000306102FB3003196002031809
:101E7000522F60082100BE00230061082100BF002E
:101E8000C001C1010130BE35BF0DC00DC10D890BB0
:101E9000432F1230BE35BF0DC00DC10D890B4A2F27
:101EA0001730632F60082100BE0023006108210065
:101EB000BF00C001C1011230BE35BF0DC00DC10D44
:101EC000890B5C2F07303E042300D800003021002E
:101ED0003F042300D9000330210040042300DA002E
:101EE0000030210041042300DB0061082000DF01F5
:101EF000DF07230060082000DE01DE07FD30E00080
:101F00002F30E1009D3150258E3120005E08FF3AD0
:101F1000013E2100BE003E082000EF0023006208C1
:101F20002100BE003E082300E70021004408A20073
:101F30000230A300E030A4000130A5000630BE004E
:101F40003E08A6009631BD268E31FD2F21004408A3
:101F5000023E8600023087000108313A0030031942
:101F60000130BE00BE0E22000C0821003E06EF39F3
:101F70003E0622008C0021004408023E860002300A
:101F800087000108313A0319C72F4430C82F523057
:101F9000C2000030C3004208BE003E082200D90043
:101FA00021004408A2000230A3005930A4000130EF
:101FB000A5000D30BE003E08A6009631BD268E312C
:101FC0002200E001E501FD2F2100440886000230D7
:101FD00087000108413A0319D72E023A0319F02E5F
:101FE000063A0319A62F0C3A0319DE2E1A3A0319E2
:101FF000EF2E043A0319932EFD2F22008C160800B1
:10200000080008002100A001A10120005E1C0F288B
:1020100060082100A007200061082100A13D0130D7
:102020002000E035E10D890B11280130DF36DE0C90
:10203000890B16285F085E04031D0528210021086E
:102040002000DF01DF07210020082000DE01DE077D
:102050000800210023080319322822082104200443
:10206000031D45280030A0000030A1000030A20070
:10207000080001302000DE005E082100A3070130C7
:10208000A236A10CA00C890B4028FE3022050319B2
:102090006028392801302000DE005E082100A307F7
:1020A0000130A007003003180130A10700300318E9
:1020B0000130A2070130A236A10CA00C890B5B28CD
:1020C000FF30220503196D284A280130A302013090
:1020D000A035A10DA20D890B6828A11F6528231822
:1020E0007728FF30A0057F30A105FF30A20503103F
:1020F000A30C23082000DE00DF01E0011030DE35F4
:10210000DF0DE00D890B7F285E082100A004200070
:102110005F082100A104200060082100A204240817
:1021200003190800A21708002200E908031D08008F
:1021300001302000DE005E082200E9002300BF0815
:10214000031D080001302000DE005E082300BF00F0
:1021500020006808023A031DBD282100630A86009A
:1021600087018101C8302000DE002100630886005D
:10217000870120005E08810008006808013A031DFD
:1021800008002300B40108302000DE002100680AA6
:102190008600870120005E0881004030DE000030AC
:1021A000DF0021006808023E8600870120005E08EB
:1021B000C03F5F08C13F8430DE0021006808860010
:1021C000870120005E0881002300B401B40A0830B2
:1021D0002000DE006A0A860087015E088100403028
:1021E000DE000030DF006A08023E860087015E08DC
:1021F000C03F5F08C13F8030DE006A08860087016B
:102200005E088100080028302100B900390822004A
:10221000EA0021006E08FD39031D6C296E363F3936
:10222000B9000130B935FF3E031D12293935203E72
:10223000BA003A08E8006808B90039082000EA0046
:1022400004302100B90039082000EA06210068089E
:1022500086008701010C890C0F390D3A031D69298D
:10226000BC0108303C0203185A296808023E860067
:102270008701403FB900413FBA00390886003A085B
:1022800087000108BB003C08403E860087013B08F0
:1022900081006808023E86008701013081074131D4
:1022A0000318810A0130B9003908BC0708303C0224
:1022B000031C35294030B9000030BA006808023EDE
:1022C000860087013908C03F3A08C13F9D310D257E
:1022D00008009B31E8230800FD3021006E05B9009D
:1022E0003908043A031D08009F31332708002030C5
:1022F00021006602031C08003D008E180800230020
:102300003E08031991293E0886008701010D010D41
:1023100001392100C500C6014508C9004608CA00A8
:1023200094292100C901CA014A084904031DAF29A3
:10233000A0308E31902691312100A001A030C5003F
:102340004508A1004030C6004608A20001309D317A
:10235000E22591312100C70047082300BE0021007B
:102360006F0822006F060319080023003D080319B7
:10237000C7293D0886008701010D010D01392100A3
:10238000C500C6014508CB004608CC00CA2921007B
:10239000CB01CC014C084B04031D0800A001A00A8E
:1023A0000F30C50045082000DE0022006F089A317A
:1023B0000B229131203E2100C6004608A1000F30BB
:1023C000C7004708A20001309D31E2252100C80066
:1023D00048082300BD0022006F0A03392100C50010
:1023E00045082200EF0008003C30840023308500BF
:1023F000B430FE000030FF009931CF2191316230BE
:102400008400003085000D30FE000030FF0099315F
:10241000CF219131E3308400003085000D30FE0083
:102420000030FF009931CF219131663084000130B6
:1024300085000A30FE000030FF009931CF21913134
:10244000A0308400013085002C30FE000030FF00F9
:102450009931CF21913160308400023085001030F5
:10246000FE000030FF009931CF21913120308400EF
:10247000033085003830FE000030FF009931CF2155
:102480009131803103209131EF00DB3084009930AD
:10249000850059308600013087000030FF000D3084
:1024A0009931C3219131A53084009A308500CC3018
:1024B0008600013087000030FF001A309931C321B7
:1024C0009131313084009B308500A030860003308C
:1024D00087000030FF0020309931C32120009A315D
:1024E0005C2A20004008803A031D0800C030DE004E
:1024F0005E082100EB00E32A8D302100E9008830DE
:10250000EA001230EC000030ED00080004308400D6
:10251000883085002000420884070318850A003FA0
:102520002100E9008830EA006A082000DF0021006D
:1025300069082000DE0002305E0784005F0803188F
:102540005F0A85000008E00060082100EC006A08CE
:102550002000DF00210069082000DE0003305E0754
:1025600084005F0803185F0A85000008E000600827
:102570002100ED0008000330200042020318DD2A8C
:102580000130840088308500420884070318850ADA
:10259000003F2100E9008830EA00690884006A08E9
:1025A000850000082000DE00DF015E082100EC004D
:1025B00020005F082100ED0008002100EB01080069
:1025C0002100EB01080020004308013A03197C2A8E
:1025D000033A0319862A013A0319BB2AE02A0800A4
:1025E00021006708B900BA0139082000DE00210087
:1025F0003A082000DF002D30E0000030E10090318B
:10260000022092313C302100BB002330BC0020006E
:102610005E0821003B07AD0020005F0821003C3D23
:10262000AE0080311420923121006708B900BA0150
:1026300039082000DE0021003A082000DF002D309C
:10264000E0000030E1009031022092313C30210066
:10265000BB002330BC0020005E0821003B07860041
:1026600020005F0821003C3D87000108BD003D08B7
:102670002200DD0021006708B900BA0139082000F6
:10268000DE0021003A082000DF002D30E00000309D
:10269000E1009031022092313C302100BB00233018
:1026A000BC0020005E0821003B07A20020005F085C
:1026B00021003C3DA300963128262100670A0339FA
:1026C000B9003908E7002200E101E20120006F08AB
:1026D000950057302100B90039082200D900013097
:1026E000DC0208002100EB170E30B3009930B20075
:1026F000B4013408031D8C2B320886003308870090
:1027000081010130B2070030B33D0130B100310822
:10271000B407340803197C2B00302000DE000030A1
:10272000DF002030E0000030E10020309B315123F9
:1027300093313D000E172100B50102303502031818
:10274000B52B3508AE3E8600013087008101350883
:10275000B03E86000130870081010130B1003108B0
:10276000B50702303502031CA12B00302000DE002B
:102770000030DF000130E0000030E1006E309B31BE
:10278000512393313D000E1328302100B100310850
:10279000E3002030B1003108E8006808B1003108DA
:1027A0002000EA0042082100B10031082000ED00BD
:1027B000ED08031DE12B10302100B1003108E600C7
:1027C000080001302100AC000030AD006D30B100D8
:1027D0003108AE000130AF000030B0009C318E24D3
:1027E00020302100B1003108E600080021004A082D
:1027F000CE004B08CF004C08D00003104F0D500DF9
:10280000D1005108D700D708031D0F2C0030CD0090
:102810000030CC000030CB000030CA0008004A086D
:10282000CE004B08CF004C08D0001730D036CF0C6C
:10283000CE0C890B162C4E08D1005108D200CB17B4
:10284000FF30CA05FF30CB050030CC054A08D30065
:102850004B08D4004C08D500D6018E30D702D71FC4
:102860004D2C5708803A8F3E03183F2C0030CD0086
:102870000030CC000030CB000030CA00080001302E
:10288000D636D50CD40CD30C890B402C0130CE009D
:102890004E08D7070319662C3F2C18305702031C2B
:1028A000632C0030CD000030CC000030CB00003075
:1028B000CA0008000130D335D40DD50DD60D890BD3
:1028C0005B2C0130D702D708031D5A2C520803197C
:1028D000742CD309D409D509D609D30A0319D40A0B
:1028E0000319D50A0319D60A5608CD005508CC009D
:1028F0005408CB005308CA0008003D000E12210006
:10290000EB1BBF2C2300A21F962C02302100A2003B
:1029100022082000E8002300BC08031D912C9E31F2
:1029200083262300BF012200E901080008302100AE
:10293000A20020006A0A8600870121002208810087
:102940004030A2000030A30020006A08023E86004A
:10295000870121002208C03F2308C13F8C30A2001C
:1029600020006A0886008701210022088100843047
:10297000A200630886008701220881000800200069
:10298000C01FD62CE801E80A2300BB08031DCB2C8E
:102990009E31832694312300BF012200E9012000EB
:1029A000E708031D08009031942008000230210040
:1029B000A20022082000E80008302100A200200028
:1029C0006A0A860087012100220881004030A200A7
:1029D0000030A30020006A08023E86008701210023
:1029E0002208C03F2308C13F8430A20020006A08AB
:1029F000860087012100220881002300BF012200F8
:102A0000E9012000E708031D080090319420080028
:102A100008302000DE005E08E000003021006D027A
:102A2000083003196C020318282D6C082000DE0002
:102A30005E08E000EC08031D202DEC01EC0A282DB7
:102A40006C08013A031D282D0230DE005E08EC0000
:102A50000330E93E8600870120006008DE00DF01C8
:102A6000DE09DF09DE0A0319DF0A403F5E072100A5
:102A7000EC00413F20005F3D2100ED002000600898
:102A8000DE002100630A8600870120005E088100C5
:102A90004830DE005E082200ED0021006B1C6E2D28
:102AA000902D2100690884006A0885000008200034
:102AB000DE0022006D088600870120005E0881008C
:102AC00001302100E9070030EA3D01302000DE003E
:102AD0005E082200ED0701302000E0022000E0083F
:102AE00003190800512D2100690884006A08850037
:102AF00000082000DE0022006D088600870120000B
:102B00005E08810001302100E9070030EA3D013014
:102B10002000DE005E082200ED0701302000E00208
:102B20002000E00803190800732D7A082000D00067
:102B3000D10121006F082000D200D3015208F0001B
:102B40005308F1000F30F2000030F3009A31F72201
:102B50009531200050087007D4005108713DD50010
:102B60005408023ED6000030553DD7005708803A41
:102B7000FF0080307F02031DBF2D40305602031836
:102B80000800760886007708870001082000D0003A
:102B90000F30D1005108F00021006F089931E82171
:102BA0009531203E860002308700200050088100C9
:102BB000210065082000D0000F30D1005108F0003E
:102BC00021006F089931E82195312000D200520A86
:102BD000203E86000230870050088100FB017A0801
:102BE0007B0203181F2E7908D1007808D0007B08DB
:102BF0005007840051080318510A85000008D200CC
:102C000021006F082000D300D4015308F0005408BD
:102C1000F1000F30F2000030F3009A31F7229531C5
:102C200070087B07023E203E8600023087002000AD
:102C3000520881000130D0005008FB07EF2D210021
:102C40006F0A03392000D00050082100EF0008006F
:102C50008B1348302100A40024082200EB009030A0
:102C60002100A40024082200EC00D830E600013046
:102C7000E70002302100A40024082200EE00973172
:102C80005427963121002208213E2200E600003020
:102C90002100233D2200E70003302100A400240886
:102CA0002200EE0097315427963144302200E6008E
:102CB0000330E70005302100A40024082200EE00C4
:102CC00097315427963121002208013E2200E60068
:102CD00000302100233D2200E70008302100A4003D
:102CE00024082200EE00973154279631403022000C
:102CF000E6000330E700EE01EE0A973154279631E3
:102D000050302200EC002100A40024082200EB0037
:102D10002030E6000330E700230068082100A4000B
:102D200024082200EE0097315427D83022008E006C
:102D30008B17FD30230058052100A400FF3023002D
:102D400059052100A500FF3023005A052100A600E7
:102D5000FF3023005B052100A70027082300DB00CC
:102D6000210026082300DA00210025082300D900CD
:102D7000210024082300D800080021002608A7000D
:102D8000A8016F08A900AA0129082000DE0021007F
:102D90002A082000DF000F30E0000030E100903111
:102DA000022096312100270820005E072100AB0099
:102DB000280820005F3D2100AC002B08023EAD003A
:102DC00000302C3DAE002E08803AFF0080307F029C
:102DD000031DEC2E40302D020318080021002208AC
:102DE0008600230887000108A7000F30A8002808E4
:102DF0002000DE0021006F089A310B229631203E20
:102E00008600023087002100270881006508A7009E
:102E10000F30A80028082000DE0021006F089A313A
:102E20000B2296312100A900290A203E860002309B
:102E3000870027088100AF0126082F0203184E2FB4
:102E40002508A8002408A7002F08270784002808C1
:102E50000318280A85000008A9006F08AA00AB0122
:102E60002A082000DE0021002B082000DF000F30A0
:102E7000E0000030E10090310220963120005E0831
:102E800021002F07023E203E8600023087002908DD
:102E900081000130A7002708AF071C2F6F0A0339F4
:102EA000A7002708EF0008002200660886006708D0
:102EB000870048308E01011890308E0048308E0116
:102EC000811890308E0048308E01011990308E00AC
:102ED00048308E01811990308E0048308E01011AE1
:102EE00090308E0048308E01811A90308E0048302C
:102EF0008E01011B90308E0048308E01811B903076
:102F00008E00413148308E01011890308E004830DB
:102F10008E01811890308E0048308E01011990305A
:102F20008E0048308E01811990308E0048308E011D
:102F3000011A90308E0048308E01811A90308E0038
:102F400048308E01011B90308E0048308E01811B6D
:102F500090308E00413148308E01011890308E0043
:102F600048308E01811890308E0048308E01011952
:102F700090308E0048308E01811990308E0048309C
:102F80008E01011A90308E0048308E01811A9030E7
:102F90008E0048308E01011B90308E0048308E012B
:102FA000811B90308E00413148308E0101189030E5
:102FB0008E0048308E01811890308E0048308E018E
:102FC000011990308E0048308E01811990308E00AA
:102FD00048308E01011A90308E0048308E01811ADF
:102FE00090308E0048308E01011B90308E006B08AF
:102FF0008E01811B6C088E004131EE0B592F0800A9
:103000009E31F92E9E31FC2E9F31322F9E31FC2EA7
:103010009F31322F9E31E22E9E31E92E9F311A2FA1
:103020009E31EF2E9E31EC2E9E31FF2E9F310B2FC5
:043030009F31322F6B
:10336E0008000800080021003C083B043A04031939
:10337E0008008030BC060800FE0012001E0001305E
:10338E00FE020030FF3B7F087E0403190034C4297F
:10339E006400800101310130FE020030FF3B7F08E6
:1033AE007E0403190034D02949340034003400342B
:1033BE00003400340034003400340034003440341F
:1033CE000034F200F301721CF0297008F10071084C
:1033DE00F3070310F00D0310F20CF208031DEA2997
:1033EE00730808002300B7011E169D179E131F12A7
:1033FE009F158D12270094178B1596018B1723009E
:10340E001D16FF30990008002000E100E001611C4C
:10341E00142A5E08DF005F08E0070310DE0D0310BC
:10342E00E10CE108031D0E2A6008080021008C1231
:10343E0022008C169A3145229A319A31DB229A312A
:10344E009A3130229A319931F9219A3187314527B3
:10345E0008002100951295110730950420006F0881
:10346E00950021008E130E130E128E11D8302200ED
:10347E008E0021000C1222000C16080021000E15E1
:10348E001D08833918389D001D149E131E088F3990
:10349E0060389E00FC309E058F309F058F302000D7
:1034AE00DE005E082300E70008009A318C229A3174
:1034BE008B318F239A310B1D672A9C31CD249A3183
:1034CE0022005908503A031D6F2A9231F0229A3188
:1034DE00913177219A315F2A3D001215EF3021008C
:1034EE00B10031083D0090058E142300BA01BA0ACE
:1034FE0075302100AC000030AD00AE010030AF00E1
:10350E000030B0009C318E24080023008C018D0108
:10351E0004308E0021009801FC3099009030270075
:10352E009B002300BE01BD012200EF012100EF012F
:10353E009A311D229A318831C720080098342F34D1
:10354E008A3442349134443437347134CF34FB34BA
:10355E00C034B534073400347B340534723401344E
:10356E00003400345E3401348F34003400340034BF
:10357E002000E10061082100A800A901AA01280885
:10358E00A0002908A1002A08A2008E30AB002B084B
:10359E00A300A4019031292021002008A5002108B4
:1035AE00A6002208A700080021008E162C00930109
:1035BE00FF3020009B00C0302C009300E63023002B
:1035CE00E6002C0092009101200091101C08FC399D
:1035DE0001389C001C1521008E122C0013170800B8
:1035EE00F401F501701CFF2A7208F4077308F53D0B
:1035FE000130F235F30D890B002B0130F136F00C52
:10360E00890B052B71087004031DF92A7508F10149
:10361E00F1077408F001F00708001E302100A90020
:10362E0029082000E10001309B31BE239B3121008F
:10363E00A001A030A9002908A1004030AA002A0844
:10364E00A20001309D31E2252100AB002B082300A2
:10365E00BE0008000034003400340034003400345E
:10366E0000344034AA34AA34AA342A340034003444
:10367E0000342034993499349934193455345534EE
:10368E005534153492342434493412340034003411
:10369E00003410342100A1002108A0002008A2004F
:1036AE0001302000E0020030E13BFF306106031DD7
:1036BE00622BFF3060060319080020005E0821000F
:1036CE00A000220886008701200881000130A0009A
:1036DE002008A207572B3D00181C902B21006808CC
:1036EE00860087010108803A031D8E2B6308860031
:1036FE0087010108843A031D8E2B8C302000DE00DA
:10370E00210068088600870120005E0881003D00C8
:10371E001810DF302000DE005E083D009005080026
:10372E002000E1012100A61FA42BA509A609A50AC8
:10373E000319A60A2000E101E10A21002508A000D4
:10374E002608A100A2018E30A8002808A3002000A0
:10375E0061082100A9002908A40090312920210028
:10376E002008A5002108A6002208A70008002100B5
:10377E00A8002000611DC92BDE01210028089D3103
:10378E0095259B312000E11CD22BDE01DE0A2100A3
:10379E0028089D31952521002808983EA400A501F2
:1037AE000E30A53D2408A6002508A70020006108BC
:1037BE002100A4002608860027088700240881001F
:1037CE00080020006808023A031DF02B8A312922D6
:1037DE0008002000E8012300B408031D182C08304F
:1037EE002100A20020006A0A86008701210022081B
:1037FE0081004030A2000030A30020006A08023E83
:10380E008600870121002208C03F2308C13F8C306B
:10381E00A20020006A08860087012100220881008C
:10382E0008002300B401080021002008A50021088B
:10383E00A6002208A7002308A8002403FF3A203E72
:10384E00890A2E2C0310A80CA70CA60CA50CFF3E63
:10385E00031D292C2008A9002108AA002208AB006C
:10386E002308AC00240A3F2CA935AA0DAB0DAC0DD4
:10387E00890B3B2C2908A5042A08A6042B08A704AB
:10388E002C08A8042808A3002708A2002608A100D7
:10389E002508A00008002100CC1F692C4A09D00081
:1038AE004B09D1004C09D200D00A0319D10A0319D1
:1038BE00D20A00305007CA000030513DCB00803094
:1038CE00523DCC00CF1F7F2C4D09D0004E09D100A8
:1038DE004F09D200D00A0319D10A0319D20A0030B7
:1038EE005007CD000030513DCE008030523DCF000C
:1038FE008030CC068030CF064F084C02031D0800E6
:10390E004E084B02031D08004D084A020800A42C65
:10391E009931B92108009931B72108009931B821A0
:10392E0008009B31142308008031022008008731E3
:10393E00FD27080090310020080021002D08003AD4
:10394E000319AD2C7F3A0319C72CCC2C2C08013A45
:10395E000319982C033A03199B2C013A03199E2C38
:10396E00063A0319CC2C773A0319CC2C013A0319D9
:10397E008F2C073A0319952C013A0319922CCC2C53
:10398E002C08FF3A0319A12CCC2C080020006F083C
:10399E002100E2006208200095070B112200590851
:1039AE00573A031DF82C0830593E86000130870027
:1039BE000130810741310318810A7F31403F630690
:1039CE00031DEB2C413F6406031DF82C5C08031904
:1039DE00F22C5030F32C52302100E200620822000B
:1039EE00D90001302100E20062082300B807031D50
:1039FE00080022008C1221001C08E200620822003E
:103A0E00DE0021009D148431E12408002000EC0129
:103A1E00E7012300BB01BC01B4012000E8017F30A7
:103A2E002100B8006308860087013808810504303C
:103A3E00B8003808E3067F30B800630886008701B7
:103A4E00380881050430B8003808E3067F30B80026
:103A5E0020006A0886008701210038088105EB01E5
:103A6E00EC01ED012300A201A301A4019E31DA268F
:103A7E009D3103302100AC000030AD00AE010030AE
:103A8E00AF000030B0009C318E249D3194317D24E6
:103A9E0008002100A201A30120005F085E040319A3
:103AAE008A2D2100A101A10A2000DF1B6A2D013001
:103ABE002000DE35DF0D890B602D01302100A000C6
:103ACE002008A1075B2D01302100A235A30D890B23
:103ADE006C2D20005F086102031D772D5E086002C9
:103AEE00031C7F2D5E08E0025F08E13B21002214DB
:103AFE0001302000DF36DE0C890B812D01302100D4
:103B0E00A102031D6A2D210023082000DF01DF071B
:103B1E00210022082000DE01DE0708002000DF0061
:103B2E0020302100A00020082000E0005E082100C7
:103B3E00A0000130A035890BA12D20005F082100C7
:103B4E00A1000130A135FF3E031DA92D213520070F
:103B5E00A2000130A235FF3E031DB12D2235A30078
:103B6E0023082000E0076008860087018113DE0825
:103B7E00031DCB2D60082100A00020005F08B23E7F
:103B8E00860001308700D42D200060082100A0009F
:103B9E0020005F08E33E8600870121002008810097
:103BAE00200060088600870101136008043E86002D
:103BBE008701011708002100A50020080319EC2D2C
:103BCE002508E33E86008701F12D2508B23E8600CA
:103BDE00013087000108A3002308A600A608031DD4
:103BEE00FA2D003008002108A3000230A400260898
:103BFE00023E860087012308C03F2408C13F2208E9
:103C0E00A300260A86008701230881004030A30006
:103C1E00260886008701230881058830A300260820
:103C2E00860087012308810420080319252E0430FD
:103C3E00A3002508E33E860087012C2E0430A30046
:103C4E002508B23E8600013087002308810626082B
:103C5E0008002000C8010030C900682E2100EB17B3
:103C6E002000481422006808013A031D742E20001B
:103C7E00C814742E2100EB17742E2100EB172000B0
:103C8E00C41B502E44080F39B23E86000130870007
:103C9E00552E44080F39E33E860087010108DE00E9
:103CAE005E08DF005F0886008701811F742E5F08A3
:103CBE0086008701011D742E0130DE005E08C800EB
:103CCE00742E40081F39003A0319352E013A031994
:103CDE00412E033A0319442E742E2100EB1F0800C7
:103CEE004830E9000030EA006B1402302000DE009C
:103CFE005E082100EC0008002300BB01BC0120007F
:103D0E006808023A031DAD2E08302100A0002000E5
:103D1E006A0A860087012100200881004830A00031
:103D2E000030A10020006A08023E860087012100B3
:103D3E002008C03F2108C13FC830A00020006A08FB
:103D4E0086008701210020088100080021006D08EF
:103D5E0020004702031DB72E21006C0820004602EA
:103D6E000318C22E47082100ED01ED07200046087A
:103D7E002100EC01EC07953108259E3148302100D9
:103D8E00A0000030A1006308023E860087012008D3
:103D9E00C03F2108C13FC830A000630886008701DC
:103DAE002008810008002000400E890C0339003ADB
:103DBE00031D0800272F2100EB170830B700370826
:103DCE00E600080092317122080093317223080038
:103DDE006D302100E9000030EA006B14EC01EC0AB2
:103DEE00EB1708009E31302608008D31762508002D
:103DFE00200044086E3E2100E9000030EA006B14FA
:103E0E00EC01EC0AEB1708002100EB17200042082A
:103E1E002100B700200044086E3E86008701210075
:103E2E0037088100080002302100AC000030AD00E0
:103E3E00AE010030AF000030B0009C318E2408007F
:103E4E002000410884000D30040203180800983148
:103E5E000435003E820008002100630886008701B9
:103E6E000030011B01302000E10004302100A000D1
:103E7E002008E3066608083A031D532F2000420867
:103E8E003D009600160803194E2F10304F2F0430A8
:103E9E002100A0002008E60020006808013A031D5A
:103EAE008C2F48302100A0000030A1006308023E94
:103EBE00860087012008C03F2108C13F95310825A3
:103ECE009F3120006C08023A031D762F84302100AA
:103EDE00A0006308860087012008810008002000EA
:103EEE00E108031D832FC8302100A000630886005F
:103EFE00870120088100080088302100A000630897
:103F0E00860087012008810008002300A21F962F3B
:103F1E0025080319952F25089F31942FA2132000F1
:103F2E00E80108002100A2012000DF1FA62FDE09F4
:103F3E00DF09DE0A0319DF0A2100A201A20A20000E
:103F4E00E11FB32FE009E109E00A0319E10A01308C
:103F5E002100A0002008A2062100A301A401200038
:103F6E005F085E040319ED2F2100A101A10A2000B4
:103F7E00DF1BCD2F01302000DE35DF0D890BC32F67
:103F8E0001302100A0002008A107BE2F0130210022
:103F9E00A335A40D890BCF2F20005F086102031DEE
:103FAE00DA2F5E086002031CE22F5E08E0025F0853
:103FBE00E13B2100231401302000DF36DE0C890B9B
:103FCE00E42F01302100A102031DCD2F2100220874
:103FDE000319F62FA309A409A30A0319A40A240896
:103FEE002000DF01DF07210023082000DE01DE07AD
:023FFE000800B9
:020000040001F9
:04000E0084CFCFDFED
:00000001FF
